:020000040800F2
:100000000050002025230008B11F0008B71F00087A
:10001000BD1F0008C31F0008C91F00080000000022
:10002000000000000000000000000000CF1F0008DA
:10003000DB1F000800000000E71F0008F31F000896
:100040006D2300086D2300086D2300086D23000850
:100050006D2300086D2300086D2300086D23000840
:100060006D2300086D2300086D2300086D23000830
:100070006D2300086D2300086D2300086D23000820
:100080006D2300086D2300086D2300086D23000810
:100090006D2300086D2300086D2300086D23000800
:1000A0006D2300086D2300086D2300086D230008F0
:1000B000012000086D2300086D2300086D2300084F
:1000C0006D2300086D2300086D2300086D230008D0
:1000D0006D2300086D2300086D2300086D230008C0
:1000E0006D2300086D2300086D2300080000000048
:1000F0000000000000000000000000000000000000
:0C01000000000000000000005FF808F1A3
:1001100010B5054C237833B9044B13B10448AFF341
:1001200000800123237010BDF001002000000000BA
:10013000407D000808B5034B1BB103490348AFF3EA
:10014000008008BD00000000F4010020407D000890
:10015000034613F8012B002AFBD1181A0138704707
:1001600081F0004102E000BF83F0004330B54FEA68
:1001700041044FEA430594EA050F08BF90EA020FD5
:100180001FBF54EA000C55EA020C7FEA645C7FEA68
:10019000655C00F0E2804FEA5454D4EB5555B8BF8B
:1001A0006D420CDD2C4480EA020281EA030382EAFC
:1001B000000083EA010180EA020281EA0303362D8E
:1001C00088BF30BD11F0004F4FEA01314FF4801C61
:1001D0004CEA113102D0404261EB410113F0004F73
:1001E0004FEA03334CEA133302D0524263EB43032A
:1001F00094EA050F00F0A780A4F10104D5F1200EC8
:100200000DDB02FA0EFC22FA05F2801841F1000122
:1002100003FA0EF2801843FA05F359410EE0A5F1F6
:1002200020050EF1200E012A03FA0EFC28BF4CF027
:10023000020C43FA05F3C01851EBE37101F00045DD
:1002400007D54FF0000EDCF1000C7EEB00006EEBEA
:100250000101B1F5801F1BD3B1F5001F0CD3490874
:100260005FEA30004FEA3C0C04F101044FEA4452CB
:1002700012F5800F80F09A80BCF1004F08BF5FEA52
:10028000500C50F1000041EB045141EA050130BD32
:100290005FEA4C0C404141EB0101013C28BFB1F544
:1002A000801FE9D291F0000F04BF01460020B1FA8F
:1002B00081F308BF2033A3F10B03B3F120020CDA62
:1002C0000C3208DD02F1140CC2F10C0201FA0CF040
:1002D00021FA02F10CE002F11402D8BFC2F1200CA5
:1002E00001FA02F120FA0CFCDCBF41EA0C0190405B
:1002F000E41AA2BF01EB0451294330BD6FEA0404A4
:100300001F3C1CDA0C340EDC04F11404C4F120028E
:1003100020FA04F001FA02F340EA030021FA04F3A0
:1003200045EA030130BDC4F10C04C4F1200220FAF7
:1003300002F001FA04F340EA0300294630BD21FA35
:1003400004F0294630BD94F0000F83F4801306BFFB
:1003500081F480110134013D4EE77FEA645C18BFEF
:100360007FEA655C29D094EA050F08BF90EA020F86
:1003700005D054EA000C04BF1946104630BD91EA7E
:10038000030F1EBF0021002030BD5FEA545C05D181
:100390004000494128BF41F0004130BD14F58004C0
:1003A0003CBF01F5801130BD01F0004545F0FE4134
:1003B00041F470014FF0000030BD7FEA645C1ABF69
:1003C000194610467FEA655C1CBF0B46024650EAA0
:1003D000013406BF52EA033591EA030F41F40021CC
:1003E00030BD00BF90F0000F04BF0021704730B552
:1003F0004FF4806404F132044FF000054FF0000127
:1004000050E700BF90F0000F04BF0021704730B5E7
:100410004FF4806404F1320410F0004548BF4042BC
:100420004FF000013EE700BF42004FEAE2014FEA11
:1004300031014FEA02701FBF12F07F4393F07F4FEC
:1004400081F06051704732F07F4208BF704793F0EF
:100450007F4F04BF41F40021704730B54FF4607402
:1004600001F0004521F000411CE700BF50EA010205
:1004700008BF704730B54FF000050AE050EA0102AE
:1004800008BF704730B511F0004502D5404261EB1E
:1004900041014FF4806404F132045FEA915C3FF45F
:1004A000D8AE4FF003025FEADC0C18BF03325FEAFC
:1004B000DC0C18BF033202EBDC02C2F1200300FAAD
:1004C00003FC20FA02F001FA03FE40EA0E0021FAD2
:1004D00002F11444BDE600BF70B54FF0FF0C4CF4C0
:1004E000E06C1CEA11541DBF1CEA135594EA0C0F72
:1004F00095EA0C0F00F0DEF82C4481EA030621EAAD
:100500004C5123EA4C5350EA013518BF52EA0335E7
:1005100041F4801143F4801338D0A0FB02CE4FF099
:100520000005E1FB02E506F00042E0FB03E54FF0C9
:100530000006E1FB03569CF0000F18BF4EF0010EC1
:10054000A4F1FF04B6F5007F64F5407404D25FEABD
:100550004E0E6D4146EB060642EAC62141EA555170
:100560004FEAC52040EA5E504FEACE2EB4F1FD0CB2
:1005700088BFBCF5E06F1ED8BEF1004F08BF5FEA30
:10058000500E50F1000041EB045170BD06F00046E2
:1005900046EA010140EA020081EA0301B4EB5C048F
:1005A000C2BFD4EB0C0541EA045170BD41F4801187
:1005B0004FF0000E013C00F3AB8014F1360FDEBFAC
:1005C000002001F0004170BDC4F10004203C35DA88
:1005D0000C341BDC04F11404C4F1200500FA05F30B
:1005E00020FA04F001FA05F240EA020001F00042AC
:1005F00021F0004110EBD37021FA04F642EB060122
:100600005EEA430E08BF20EAD37070BDC4F10C044B
:10061000C4F1200500FA04F320FA05F001FA04F20F
:1006200040EA020001F0004110EBD37041F10001FB
:100630005EEA430E08BF20EAD37070BDC4F1200506
:1006400000FA05F24EEA020E20FA04F301FA05F26E
:1006500043EA020321FA04F001F0004121FA04F216
:1006600020EA020000EBD3705EEA430E08BF20EAE6
:10067000D37070BD94F0000F0FD101F00046400020
:1006800041EB010111F4801F08BF013CF7D041EAA2
:10069000060195F0000F18BF704703F000465200A6
:1006A00043EB030313F4801F08BF013DF7D043EA77
:1006B0000603704794EA0C0F0CEA135518BF95EA2D
:1006C0000C0F0CD050EA410618BF52EA4306D1D1B4
:1006D00081EA030101F000414FF0000070BD50EAD3
:1006E000410606BF1046194652EA430619D094EA5D
:1006F0000C0F02D150EA013613D195EA0C0F05D147
:1007000052EA03361CBF104619460AD181EA03019A
:1007100001F0004141F0FE4141F470014FF0000052
:1007200070BD41F0FE4141F4780170BD70B54FF0ED
:10073000FF0C4CF4E06C1CEA11541DBF1CEA13556D
:1007400094EA0C0F95EA0C0F00F0A7F8A4EB05044F
:1007500081EA030E52EA03354FEA013100F0888046
:100760004FEA03334FF0805545EA131343EA12630F
:100770004FEA022245EA111545EA10654FEA0026C4
:100780000EF000419D4208BF964244F1FD0404F57D
:10079000407402D25B084FEA3202B61A65EB0305D9
:1007A0005B084FEA32024FF480104FF4002CB6EB96
:1007B000020E75EB030E22BFB61A754640EA0C0016
:1007C0005B084FEA3202B6EB020E75EB030E22BF56
:1007D000B61A754640EA5C005B084FEA3202B6EB97
:1007E000020E75EB030E22BFB61A754640EA9C0056
:1007F0005B084FEA3202B6EB020E75EB030E22BF26
:10080000B61A754640EADC0055EA060E18D04FEAE3
:10081000051545EA16754FEA06164FEAC30343EA83
:1008200052734FEAC2025FEA1C1CC0D111F4801F50
:100830000BD141EA00014FF000004FF0004CB6E749
:1008400011F4801F04BF01430020B4F1FD0C88BFE8
:10085000BCF5E06F3FF6AFAEB5EB030C04BFB6EBF3
:10086000020C5FEA500C50F1000041EB045170BDE6
:100870000EF0004E4EEA113114EB5C04C2BFD4EB13
:100880000C0541EA045170BD41F480114FF0000E97
:10089000013C90E645EA060E8DE60CEA135594EA13
:1008A0000C0F08BF95EA0C0F3FF43BAF94EA0C0F16
:1008B0000AD150EA01347FF434AF95EA0C0F7FF48B
:1008C00025AF104619462CE795EA0C0F06D152EADF
:1008D00003353FF4FDAE1046194622E750EA4106C3
:1008E00018BF52EA43067FF4C5AE50EA41047FF4D4
:1008F0000DAF52EA43057FF4EBAE12E74FF0FF3C39
:1009000006E000BF4FF0010C02E000BF4FF0010C09
:100910004DF804CD4FEA410C7FEA6C5C4FEA430C82
:1009200018BF7FEA6C5C1BD001B050EA410C0CBFD1
:1009300052EA430C91EA030F02BF90EA020F002033
:10094000704710F1000F91EA030F58BF994208BF9A
:1009500090422CBFD8176FEAE37040F00100704757
:100960004FEA410C7FEA6C5C02D150EA013C07D1AE
:100970004FEA430C7FEA6C5CD6D152EA033CD3D0F9
:100980005DF8040B704700BF8446104662468C46F3
:100990001946634600E000BF01B5FFF7B7FF002826
:1009A00048BF10F1000F01BD4DF808EDFFF7F4FF4F
:1009B0000CBF012000205DF808FB00BF4DF808EDDA
:1009C000FFF7EAFF34BF012000205DF808FB00BFFD
:1009D0004DF808EDFFF7E0FF94BF012000205DF81F
:1009E00008FB00BF4DF808EDFFF7CEFF94BF0120D4
:1009F00000205DF808FB00BF4DF808EDFFF7C4FFCD
:100A000034BF012000205DF808FB00BF4FEA410C15
:100A10007FEA6C5C02D150EA013C0AD14FEA430CF8
:100A20007FEA6C5C02D152EA033C02D14FF0000035
:100A300070474FF0010070474FEA410212F5001273
:100A400015D211D56FF47873B3EB625212D94FEA15
:100A5000C12343F0004343EA505311F0004F23FAFF
:100A600002F018BF404270474FF00000704750EA54
:100A7000013005D111F0004008BF6FF00040704711
:100A80004FF00000704700BF4FEA4102B2F1E0436F
:100A900024BFB3F5001CDCF1FE5C0DD901F0004C65
:100AA0004FEAC0024CEA5070B2F1004F40EB8300B5
:100AB00008BF20F00100704711F0804F21D113F1E1
:100AC0003872BCBF01F00040704741F480114FEA1A
:100AD0005252C2F11802C2F1200C10FA0CF320FAA3
:100AE00002F018BF40F001004FEAC1234FEAD323C0
:100AF00003FA0CFC40EA0C0023FA02F34FEA43032A
:100B0000CCE77FEA625307D150EA01331EBF4FF0B2
:100B1000FE4040F44000704701F0004040F0FE40CD
:100B200040F40000704700BF80F0004002E000BFCA
:100B300081F0004142001FBF5FEA410392EA030FC8
:100B40007FEA226C7FEA236C6AD04FEA1262D2EB12
:100B50001363C1BFD218414048404140B8BF5B4217
:100B6000192B88BF704710F0004F40F4000020F0B0
:100B70007F4018BF404211F0004F41F4000121F0C6
:100B80007F4118BF494292EA030F3FD0A2F1010210
:100B900041FA03FC10EB0C00C3F1200301FA03F14E
:100BA00000F0004302D5494260EB4000B0F5000F71
:100BB00013D3B0F1807F06D340084FEA310102F130
:100BC0000102FE2A51D2B1F1004F40EBC25008BFE2
:100BD00020F0010040EA03007047490040EB0000AC
:100BE000013A28BFB0F5000FEDD2B0FA80FCACF1AD
:100BF000080CB2EB0C0200FA0CF0AABF00EBC250DA
:100C000052421843BCBFD0401843704792F0000FC7
:100C100081F4000106BF80F400000132013BB5E71A
:100C20004FEA41037FEA226C18BF7FEA236C21D090
:100C300092EA030F04D092F0000F08BF08467047F5
:100C400090EA010F1CBF0020704712F07F4F04D1C3
:100C5000400028BF40F00040704712F100723CBFD6
:100C600000F50000704700F0004343F0FE4040F400
:100C7000000070477FEA226216BF08467FEA2363BE
:100C80000146420206BF5FEA412390EA010F40F4A9
:100C9000800070474FF0000304E000BF10F00043F5
:100CA00048BF40425FEA000C08BF704743F09643DC
:100CB00001464FF000001CE050EA010208BF7047F7
:100CC0004FF000030AE000BF50EA010208BF70477E
:100CD00011F0004302D5404261EB41015FEA010C93
:100CE00002BF84460146002043F0B64308BFA3F18B
:100CF0008053A3F50003BCFA8CF2083AA3EBC2536D
:100D000010DB01FA02FC634400FA02FCC2F120028B
:100D1000BCF1004F20FA02F243EB020008BF20F0C2
:100D20000100704702F1200201FA02FCC2F1200228
:100D300050EA4C0021FA02F243EB020008BF20EA1D
:100D4000DC70704742000ED2B2F1FE4F0BD34FF071
:100D50009E03B3EB126209D44FEA002343F0004331
:100D600023FA02F070474FF00000704712F1610F54
:100D700001D1420202D14FF0FF3070474FF0000026
:100D8000704700BF80B483B000AF78600B467B80B3
:100D90007B689B681B6800225A6200BF7B689B6867
:100DA0001B685A6A7B889A42F8D300BF00BF0C3791
:100DB000BD4680BC704780B586B000AF786007F153
:100DC000080300221A605A609A60DA607B689B8888
:100DD000BB600023FB6001233B617B681B6807F15C
:100DE00008021146184601F099FF00BF1837BD46AA
:100DF00080BD80B586B000AF786007F1080300229F
:100E00001A605A609A60DA607B689B88BB60012335
:100E1000FB6001233B6102237B617B681B6807F158
:100E200008021146184601F079FF00BF1837BD4689
:100E300080BD80B582B000AF78600B46FB707B68E8
:100E400018687B689B88FA78194602F002F900BF9F
:100E50000837BD4680BD80B582B000AF78607B6842
:100E60001A687B689B881946104602F0DBF8034637
:100E700018460837BD4680BD80B584B000AFF86025
:100E8000B9603B601346FB80FB68BA681A60FB6878
:100E9000FA889A80FB683A689A60FB684FF0000213
:100EA000DA60FB68DA68FB681A61F868FFF7A1FF8F
:100EB0000121F868FFF7BDFF00BF1037BD4680BDB8
:100EC000B0B586B000AF78600023FB82844A07F19A
:100ED000080392E803001860043319707B684FF030
:100EE0000002DA607B68DA687B681A617868FFF76D
:100EF00080FF00217868FFF79CFF142001F09AFA28
:100F00007868FFF758FF28217868FFF73BFF78687B
:100F1000FFF7A1FF0346002B03D150217868FFF7AC
:100F200031FF0023FB8202E0FB8A0133FB82FB8A54
:100F3000632B05D87868FFF78EFF0346002BF3D1AB
:100F400000237B7560E000233B7557E00023FB82A4
:100F500002E0FB8A0133FB82FB8A632B05D87868A9
:100F6000FFF779FF0346002BF3D028217868FFF7BD
:100F700009FF7868FFF76FFF0346002B17D17B7DD1
:100F800018333B4413F8103C5AB23B7DC3F10703BE
:100F9000012101FA03F35BB2DB435BB213405AB2A7
:100FA0007B7DD2B218333B4403F8102C14E07B7DD8
:100FB00018333B4413F8103C5AB23B7DC3F107038E
:100FC000012101FA03F35BB213435AB27B7DD2B223
:100FD00018333B4403F8102C0023FB8202E0FB8A09
:100FE0000133FB82FB8A632B05D87868FFF733FF58
:100FF0000346002BF3D13B7D01333B753B7D072B33
:10100000A4D97B7D01337B757B7D042B9BD93B7BF6
:101010001A463B7A19467B7A0B44B97A0B44F97A23
:101020000B449A4257D13B7A1846FFF7EBF9044636
:101030000D467B7A1846FFF7E5F94FF00002294B81
:10104000FFF774FB02460B4620462946FFF78EF851
:1010500002460B4610461946FFF716FD0346184692
:10106000FFF770FE03467B82BB7A1846FFF7CAF98A
:1010700004460D46FB7A1846FFF7C4F94FF000020C
:10108000184BFFF753FB02460B4620462946FFF755
:101090006DF802460B4610461946FFF7F5FC03466D
:1010A0001846FFF74FFE03463B827B8A1846FFF740
:1010B000F1FD02467B681A613B8A1846FFF7EAFD9C
:1010C00002467B68DA607868FFF793FE0121786852
:1010D000FFF7AFFE00E000BF1837BD46B0BD00BF50
:1010E000587D00080000244080B483B000AF7860D1
:1010F0007B68DB6818460C37BD4680BC704780B4FF
:1011000083B000AF78607B681B6918460C37BD461A
:1011100080BC7047B0B586B006AF114B5B6818460F
:10112000FFF782F904460D460D4B9B681846FFF702
:101130007BF902460B460A49898908460849C9894C
:1011400005910490CDE90223CDE90045012205492E
:10115000054804F06FFC0346DBB21846BD46B0BD3F
:1011600000000020607D00081002002080B400AF65
:10117000034B00221A7000BFBD4680BC704700BF01
:101180000C02002080B500AF304B1B78022B0DD035
:10119000022B55DC002B02D0012B40D050E02C4B11
:1011A0001E221A80294B02221A704DE0294A002182
:1011B000002000F019FA264B1B88002B2BD1244B62
:1011C0001E221A802448FFF77BFE2348FFF78CFF7E
:1011D0000346224A53602048FFF791FF03461F4A07
:1011E000936000F057F803461A461C4B9A8100F0B2
:1011F0006FF803461A46194BDA810321184801F0AB
:1012000071F8642001F016F9FFF784FF03461946D0
:10121000144801F067F80D4B01221A7014E0124ACD
:101220000021002000F0E0F901F028F90121002060
:1012300002F08AFB01F030F9044B02221A7003E03D
:10124000024B00221A7000BF00BF80BD0C020020BC
:10125000EC020020A07D0008D80200200000002041
:10126000A87D000810020020AC7D000880B483B087
:1012700000AF78603960054A7B681360044A3B68B8
:10128000136000BF0C37BD4680BC7047F0020020E1
:10129000F402002080B500AF0B4B1B68184601F02C
:1012A000E1F9094B1B68184601F08AFA03466422EB
:1012B00003FB02F2054BA3FB0213D21A520813449C
:1012C000DB0A9BB2184680BDF0020020010110002D
:1012D00080B500AF0B4B1B68184601F0C3F9094BF2
:1012E0001B68184601F06CFA0346642203FB02F205
:1012F000054BA3FB0213D21A52081344DB0A9BB21C
:10130000184680BDF40200200101100080B582B0B3
:1013100000AF0346FB80FB88184601F08BF800BF46
:101320000837BD4680BD000080B586B002AF0346D9
:101330000A46FB711346BB71FB7923F00F03FB7365
:10134000FB791B01BB731C4BDB7A002B07D0FB7BAB
:1013500043F00803FB73BB7B43F00803BB73BB790B
:10136000012B07D1FB7B43F00103FB73BB7B43F0F5
:101370000103BB73FB7B43F00403DBB23B72FB7BDB
:101380007B72BB7B43F00403DBB2BB72BB7BFB72A3
:10139000094B1868084B1B799BB25B0099B207F1A7
:1013A00008024FF47A730093042301F0C7FF00BFD3
:1013B0001037BD4680BD00BFFC02002080B584B060
:1013C00000AF7860084611461A460346FB700B468C
:1013D000BB7013467B704A4A7B681360484AFB78AF
:1013E0001371474A7B785371454ABB789371444BDC
:1013F00028221A72424B0622DA71414B0C225A7291
:101400003F4B14229A723E4B0822DA723220FFF7C9
:101410007DFF3C4B1B68002B04D03A4B1B681846E1
:1014200003F0ACFDBB787A7802FB03F3DB001846CF
:1014300003F09CFD03461A46324B1A600023FB73EF
:1014400008E0304B1A68FB7B134420221A70FB7BA8
:101450000133FB73FA7B2A4B9B791946284B5B7946
:1014600001FB03F39A42ECDB00213320FFF75CFF22
:1014700000213320FFF758FF0520FFF747FF002129
:101480003220FFF751FF0520FFF740FF0021202009
:10149000FFF74AFF0520FFF739FF194BDB790021E1
:1014A0001846FFF741FF0120FFF730FF144B5B7A2E
:1014B00000211846FFF738FF0120FFF727FF104BE8
:1014C0009B7A00211846FFF72FFF0120FFF71EFF30
:1014D0000B4B1B7A00211846FFF726FF0120FFF770
:1014E00015FF00210120FFF71FFF0120FFF70EFF6E
:1014F00000210220FFF718FF00BF1037BD4680BD56
:10150000FC020020F802002080B584B000AF034642
:101510000A46FB711346BB710023FB731D4B9A797E
:10152000FB79B3FBF2F101FB02F29B1AFB71194B41
:101530005A79BB79B3FBF2F101FB02F29B1ABB7142
:10154000FB79032B19D801A252F823F05D1500088E
:10155000631500086B15000873150008BB79FB7351
:101560000BE0BB794033FB7307E0BB791433FB73AB
:1015700003E0BB795433FB7300BFFB7B63F07F0355
:10158000DBB200211846FFF7CFFE00BF1037BD4683
:1015900080BD00BFFC02002080B483B000AF0346D2
:1015A000FB710D4B1B680D4A127811460C4A52799B
:1015B00001FB02F20B4909780A441344FA791A70C4
:1015C000084B1B780133DAB2064B1A7000BF0C3798
:1015D000BD4680BC704700BFF80200200903002010
:1015E000FC0200200803002080B582B000AF034653
:1015F0003A60FB710B46BB71134B9A79FB79B3FBD5
:10160000F2F101FB02F29B1ADAB2104B1A700E4B88
:101610005A79BB79B3FBF2F101FB02F29B1ADAB201
:101620000B4B1A7006E03B685A1C3A601B78184650
:10163000FFF7B2FF3B681B78002BF4D100BF00BF5F
:101640000837BD4680BD00BFFC0200200903002012
:101650000803002080B584B000AF0346FB710B4641
:10166000BB711346BB800023FB73304BBB60FB791F
:1016700003F00103DAB22E4B1A70BB7903F00F03AB
:10168000DAB22C4B1A70B7F90430002B07DABB889A
:101690005B429BB2BB802D20FFF77EFF11E0B7F9C4
:1016A0000430002B06D13020FFF776FF3020FFF703
:1016B00073FF38E0B7F90430092B02DC3020FFF764
:1016C0006BFF0A23BB732BE0B7F90430BA689A4268
:1016D0000DD80123FB73B7F90420BB68B2FBF3F309
:1016E000DBB23033DBB21846FFF756FF05E0FB7B79
:1016F000002B02D03020FFF74FFFB7F90430BA6853
:10170000B3FBF2F2B96801FB02F29B1ABB80BB6823
:10171000094AA2FB0323DB08BB60BB7B013BBB7315
:10172000BB7B002BD0D11037BD4680BD00CA9A3B91
:101730000903002008030020CDCCCCCC80B582B0BA
:1017400000AF0023FB7121E0FB7900211846FFF771
:10175000DBFE0023BB7111E0114B1B68FA791149C4
:10176000497902FB01F1BA790A4413441B7801213B
:101770001846FFF7D9FDBB790133BB71094B5B7983
:10178000BA799A42E8D3FB790133FB71054B9B7917
:10179000FA799A42D8D300BF00BF0837BD4680BD52
:1017A000F8020020FC02002080B500AF00F0E0FD50
:1017B00000F068F800F030FA00F068F900F0B4F9D1
:1017C00000F036F900F0FEF900F0B6F800F0F2F89B
:1017D000224802F03FFE224802F0F2FD4FF47A71F7
:1017E0001E4800F013FD4FF47A7000F037FD1D49DC
:1017F0001D48FFF73BFD1A4B08221C491C48FFF708
:101800003BFB1C4800F060FD1023022227211A48F0
:10181000FFF7D4FDFFF7AAFC00F044FD0346002BC0
:10182000FAD0164B1B88002B05D0144B1B88013BAC
:101830009AB2124B1A80FFF7A5FC4FF400511048E2
:1018400001F01FFC0D4B1B881BB21A460021012022
:10185000FFF700FFFFF772FFDEE700BFC0030020C5
:10186000080400203C0300200C0300200008014075
:10187000D8020020500400206C030020EC0200205D
:101880000010014080B594B000AF07F12803282272
:101890000021184603F07AFB07F1140300221A60B6
:1018A0005A609A60DA601A613B1D00221A605A6021
:1018B0009A60DA600123BB624FF48033FB6200233D
:1018C0003B630123BB6302237B644FF48033BB641F
:1018D0000023FB6407F12803184602F051F8034681
:1018E000002B01D000F004FA0F237B610223BB61BF
:1018F0000023FB614FF480633B6200237B6207F1AE
:1019000014030021184602F0BDFA0346002B01D053
:1019100000F0EEF902237B600023FB603B1D1846BC
:1019200002F048FC0346002B01D000F0E1F900BFB3
:101930005037BD4680BD000080B584B000AF3B1D70
:1019400000221A605A609A60184B194A1A60174BA5
:1019500000229A60154B00221A73144B00221A754C
:10196000124B4FF46022DA61104B00225A600F4B89
:1019700001221A610D4800F09DFD0346002B01D0A5
:1019800000F0B6F900237B600123BB600023FB60FD
:101990003B1D1946054800F01FFF0346002B01D0F0
:1019A00000F0A6F900BF1037BD4680BD0C03002033
:1019B0000024014080B584B000AF3B1D00221A60B6
:1019C0005A609A60184B194A1A60174B00229A60A5
:1019D000154B00221A73144B00221A75124B4FF448
:1019E0006022DA61104B00225A600F4B01221A610B
:1019F0000D4800F05FFD0346002B01D000F078F9A0
:101A000000237B600123BB600023FB603B1D194664
:101A1000054800F0E1FE0346002B01D000F068F914
:101A200000BF1037BD4680BD3C03002000280140A8
:101A300080B500AF124B134A1A60114B124A5A601C
:101A40000F4B00229A600E4B0022DA600C4B4FF4D1
:101A500080421A610A4B00225A61094B00229A61A6
:101A6000074B0022DA61064B00221A62044801F09B
:101A700021FB0346002B01D000F03AF900BF80BDE6
:101A80006C03002000540040A086010080B586B0A1
:101A900000AF07F1080300221A605A609A60DA600A
:101AA0003B4600221A605A601E4B4FF080421A607B
:101AB0001C4B43F67F625A601A4B00229A60194B06
:101AC00040F2E732DA60174B00221A61154B002210
:101AD0009A61144802F024FC0346002B01D000F068
:101AE00007F94FF48053BB6007F1080319460D480E
:101AF00002F00AFE0346002B01D000F0F9F80023A3
:101B00003B6000237B603B461946064802F0DCFF41
:101B10000346002B01D000F0EBF800BF1837BD469C
:101B200080BD00BFC003002080B586B000AF07F1C4
:101B3000080300221A605A609A60DA603B4600226D
:101B40001A605A601D4B1E4A1A601C4B0F225A60C5
:101B50001A4B00229A60194B4FF6FE72DA60174B4F
:101B600000221A61154B00229A61144802F0D8FB3A
:101B70000346002B01D000F0BBF84FF48053BB604C
:101B800007F1080319460D4802F0BEFD0346002B7D
:101B900001D000F0ADF800233B6000237B603B46A2
:101BA0001946064802F090FF0346002B01D000F0D2
:101BB0009FF800BF1837BD4680BD00BF0804002055
:101BC0000004004080B500AF114B124A1A60104B60
:101BD0004FF416525A600E4B00229A600C4B0022B2
:101BE000DA600B4B00221A61094B0C225A61084B38
:101BF00000229A61064B0022DA61054802F0D4FF08
:101C00000346002B01D000F073F800BF80BD00BF79
:101C1000500400200038014080B588B000AF07F1C3
:101C2000100300221A605A609A60DA602D4B9B699B
:101C30002C4A43F0100393612A4B9B6903F0100375
:101C4000FB60FB68274B9B69264A43F020039361A6
:101C5000244B9B6903F02003BB60BB68214B9B694D
:101C6000204A43F0040393611E4B9B6903F0040375
:101C70007B607B681B4B9B691A4A43F008039361A6
:101C8000184B9B6903F008033B603B6800224FF44C
:101C90000051154801F0DDF900220821134801F038
:101CA000D8F94FF400533B6101237B610123BB61F1
:101CB0000223FB6107F1100319460B4801F02EF8CF
:101CC00008233B6101237B610123BB610223FB618C
:101CD00007F110031946054801F020F800BF20372E
:101CE000BD4680BD001002400010014000080140C8
:101CF00080B400AF72B600BFFEE7000080B485B0CC
:101D000000AF154B9B69144A43F001039361124BDA
:101D10009B6903F00103BB60BB680F4BDB690E4A94
:101D200043F08053D3610C4BDB6903F080537B603D
:101D30007B680A4B5B68FB60FB6823F0E063FB6039
:101D4000FB6843F00073FB60044AFB68536000BF0C
:101D50001437BD4680BC70470010024000000140AF
:101D600080B58AB000AF786007F1180300221A60CE
:101D70005A609A60DA607B681B68284A934222D1D5
:101D8000274B9B69264A43F400739361244B9B695C
:101D900003F400737B617B69214B9B69204A43F00C
:101DA000040393611E4B9B6903F004033B613B6991
:101DB0000123BB610323FB6107F11803194619488E
:101DC00000F0ACFF26E07B681B68174A934221D1E4
:101DD000134B9B69124A43F480639361104B9B69D8
:101DE00003F48063FB60FB680D4B9B690C4A43F076
:101DF000040393610A4B9B6903F00403BB60BB6857
:101E00000123BB610323FB6107F118031946054851
:101E100000F084FF00BF2837BD4680BD002401408C
:101E200000100240000801400028014080B588B041
:101E300000AF786007F1100300221A605A609A60C0
:101E4000DA607B681B68154A934223D1144B9B6967
:101E5000134A43F008039361114B9B6903F0080395
:101E6000FB60FB68C0233B6112237B610323FB61A2
:101E700007F1100319460B4800F050FF084BDB69CF
:101E8000074A43F40013D361054BDB6903F40013E5
:101E9000BB60BB6800BF2037BD4680BD005400401A
:101EA00000100240000C014080B584B000AF7860A3
:101EB0007B681B68B3F1804F14D1154BDB69144A62
:101EC00043F00103D361124BDB6903F00103FB60B4
:101ED000FB68002200211C2000F0E9FE1C2000F01D
:101EE00002FF10E07B681B680A4A93420BD1084B43
:101EF000DB69074A43F00203D361054BDB6903F05A
:101F00000203BB60BB6800BF1037BD4680BD00BF89
:101F1000001002400004004080B588B000AF786037
:101F200007F1100300221A605A609A60DA607B6839
:101F30001B681C4A934231D11B4B9B691A4A43F4DC
:101F400080439361184B9B6903F48043FB60FB68FB
:101F5000154B9B69144A43F004039361124B9B6930
:101F600003F00403BB60BB684FF400733B610223C2
:101F70007B610323FB6107F1100319460B4800F056
:101F8000CDFE4FF480633B6100237B610023BB6186
:101F900007F110031946054800F0C0FE00BF2037C6
:101FA000BD4680BD003801400010024000080140DD
:101FB00080B400AFFEE780B400AFFEE780B400AFAE
:101FC000FEE780B400AFFEE780B400AFFEE780B468
:101FD00000AF00BFBD4680BC704780B400AF00BFFB
:101FE000BD4680BC704780B400AF00BFBD4680BC1A
:101FF000704780B500AF00F001FA00BF80BD00005F
:1020000080B500AF024802F077FA00BF80BD00BF84
:10201000C003002080B400AF01231846BD4680BC39
:10202000704780B582B000AF7860396002F074FF0D
:10203000034616221A604FF0FF3318460837BD4694
:1020400080BD80B582B000AF78604FF0FF31786816
:10205000FFF7E7FFFEE780B586B000AFF860B96034
:102060007A6000237B610AE0AFF300800146BB6821
:102070005A1CBA60CAB21A707B6901337B617A69F3
:102080007B689A42F0DB7B6818461837BD4680BDF6
:1020900080B586B000AFF860B9607A6000237B61DC
:1020A00009E0BB685A1CBA601B781846AFF3008081
:1020B0007B6901337B617A697B689A42F1DB7B68DB
:1020C00018461837BD4680BD80B483B000AF786035
:1020D0004FF0FF3318460C37BD4680BC704780B4C4
:1020E00083B000AF786039603B684FF400525A60AB
:1020F000002318460C37BD4680BC704780B483B0BF
:1021000000AF7860012318460C37BD4680BC70478D
:1021100080B485B000AFF860B9607A6000231846DB
:102120001437BD4680BC704780B586B000AF78607C
:10213000144A154BD31A7B617B693B61134B1B68B7
:10214000002B02D1114B124A1A60104B1A687B689F
:1021500013443A699A4207D202F0DEFE03460C228B
:102160001A604FF0FF3309E0084B1B68FB60074B18
:102170001A687B681344054A1360FB6818461837D1
:10218000BD4680BD005000200004000094040020E3
:10219000B804002080B400AF00BFBD4680BC7047CB
:1021A00080B400AF0C4B1B88002B11D00A4B1B884E
:1021B000013B9AB2084B1A80074B1B88002B07D1B2
:1021C000064B1B789AB2044B1A80054B01221A70F9
:1021D00000BFBD4680BC70479E0400201600002052
:1021E0009C04002080B582B000AF78607B681A68DC
:1021F000054B1B681B689A4201D1FFF7D1FF00BF56
:102200000837BD4680BD00BF9804002080B582B06D
:1022100000AF78600B467B800B4A7B6813600B4BEA
:102220001B789AB20A4B1A800A4A7B8813800A4BA1
:1022300000221A70044B1B68184602F00BF900BF0D
:102240000837BD4680BD00BF98040020160000205E
:102250009E040020140000209C04002080B483B061
:1022600000AF0346FB800B4B1B88FA88B2FBF3F3ED
:102270009BB2DAB2084B1A70074B1B789AB2074B25
:102280001A80074B00221A7000BF0C37BD4680BC75
:10229000704700BF14000020160000209E0400209C
:1022A0009C04002080B400AF064B1B78002B04D0A8
:1022B000044B00221A70012300E000231846BD469B
:1022C00080BC70479C04002080B483B000AF78606D
:1022D000034A7B68136000BF0C37BD4680BC704763
:1022E000A004002080B584B000AF78600B46FB707E
:1022F0000023FB730BE00A4B1868FB7B7A68D1184C
:102300006423012202F09DFCFB7B0133FB73FA7B0B
:10231000FB789A42EFD300BF00BF1037BD4680BDA7
:10232000A00400200C480D490D4A002302E0D458B7
:10233000C4500433C4188C42F9D30A4A0A4C00230F
:1023400001E013600432A242FBD3FFF723FF02F047
:10235000E9FDFFF729FA704700000020F001002096
:10236000BC810008F0010020B8040020FEE7000056
:1023700080B500AF084B1B68074A43F01003136099
:10238000032000F089FC0F2000F008F8FFF7B6FCEE
:102390000023184680BD00BF0020024080B582B0F7
:1023A00000AF7860124B1A68124B1B7819464FF435
:1023B0007A73B3FBF1F3B2FBF3F3184600F0A1FC20
:1023C0000346002B01D001230EE07B680F2B0AD8B7
:1023D000002279684FF0FF3000F069FC064A7B6804
:1023E0001360002300E0012318460837BD4680BD76
:1023F000100000201C0000201800002080B400AF56
:10240000054B1B781A46054B1B681344034A13609F
:1024100000BFBD4680BC70471C000020A404002003
:1024200080B400AF024B1B681846BD4680BC7047A5
:10243000A404002080B584B000AF7860FFF7F0FFFF
:10244000B8607B68FB60FB68B3F1FF3F05D00A4BC7
:102450001B781A46FB681344FB6000BFFFF7E0FFE0
:102460000246BB68D31AFA689A42F7D800BF00BF89
:102470001037BD4680BD00BF1C00002080B400AFF7
:10248000044B1B68034A23F00203136000BFBD46E0
:1024900080BC704710E000E080B400AF044B1B68C4
:1024A000034A43F00203136000BFBD4680BC70477F
:1024B00010E000E080B586B000AF78600023FB75C7
:1024C00000233B610023BB600023FB607B68002B83
:1024D00001D10123BEE07B689B68002B7B689B6A6F
:1024E000002B09D17B680022DA627B68002283F826
:1024F00024207868FFF734FC786800F0BFFA0346C0
:10250000FB757B689B6A03F01003002B40F09980F9
:10251000FB7D002B40F095807B689B6A23F48853F9
:1025200023F0020343F002027B689A627B685A68D8
:102530007B68DB691A437B681B7B5B001343BA68CB
:102540001343BB607B689B68B3F5807F03D07B68D7
:102550009B68012B02D14FF4807300E000233A699D
:1025600013433B617B681B7D012B19D17B681B7B6F
:10257000002B09D17B689B69013B5A033B691343DC
:1025800043F400633B610BE07B689B6A43F02002ED
:102590007B689A627B68DB6A43F001027B68DA62DF
:1025A0007B681B685B6823F469417B681B683A6938
:1025B0000A435A607B681B689A68284B13407A6804
:1025C0001268B9680B4393607B689B68B3F5807FA2
:1025D00003D07B689B68012B04D17B681B69013B9E
:1025E0001B05FB607B681B68DB6A23F470017B685A
:1025F0001B68FA680A43DA627B681B689A68184BA2
:102600001340BA689A420BD17B680022DA627B6879
:102610009B6A23F0030343F001027B689A6218E08F
:102620007B689B6A23F0120343F010027B689A6276
:102630007B68DB6A43F001027B68DA620123FB7589
:1026400007E07B689B6A43F010027B689A62012373
:10265000FB75FB7D18461837BD4680BDFDF7E1FFD1
:10266000FE0E1FFF80B584B000AF78600023FB73BF
:102670007B6893F82430012B01D1022398E07B681A
:10268000012283F82420786800F09EF90346FB734A
:10269000FB7B002B40F087807B689B6A23F44073B0
:1026A00023F0010343F480727B689A627B681B68A5
:1026B000414A934205D1414B5B6803F47023002BE0
:1026C00015D17B689B6A23F480127B689A627B68D1
:1026D0001B685B6803F48063002B26D07B689B6AD1
:1026E00023F4405343F480527B689A621DE07B6878
:1026F0009B6A43F480127B689A627B681B682F4A4E
:10270000934204D07B681B682B4A93420DD12B4B1C
:102710005B6803F48063002B07D07B689B6A23F41B
:10272000405343F480527B689A627B689B6A03F44F
:102730008053002B06D07B68DB6A23F006027B689F
:10274000DA6202E07B680022DA627B68002283F8AA
:1027500024207B681B686FF002021A607B681B688C
:102760009B6803F46023B3F5602F13D17B681B686B
:10277000114A934205D1114B5B6803F47023002B7F
:1027800008D17B681B689A687B681B6842F4A002CA
:102790009A600CE07B681B689A687B681B6842F44F
:1027A00080129A6003E07B68002283F82420FB7B80
:1027B00018461037BD4680BD002801400024014066
:1027C00080B483B000AF78607B681B68DB6C184610
:1027D0000C37BD4680BC704780B485B000AF7860D0
:1027E00039600023FB730023BB607B6893F82430BF
:1027F000012B01D10223DCE07B68012283F8242035
:102800003B685B68062B1CD87B681B68596B3B6870
:102810005A6813469B001344053B1F2202FA03F338
:10282000DB4319403B6818683B685A6813469B00B5
:102830001344053B00FA03F27B681B680A435A63A2
:102840003CE03B685B680C2B1CD87B681B68196BF1
:102850003B685A6813469B001344233B1F2202FA2D
:1028600003F3DB4319403B6818683B685A6813461A
:102870009B001344233B00FA03F27B681B680A4366
:102880001A631BE07B681B68D96A3B685A68134669
:102890009B001344413B1F2202FA03F3DB43194020
:1028A0003B6818683B685A6813469B001344413BD9
:1028B00000FA03F27B681B680A43DA623B681B6814
:1028C000092B1CD97B681B68D9683B681A681346BA
:1028D0005B0013441E3B072202FA03F3DB4319405B
:1028E0003B6898683B681A6813465B0013441E3BBC
:1028F00000FA03F27B681B680A43DA6019E07B6820
:102900001B6819693B681A6813465B001344072269
:1029100002FA03F3DB4319403B6898683B681A6886
:1029200013465B00134400FA03F27B681B680A43FA
:102930001A613B681B68102B03D03B681B68112B86
:1029400032D17B681B681D4A934225D17B681B6886
:102950009B6803F40003002B26D17B681B689A68F0
:102960007B681B6842F400029A603B681B68102B6E
:102970001AD1134B1B68134AA2FB03239A0C13466C
:102980009B0013445B00BB6002E0BB68013BBB6083
:10299000BB68002BF9D107E07B689B6A43F02002FB
:1029A0007B689A620123FB737B68002283F82420F2
:1029B000FB7B18461437BD4680BC7047002401409D
:1029C0001000002083DE1B4380B584B000AF786028
:1029D0000023FB600023BB607B681B689B6803F0DF
:1029E0000103012B40D07B681B689A687B681B68D9
:1029F00042F001029A601F4B1B681F4AA2FB03238F
:102A00009B0CBB6002E0BB68013BBB60BB68002B5A
:102A1000F9D1FFF705FDF8601FE0FFF701FD024661
:102A2000FB68D31A022B18D97B681B689B6803F0DC
:102A30000103012B11D07B689B6A43F010027B6875
:102A40009A627B68DB6A43F001027B68DA627B682A
:102A5000002283F82420012307E07B681B689B6821
:102A600003F00103012BD8D1002318461037BD46CF
:102A700080BD00BF1000002083DE1B4380B584B002
:102A800000AF78600023FB607B681B689B6803F0E5
:102A90000103012B2ED17B681B689A687B681B6839
:102AA00022F001029A60FFF7BBFCF8601BE0FFF721
:102AB000B7FC0246FB68D31A022B14D97B681B684B
:102AC0009B6803F00103012B0DD17B689B6A43F0E7
:102AD00010027B689A627B68DB6A43F001027B68C4
:102AE000DA62012307E07B681B689B6803F001033F
:102AF000012BDCD0002318461037BD4680BD0000F6
:102B000080B485B000AF78607B6803F00703FB609A
:102B10000C4BDB68BB60BA684FF6FF031340BB6029
:102B2000FB681A02BB68134343F0BF6343F40033EE
:102B3000BB60044ABB68D36000BF1437BD4680BC8D
:102B4000704700BF00ED00E080B400AF044BDB68CD
:102B50001B0A03F007031846BD4680BC704700BF40
:102B600000ED00E080B483B000AF0346FB7197F93D
:102B70000730002B0BDBFB7903F01F02064997F9A6
:102B800007305B09012000FA02F241F8232000BF60
:102B90000C37BD4680BC704700E100E080B483B0D4
:102BA00000AF03463960FB7197F90730002B0ADB51
:102BB0003B68DAB20C4997F907301201D2B20B44E4
:102BC00083F800230AE03B68DAB20849FB7903F096
:102BD0000F03043B1201D2B20B441A7600BF0C372C
:102BE000BD4680BC704700BF00E100E000ED00E0A2
:102BF00080B489B000AFF860B9607A60FB6803F018
:102C00000703FB61FB69C3F10703042B28BF0423FF
:102C1000BB61FB690433062B02D9FB69033B00E06F
:102C200000237B614FF0FF32BB6902FA03F3DA4302
:102C3000BB681A407B699A404FF0FF317B6901FA0B
:102C400003F3D9437B680B40134318462437BD4632
:102C500080BC704780B582B000AF78607B68013B74
:102C6000B3F1807F01D301230FE00A4A7B68013B67
:102C700053600F214FF0FF30FFF790FF054B00220C
:102C80009A60044B07221A60002318460837BD4695
:102C900080BD00BF10E000E080B582B000AF78607A
:102CA0007868FFF72DFF00BF0837BD4680BD80B5AF
:102CB00086B000AF0346B9607A60FB7300237B6186
:102CC000FFF742FF78617A68B9687869FFF790FF8B
:102CD000024697F90F3011461846FFF75FFF00BF15
:102CE0001837BD4680BD80B582B000AF0346FB718A
:102CF00097F907301846FFF735FF00BF0837BD4684
:102D000080BD80B582B000AF78607868FFF7A2FF21
:102D1000034618460837BD4680BD000080B48BB01E
:102D200000AF7860396000237B6200233B6269E179
:102D300001227B6A02FA03F3FB613B681B68FA69B4
:102D40001340BB61BA69FB699A4240F058813B6805
:102D50005B689A4A93425ED0984A934275D8984AE3
:102D6000934258D0964A93426FD8964A934252D093
:102D7000944A934269D8944A93424CD0924A9342DF
:102D800063D8924A934246D0904A93425DD8122B20
:102D90002AD8122B59D801A252F823F0172E000876
:102DA000F12D0008032E0008452E00084B2E0008C8
:102DB0004B2E00084B2E00084B2E00084B2E00080F
:102DC0004B2E00084B2E00084B2E00084B2E0008FF
:102DD0004B2E00084B2E00084B2E00084B2E0008EF
:102DE000F92D00080D2E0008794A934213D02CE0EB
:102DF0003B68DB683B6229E03B68DB6804333B628D
:102E000024E03B68DB6808333B621FE03B68DB681B
:102E10000C333B621AE03B689B68002B02D1042311
:102E20003B6213E03B689B68012B05D108233B62A2
:102E30007B68FA691A6109E008233B627B68FA69DA
:102E40005A6103E000233B6200E000BFBB69FF2B37
:102E500001D87B6801E07B6804337B61BB69FF2B91
:102E600002D87B6A9B0002E07B6A083B9B003B61C7
:102E70007B691A680F213B6901FA03F3DB431A40AF
:102E8000396A3B6901FA03F31A437B691A603B68AC
:102E90005B6803F08053002B00F0B1804D4B9B69C1
:102EA0004C4A43F0010393614A4B9B6903F00103D1
:102EB000BB60BB68484A7B6A9B08023352F82330E8
:102EC000FB607B6A03F003039B000F2202FA03F30B
:102ED000DB43FA681340FB607B68404A934213D09F
:102EE0007B683F4A93420DD07B683E4A934207D0AD
:102EF0007B683D4A934201D1032306E0042304E0AA
:102F0000022302E0012300E000237A6A02F00302B8
:102F100092009340FA681343FB602F497B6A9B0839
:102F20000233FA6841F823203B685B6803F480337E
:102F3000002B06D02D4B1A682C49BB6913430B603C
:102F400006E02A4B1A68BB69DB43284913400B6033
:102F50003B685B6803F40033002B06D0234B5A68B0
:102F60002249BB6913434B6006E0204B5A68BB699A
:102F7000DB431E4913404B603B685B6803F48013DE
:102F8000002B06D0194B9A681849BB6913438B6014
:102F900006E0164B9A68BB69DB43144913408B600B
:102FA0003B685B6803F40013002B21D00F4BDA68F9
:102FB0000E49BB691343CB6021E000BF0000321013
:102FC000000031100000221000002110000012103B
:102FD00000001110001002400000014000080140F4
:102FE000000C0140001001400014014000040140A9
:102FF0000B4BDA68BB69DB4309491340CB607B6A42
:1030000001337B623B681A687B6A22FA03F3002B68
:103010007FF48EAE00BF00BF2C37BD4680BC70472A
:103020000004014080B485B000AF78600B467B801F
:103030007B689A687B881340002B02D00123FB73C6
:1030400001E00023FB73FB7B18461437BD4680BCB0
:10305000704780B483B000AF78600B467B80134626
:103060007B707B78002B03D07A887B681A6103E041
:103070007B881A047B681A6100BF0C37BD4680BC90
:10308000704780B485B000AF78600B467B807B686A
:10309000DB68FB607A88FB6813401A04FB68D9433D
:1030A0007B880B401A437B681A6100BF1437BD460A
:1030B00080BC704780B584B000AF78607B68002B1F
:1030C00001D101232BE17B6893F83D30DBB2002B6B
:1030D00006D17B68002283F83C207868FEF7A6FEC4
:1030E0007B68242283F83D207B681B681A687B6814
:1030F0001B6822F001021A607B681B681A687B68F3
:103100001B6842F400421A607B681B681A687B687F
:103110001B6822F400421A6001F006F8F8607B6830
:103120005B68814A934207D8FB68804A934294BF08
:1031300001230023DBB206E0FB687D4A934294BF83
:1031400001230023DBB2002B01D00123E7E0FB6861
:10315000784AA2FB03239B0CBB607B681B685B68FF
:1031600023F03F017B681B68BA680A435A607B689A
:103170001B681B6A23F03F017B685B686A4A9342C5
:1031800002D8BB68013309E0BB684FF4967202FBBA
:1031900003F3694AA2FB03239B0901337A6812688F
:1031A0000B4313627B681B68DB6923F44F4222F0F8
:1031B000FF027B685B685C498B4219D8FB68591E2B
:1031C0007B685B685B00B1FBF3F3591C40F6FC7352
:1031D0000B40002B0AD0FB68591E7B685B685B00C4
:1031E000B1FBF3F30133C3F30B0351E004234FE0CE
:1031F0007B689B68002B11D1FB68581E7B6859685F
:103200000B465B000B44B0FBF3F30133C3F30B033A
:10321000002B0CBF01230023DBB212E0FB68581E19
:103220007B6859680B469B000B4499000B44B0FB2C
:10323000F3F30133C3F30B03002B0CBF0123002373
:10324000DBB2002B01D0012322E07B689B68002BBE
:103250000ED1FB68581E7B6859680B465B000B4417
:10326000B0FBF3F30133C3F30B0343F400430FE06C
:10327000FB68581E7B6859680B469B000B449900FD
:103280000B44B0FBF3F30133C3F30B0343F44043AC
:10329000796809681343CB617B681B681B6823F05E
:1032A000C0017B68DA697B681B6A1A437B681B680C
:1032B0000A431A607B681B689B6823F4034323F06E
:1032C000FF037A6811697A68D26811437A681268D4
:1032D0000B4393607B681B68DB6823F0FF017B680E
:1032E0005A697B689B691A437B681B680A43DA60EA
:1032F0007B681B681A687B681B6842F001021A60D1
:103300007B6800221A647B68202283F83D207B685A
:1033100000221A637B68002283F83E2000231846AF
:103320001037BD4680BD00BFA08601007F841E000F
:10333000FF083D0083DE1B43D34D621080B588B08B
:1033400002AFF8607A601A460B467B8113463B81D8
:10335000FFF766F87861FB6893F83D30DBB2202B0D
:1033600040F0E0807B690093192301227049F868DE
:1033700000F064F90346002B01D00223D3E0FB6880
:1033800093F83C30012B01D10223CCE0FB680122F1
:1033900083F83C20FB681B681B6803F00103012BCA
:1033A00007D0FB681B681A68FB681B6842F00102C3
:1033B0001A60FB681B681A68FB681B6822F40062CD
:1033C0001A60FB68212283F83D20FB68102283F8F5
:1033D0003E20FB6800221A64FB687A685A62FB6828
:1033E0003A895A85FB685B8D9AB2FB681A85FB683F
:1033F000504ADA6279897B693A6AF86800F09CF889
:103400000346002B01D001238DE000233B61FB68C4
:103410001B685B693B61FB681B689B693B613B699F
:1034200066E07A69396AF86800F0DEF90346002B35
:103430000DD0FB681B6C042B07D1FB681B681A6856
:10344000FB681B6842F400721A6001236BE0FB68A2
:103450005B6A1A78FB681B681A61FB685B6A5A1C16
:10346000FB685A62FB685B8D9BB2013B9AB2FB68BA
:103470005A85FB681B8D013B9AB2FB681A85FB6875
:103480001B685B6903F00403042B1BD1FB681B8DD5
:10349000002B17D0FB685B6A1A78FB681B681A61FF
:1034A000FB685B6A5A1CFB685A62FB685B8D9BB2C7
:1034B000013B9AB2FB685A85FB681B8D013B9AB2AF
:1034C000FB681A857A69396AF86800F0CEF9034614
:1034D000002B0DD0FB681B6C042B07D1FB681B680D
:1034E0001A68FB681B6842F400721A6001231AE034
:1034F000FB681B8D002B94D1FB681B681A68FB6866
:103500001B6842F400721A60FB68202283F83D2099
:10351000FB68002283F83E20FB68002283F83C20F1
:10352000002300E0022318461837BD4680BD00BFC7
:10353000020010000000FFFF80B588B002AFF86005
:103540007A603B600B467B81FB68DB6A7B617B6951
:10355000082B06D07B69012B03D07B6913F5803FD4
:1035600008D1FB681B681A68FB681B6842F480720C
:103570001A600BE0FB681B6B122B07D1FB681B6802
:103580001A68FB681B6842F480721A603B680093FB
:103590007B6800224FF00111F86800F04FF80346F5
:1035A000002B0DD0FB681B681B6803F48073B3F518
:1035B000807F03D1FB684FF400721A64032335E067
:1035C000FB681B69B3F5804F08D17B89DBB21A46D3
:1035D000FB681B6802F0FE021A611BE07B89DB11AD
:1035E000DBB203F00603DBB263F00F03DAB2FB6871
:1035F0001B681A613B687A680E49F86800F075F834
:103600000346002B01D0012310E07B89DAB2FB686E
:103610001B681A613B687A680749F86800F065F82A
:103620000346002B01D0012300E000231846183781
:10363000BD4680BD080001000200010080B584B0D5
:1036400000AFF860B9603B601346FB7125E03B6852
:10365000B3F1FF3F21D0FEF7E3FE0246BB69D31A68
:103660003A689A4202D33B68002B16D1FB680022CD
:103670001A63FB68202283F83D20FB68002283F850
:103680003E20FB681B6C43F02002FB681A64FB6859
:10369000002283F83C20012323E0BB681B0CDBB233
:1036A000012B0DD1FB681B685B69DA43BB681340D3
:1036B0009BB2002B0CBF01230023DBB21A460CE0A7
:1036C000FB681B689B69DA43BB6813409BB2002B05
:1036D0000CBF01230023DBB21A46FB799A42B6D015
:1036E000002318461037BD4680BD80B584B000AFBA
:1036F000F860B9607A603B6051E0FB681B685B6909
:1037000003F48063B3F5806F23D1FB681B681A68EC
:10371000FB681B6842F400721A60FB681B686FF458
:1037200080625A61FB6800221A63FB68202283F8DA
:103730003D20FB68002283F83E20FB681B6C43F0B1
:103740000402FB681A64FB68002283F83C20012312
:1037500046E07B68B3F1FF3F21D0FEF761FE0246F1
:103760003B68D31A7A689A4202D37B68002B16D141
:10377000FB6800221A63FB68202283F83D20FB6867
:10378000002283F83E20FB681B6C43F02002FB689C
:103790001A64FB68002283F83C20012320E0BB6808
:1037A0001B0CDBB2012B0CD1FB681B685B69DA4395
:1037B000BB6813409BB2002B14BF01230023DBB274
:1037C0000BE0FB681B689B69DA43BB6813409BB244
:1037D000002B14BF01230023DBB2002B8DD100236B
:1037E00018461037BD4680BD80B584B000AFF86084
:1037F000B9607A602DE0F86800F078F80346002B95
:1038000001D001232DE0BB68B3F1FF3F21D0FEF7CB
:1038100007FE02467B68D31ABA689A4202D3BB6895
:10382000002B16D1FB6800221A63FB68202283F864
:103830003D20FB68002283F83E20FB681B6C43F0B0
:103840002002FB681A64FB68002283F83C200123F5
:1038500007E0FB681B685B6903F08003802BCAD11B
:10386000002318461037BD4680BD80B584B000AF38
:10387000F860B9607A602DE0F86800F037F8034628
:10388000002B01D001232DE0BB68B3F1FF3F21D015
:10389000FEF7C6FD02467B68D31ABA689A4202D385
:1038A000BB68002B16D1FB6800221A63FB6820223C
:1038B00083F83D20FB68002283F83E20FB681B6CE8
:1038C00043F02002FB681A64FB68002283F83C2066
:1038D000012307E0FB681B685B6903F00403042B0A
:1038E000CAD1002318461037BD4680BD80B483B0CE
:1038F00000AF78607B681B685B6903F48063B3F595
:10390000806F1BD17B681B686FF480625A617B6893
:1039100000221A637B68202283F83D207B68002206
:1039200083F83E207B681B6C43F004027B681A64BA
:103930007B68002283F83C20012300E00023184626
:103940000C37BD4680BC704780B483B000AF786050
:103950000B46FB70094B1B69084A23F004031361F3
:10396000FB78012B01D130BF02E040BF20BF20BF58
:1039700000BF0C37BD4680BC704700BF00ED00E0C3
:1039800080B586B000AF78607B68002B01D1012341
:1039900072E27B681B6803F00103002B00F0878054
:1039A000924B5B6803F00C03042B0CD08F4B5B68CD
:1039B00003F00C03082B12D18C4B5B6803F48033AB
:1039C000B3F5803F0BD1894B1B6803F40033002B08
:1039D0006CD07B685B68002B68D101234CE27B686C
:1039E0005B68B3F5803F06D1804B1B687F4A43F488
:1039F000803313602EE07B685B68002B0CD17B4B1F
:103A00001B687A4A23F480331360784B1B68774A2B
:103A100023F4802313601DE07B685B68B3F5A02F5F
:103A20000CD1724B1B68714A43F4802313606F4BB7
:103A30001B686E4A43F4803313600BE06B4B1B68CA
:103A40006A4A23F480331360684B1B68674A23F487
:103A5000802313607B685B68002B13D0FEF7E0FCCB
:103A6000386108E0FEF7DCFC02463B69D31A642BA0
:103A700001D9032300E25D4B1B6803F40033002BE4
:103A8000F0D014E0FEF7CCFC386108E0FEF7C8FC8B
:103A900002463B69D31A642B01D90323ECE1534B53
:103AA0001B6803F40033002BF0D100E000BF7B68FB
:103AB0001B6803F00203002B63D04C4B5B6803F0E0
:103AC0000C03002B0BD0494B5B6803F00C03082B55
:103AD0001CD1464B5B6803F48033002B16D1434B5B
:103AE0001B6803F00203002B05D07B681B69012BC8
:103AF00001D00123C0E13D4B1B6823F0F8027B6835
:103B00005B69DB00394913430B603AE07B681B6952
:103B1000002B20D0364B01221A60FEF781FC386161
:103B200008E0FEF77DFC02463B69D31A022B01D95F
:103B30000323A1E12D4B1B6803F00203002BF0D0FF
:103B40002A4B1B6823F0F8027B685B69DB0027497E
:103B500013430B6015E0264B00221A60FEF760FC51
:103B6000386108E0FEF75CFC02463B69D31A022B81
:103B700001D9032380E11D4B1B6803F00203002BD6
:103B8000F0D17B681B6803F00803002B3AD07B68F8
:103B90009B69002B19D0174B01221A60FEF740FCDD
:103BA000386108E0FEF73CFC02463B69D31A022B61
:103BB00001D9032360E10D4B5B6A03F00203002B84
:103BC000F0D0012000F0D8FA1CE00A4B00221A6065
:103BD000FEF726FC38610FE0FEF722FC02463B6947
:103BE000D31A022B08D9032346E100BF001002407C
:103BF0000000424280044242924B5B6A03F002039F
:103C0000002BE9D17B681B6803F00403002B00F054
:103C1000A6800023FB758B4BDB6903F08053002BE0
:103C20000DD1884BDB69874A43F08053D361854BC4
:103C3000DB6903F08053BB60BB680123FB75824BDB
:103C40001B6803F48073002B18D17F4B1B687E4ADE
:103C500043F480731360FEF7E3FB386108E0FEF77E
:103C6000DFFB02463B69D31A642B01D9032303E12E
:103C7000754B1B6803F48073002BF0D07B68DB6806
:103C8000012B06D16F4B1B6A6E4A43F0010313628E
:103C90002DE07B68DB68002B0CD16A4B1B6A694AFC
:103CA00023F001031362674B1B6A664A23F0040387
:103CB00013621CE07B68DB68052B0CD1614B1B6A2F
:103CC000604A43F0040313625E4B1B6A5D4A43F093
:103CD000010313620BE05B4B1B6A5A4A23F001039A
:103CE0001362584B1B6A574A23F0040313627B6824
:103CF000DB68002B15D0FEF793FB38610AE0FEF776
:103D00008FFB02463B69D31A41F28832934201D9B4
:103D10000323B1E04B4B1B6A03F00203002BEED0F0
:103D200014E0FEF77DFB38610AE0FEF779FB0246FE
:103D30003B69D31A41F28832934201D903239BE0B5
:103D4000404B1B6A03F00203002BEED1FB7D012BDD
:103D500005D13C4BDB693B4A23F08053D3617B6840
:103D6000DB69002B00F08780364B5B6803F00C03A7
:103D7000082B61D07B68DB69022B46D1334B0022D4
:103D80001A60FEF74DFB386108E0FEF749FB02467A
:103D90003B69D31A022B01D903236DE0294B1B6821
:103DA00003F00073002BF0D17B681B6AB3F5803FF2
:103DB00008D1244B5B6823F400327B689B6821495F
:103DC00013434B601F4B5B6823F474127B68196AC2
:103DD0007B685B6A0B431B4913434B601B4B0122FF
:103DE0001A60FEF71DFB386108E0FEF719FB02467A
:103DF0003B69D31A022B01D903233DE0114B1B6809
:103E000003F00073002BF0D035E0104B00221A6055
:103E1000FEF706FB386108E0FEF702FB02463B694D
:103E2000D31A022B01D9032326E0064B1B6803F0AB
:103E30000073002BF0D11EE07B68DB69012B07D1FA
:103E4000012319E00010024000700040600042426F
:103E50000B4B5B68FB60FB6803F480327B681B6A7A
:103E60009A4206D1FB6803F470127B685B6A9A423F
:103E700001D0012300E0002318461837BD4680BD5D
:103E80000010024080B584B000AF786039607B6874
:103E9000002B01D10123D0E06A4B1B6803F007031C
:103EA0003A689A4210D9674B1B6823F007026549AC
:103EB0003B6813430B60634B1B6803F007033A68CE
:103EC0009A4201D00123B8E07B681B6803F002032B
:103ED000002B20D07B681B6803F00403002B05D067
:103EE000594B5B68584A43F4E06353607B681B6836
:103EF00003F00803002B05D0534B5B68524A43F490
:103F000060535360504B5B6823F0F0027B689B6802
:103F10004D4913434B607B681B6803F00103002B82
:103F200040D07B685B68012B07D1474B1B6803F4CB
:103F30000033002B15D101237FE07B685B68022BE7
:103F400007D1414B1B6803F00073002B09D10123FB
:103F500073E03D4B1B6803F00203002B01D10123EA
:103F60006BE0394B5B6823F003027B685B68364982
:103F700013434B60FEF754FAF8600AE0FEF750FA7C
:103F80000246FB68D31A41F28832934201D90323D7
:103F900053E02D4B5B6803F00C027B685B689B0071
:103FA0009A42EBD1274B1B6803F007033A689A4209
:103FB00010D2244B1B6823F0070222493B681343AD
:103FC0000B60204B1B6803F007033A689A4201D04C
:103FD000012332E07B681B6803F00403002B08D048
:103FE000194B5B6823F4E0627B68DB681649134376
:103FF0004B607B681B6803F00803002B09D0124B51
:104000005B6823F460527B681B69DB000E49134335
:104010004B6000F021F802460B4B5B681B0903F074
:104020000F030A49CB5C22FA03F3094A1360094BD8
:104030001B681846FEF7B2F9002318461037BD4634
:1040400080BD00BF0020024000100240C47D000877
:10405000100000201800002090B48AB000AF294B57
:104060003C1D0FCB84E80F0040F201233B8000236E
:10407000FB610023BB6100237B6200237B61002383
:104080003B62214B5B68FB61FB6903F00C03042B73
:1040900002D0082B03D02BE01C4B3B622BE0FB69CA
:1040A0009B0C03F00F0328333B4413F8243C7B6143
:1040B000FB6903F48033002B12D0134B5B685B0C5D
:1040C00003F0010328333B4413F8283CBB617B69B0
:1040D0000E4A03FB02F2BB69B2FBF3F37B6204E01E
:1040E0007B690B4A02FB03F37B627B6A3B6202E063
:1040F000064B3B6200BF3B6A18462837BD4690BC62
:10410000704700BFB47D00080010024000127A0022
:1041100000093D0080B400AF024B1B681846BD4645
:1041200080BC70471000002080B500AFFFF7F2FFA1
:104130000246054B5B681B0A03F007030349CB5C8F
:1041400022FA03F3184680BD00100240D47D000817
:1041500080B500AFFFF7DEFF0246054B5B68DB0A68
:1041600003F007030349CB5C22FA03F3184680BD32
:1041700000100240D47D000880B485B000AF7860A4
:104180000A4B1B680A4AA2FB03235B0A7A6802FBFC
:1041900003F3FB6000BFFB685A1EFA60002BF9D1E5
:1041A00000BF00BF1437BD4680BC70471000002020
:1041B000D34D621080B586B000AF786000233B61BC
:1041C0000023FB607B681B6803F00103002B7DD09C
:1041D0000023FB754F4BDB6903F08053002B0DD19F
:1041E0004C4BDB694B4A43F08053D361494BDB694D
:1041F00003F08053BB60BB680123FB75464B1B6813
:1042000003F48073002B18D1434B1B68424A43F4DC
:1042100080731360FEF704F9386108E0FEF700F9D7
:1042200002463B69D31A642B01D903236DE03A4B54
:104230001B6803F48073002BF0D0364B1B6A03F429
:104240004073FB60FB68002B2ED07B685B6803F437
:104250004073FA689A4227D02E4B1B6A23F44073AE
:10426000FB602E4B01221A602C4B00221A60294A57
:10427000FB681362FB6803F00103002B14D0FEF708
:10428000CFF838610AE0FEF7CBF802463B69D31A53
:1042900041F28832934201D9032336E01D4B1B6A59
:1042A00003F00203002BEED01A4B1B6A23F440727A
:1042B0007B685B68174913430B62FB7D012B05D1BB
:1042C000144BDB69134A23F08053D3617B681B686E
:1042D00003F00203002B08D00E4B5B6823F440422E
:1042E0007B689B680B4913434B607B681B6803F03A
:1042F0001003002B08D0074B5B6823F480027B6817
:10430000DB68044913434B60002318461837BD4649
:1043100080BD00BF001002400070004040044242D7
:1043200080B582B000AF78607B68002B01D101239B
:1043300041E07B6893F83D30DBB2002B06D17B680F
:10434000002283F83C207868FDF7AEFD7B680222EE
:1043500083F83D207B681A687B6804331946104651
:1043600000F0BAFA7B68012283F846207B680122BC
:1043700083F83E207B68012283F83F207B6801227E
:1043800083F840207B68012283F841207B6801226A
:1043900083F842207B68012283F843207B68012256
:1043A00083F844207B68012283F845207B68012242
:1043B00083F83D20002318460837BD4680BD000025
:1043C00080B485B000AF78607B6893F83D30DBB295
:1043D000012B01D0012332E07B68022283F83D20CB
:1043E0007B681B68184A93420ED07B681B68B3F148
:1043F000804F09D07B681B68144A934204D07B68C5
:104400001B68134A934211D17B681B689B6803F0B9
:104410000703FB60FB68062B10D07B681B681A68DB
:104420007B681B6842F001021A6007E07B681B682A
:104430001A687B681B6842F001021A600023184664
:104440001437BD4680BC7047002C0140000400407A
:104450000008004080B485B000AF78607B6893F8B6
:104460003D30DBB2012B01D001233AE07B68022210
:1044700083F83D207B681B68DA687B681B6842F024
:104480000102DA607B681B68184A93420ED07B6891
:104490001B68B3F1804F09D07B681B68144A9342B4
:1044A00004D07B681B68134A934211D17B681B6858
:1044B0009B6803F00703FB60FB68062B10D07B684A
:1044C0001B681A687B681B6842F001021A6007E0EB
:1044D0007B681B681A687B681B6842F001021A60DF
:1044E000002318461437BD4680BC7047002C01409D
:1044F000000400400008004080B582B000AF786042
:104500007B681B681B6903F00203022B22D17B68C6
:104510001B68DB6803F00203022B1BD17B681B685E
:104520006FF002021A617B6801221A777B681B68B0
:104530009B6903F00303002B03D0786800F0B1F906
:1045400005E0786800F0A4F9786800F0B3F97B68BA
:1045500000221A777B681B681B6903F00403042B95
:1045600022D17B681B68DB6803F00403042B1BD19A
:104570007B681B686FF004021A617B6802221A775D
:104580007B681B689B6903F44073002B03D0786839
:1045900000F087F905E0786800F07AF9786800F0B3
:1045A00089F97B6800221A777B681B681B6903F016
:1045B0000803082B22D17B681B68DB6803F0080323
:1045C000082B1BD17B681B686FF008021A617B689F
:1045D00004221A777B681B68DB6903F00303002B56
:1045E00003D0786800F05DF905E0786800F050F9D4
:1045F000786800F05FF97B6800221A777B681B6897
:104600001B6903F01003102B22D17B681B68DB6849
:1046100003F01003102B1BD17B681B686FF0100296
:104620001A617B6808221A777B681B68DB6903F4D0
:104630004073002B03D0786800F033F905E0786808
:1046400000F026F9786800F035F97B6800221A77C7
:104650007B681B681B6903F00103012B0ED17B688B
:104660001B68DB6803F00103012B07D17B681B6823
:104670006FF001021A617868FDF7B4FD7B681B6872
:104680001B6903F08003802B0ED17B681B68DB68FD
:1046900003F08003802B07D17B681B686FF08002DA
:1046A0001A61786800F077FA7B681B681B6903F071
:1046B0004003402B0ED17B681B68DB6803F040038E
:1046C000402B07D17B681B686FF040021A61786845
:1046D00000F0F9F87B681B681B6903F02003202BAE
:1046E0000ED17B681B68DB6803F02003202B07D109
:1046F0007B681B686FF020021A61786800F042FA4C
:1047000000BF0837BD4680BD80B584B000AF78607B
:1047100039607B6893F83C30012B01D10223B3E070
:104720007B68012283F83C207B68022283F83D20CD
:104730007B681B689B68FB60FB6823F07703FB606A
:10474000FB6823F47F43FB607B681B68FA689A6010
:104750003B681B68B3F5005F3ED0B3F5005F00F225
:104760008780B3F5805F00F08580B3F5805F7FD8E8
:10477000702B1AD0702B7BD8602B50D0602B77D841
:10478000502B3CD0502B73D8402B58D0402B6FD897
:10479000302B64D0302B6BD8202B60D0202B67D8E7
:1047A000002B5CD0102B5AD062E07B6818683B6805
:1047B00099683B685A683B68DB6800F066F97B687B
:1047C0001B689B68FB60FB6843F07703FB607B68BA
:1047D0001B68FA689A604EE07B6818683B689968C5
:1047E0003B685A683B68DB6800F04FF97B681B68E0
:1047F0009A687B681B6842F480429A603BE07B6861
:1048000018683B6859683B68DB681A4600F0C6F8D0
:104810007B681B685021184600F01DF92BE07B686F
:1048200018683B6859683B68DB681A4600F0E4F892
:104830007B681B686021184600F00DF91BE07B685F
:1048400018683B6859683B68DB681A4600F0A6F8B0
:104850007B681B684021184600F0FDF80BE07B6880
:104860001A683B681B681946104600F0F4F802E02D
:1048700000BF00E000BF7B68012283F83D207B6819
:10488000002283F83C20002318461037BD4680BD27
:1048900080B483B000AF786000BF0C37BD4680BCE9
:1048A000704780B483B000AF786000BF0C37BD465E
:1048B00080BC704780B483B000AF786000BF0C3715
:1048C000BD4680BC704780B483B000AF786000BF45
:1048D0000C37BD4680BC704780B485B000AF7860AF
:1048E00039607B681B68FB607B68294A93420BD068
:1048F0007B68B3F1804F07D07B68264A934203D090
:104900007B68254A934208D1FB6823F07003FB6063
:104910003B685B68FA681343FB607B681C4A934200
:104920000BD07B68B3F1804F07D07B68194A934264
:1049300003D07B68184A934208D1FB6823F4407384
:10494000FB603B68DB68FA681343FB60FB6823F09D
:1049500080023B685B691343FB607B68FA681A60FE
:104960003B689A687B68DA623B681A687B689A627F
:104970007B68074A934203D13B681A697B681A63D4
:104980007B6801225A6100BF1437BD4680BC704766
:10499000002C0140000400400008004080B487B0B3
:1049A00000AFF860B9607A60FB681B6A7B61FB68E6
:1049B0001B6A23F00102FB681A62FB689B693B617A
:1049C0003B6923F0F0033B617B681B013A691343A9
:1049D0003B617B6923F00A037B617A69BB681343FF
:1049E0007B61FB683A699A61FB687A691A6200BF69
:1049F0001C37BD4680BC704780B487B000AFF860FC
:104A0000B9607A60FB681B6A23F01002FB681A62C7
:104A1000FB689B697B61FB681B6A3B617B6923F4D4
:104A200070437B617B681B037A6913437B613B693D
:104A300023F0A0033B61BB681B013A6913433B6150
:104A4000FB687A699A61FB683A691A6200BF1C3791
:104A5000BD4680BC704780B485B000AF78603960D7
:104A60007B689B68FB60FB6823F07003FB603A681F
:104A7000FB68134343F00703FB607B68FA689A60A6
:104A800000BF1437BD4680BC704780B487B000AF0C
:104A9000F860B9607A603B60FB689B687B617B690A
:104AA00023F47F437B613B681A027B681A43BB682F
:104AB00013437A6913437B61FB687A699A6000BF8C
:104AC0001C37BD4680BC704780B485B000AF7860AD
:104AD00039607B6893F83C30012B01D1022346E01A
:104AE0007B68012283F83C207B68022283F83D200A
:104AF0007B681B685B68FB607B681B689B68BB60AE
:104B0000FB6823F07003FB603B681B68FA68134383
:104B1000FB607B681B68FA685A607B681B68164AF2
:104B200093420ED07B681B68B3F1804F09D07B683D
:104B30001B68124A934204D07B681B68104A934258
:104B40000CD1BB6823F08003BB603B685B68BA682C
:104B50001343BB607B681B68BA689A607B6801225C
:104B600083F83D207B68002283F83C200023184610
:104B70001437BD4680BC7047002C01400004004043
:104B80000008004080B483B000AF786000BF0C37ED
:104B9000BD4680BC704780B483B000AF786000BF72
:104BA0000C37BD4680BC704780B582B000AF7860DE
:104BB0007B68002B01D101233FE07B6893F83D30F7
:104BC000DBB2002B06D17B68002283F83C2078689A
:104BD000FDF7A2F97B68242283F83D207B681B68DF
:104BE000DA687B681B6822F40052DA60786800F0AB
:104BF00005F97B681B681A697B681B6822F4904280
:104C00001A617B681B685A697B681B6822F02A025C
:104C10005A617B681B68DA687B681B6842F4005243
:104C2000DA607B6800221A647B68202283F83D20CA
:104C30007B68202283F83E20002318460837BD46B3
:104C400080BD80B58AB002AFF860B9603B601346A2
:104C5000FB8000237B61FB6893F83D30DBB2202BA7
:104C60007CD1BB68002B02D0FB88002B01D1012333
:104C700075E0FB6893F83C30012B01D102236EE014
:104C8000FB68012283F83C20FB6800221A64FB6861
:104C9000212283F83D20FDF7C3FB7861FB68FA8889
:104CA0009A84FB68FA88DA84FB689B68B3F5805FB6
:104CB00008D1FB681B69002B04D10023FB61BB6892
:104CC000BB6103E0BB68FB610023BB61FB680022A2
:104CD00083F83C202AE03B6800937B690022802116
:104CE000F86800F040F80346002B01D0032336E0BB
:104CF000FB69002B0BD1BB691B881A46FB681B683C
:104D0000C2F308025A60BB690233BB6107E0FB696A
:104D10001A78FB681B685A60FB690133FB61FB680A
:104D2000DB8C9BB2013B9AB2FB68DA84FB68DB8CBC
:104D30009BB2002BCFD13B6800937B6900224021BE
:104D4000F86800F010F80346002B01D0032306E0BA
:104D5000FB68202283F83D20002300E00223184650
:104D60002037BD4680BD80B584B000AFF860B96023
:104D70003B601346FB712CE0BB69B3F1FF3F28D0C9
:104D8000BB69002B07D0FDF74BFB02463B68D31AEB
:104D9000BA699A421DD2FB681B68DA68FB681B6817
:104DA00022F4D072DA60FB681B685A69FB681B68E2
:104DB00022F001025A61FB68202283F83D20FB6843
:104DC000202283F83E20FB68002283F83C20032346
:104DD0000FE0FB681B681A68BB681340BA689A4208
:104DE0000CBF01230023DBB21A46FB799A42C3D0E1
:104DF000002318461037BD4680BD000080B584B042
:104E000000AF78607B681B681B6923F440517B68A6
:104E1000DA687B681B680A431A617B689A687B685A
:104E20001B691A437B685B691343BB607B681B6823
:104E3000DB6823F4B05323F00C037A681268B96876
:104E40000B43D3607B681B685B6923F440717B680C
:104E50009A697B681B680A435A617B681B682C4A05
:104E6000934203D1FFF774F9F86002E0FFF75CF9B1
:104E7000F860FA6813469B0013449A001A447B6852
:104E80005B689B00B2FBF3F3224AA2FB03235B099E
:104E90001901FA6813469B0013449A001A447B6870
:104EA0005B689B00B2FBF3F21A4BA3FB02035B09A6
:104EB000642000FB03F3D31A1B013233154AA2FB13
:104EC00003235B0903F0F0031944FA6813469B00BF
:104ED00013449A001A447B685B689B00B2FBF3F2B0
:104EE0000C4BA3FB02035B09642000FB03F3D31A02
:104EF0001B013233074AA2FB03235B0903F00F02B5
:104F00007B681B680A449A6000BF1037BD4680BDAD
:104F1000003801401F85EB51014B1868704700BFF6
:104F20002000002070B500260C4D0D4C641BA41011
:104F3000A64209D102F004FF00260A4D0A4C641B68
:104F4000A410A64205D170BD55F8043B9847013620
:104F5000EEE755F8043B98470136F2E7B4810008C4
:104F6000B4810008B4810008B8810008024B0146F2
:104F7000186800F07BB800BF20000020024B0146FB
:104F8000186800F00BB800BF200000200346024460
:104F9000934200D1704703F8011BF9E738B5054685
:104FA000002940D051F8043C0C1F002BB8BFE41876
:104FB00001F0FCFB1C4A136833B963601460284697
:104FC000BDE8384001F0F8BBA34208D92068211899
:104FD0008B4201BF19685B6809182160EDE71A462A
:104FE0005B680BB1A342FAD911685018A0420BD1EB
:104FF00020680144501883421160E0D118685B6852
:10500000014411605360DAE702D90C232B60D6E724
:10501000206821188B4201BF19685B68091821605C
:1050200063605460CBE738BDA804002070B50E4E15
:105030000C463168054611B900F0ECFC30602146A1
:10504000284600F0E7FC431C0AD0C41C24F00304EB
:10505000A04207D0211A284600F0DCFC013001D123
:105060004FF0FF34204670BDAC0400202DE9F04124
:10507000CD1C25F0030508350C2D38BF0C25002D5F
:10508000074601DBA94205D90C2300263B603046C8
:10509000BDE8F0812E4E01F089FB33681C4634BB1D
:1050A00029463846FFF7C2FF431C04464DD13468F9
:1050B0002646002E40D123683146384604EB0308CB
:1050C00000F0A8FC80453AD1216803356D1A25F01F
:1050D000030508350C2D38BF0C2538462946FFF747
:1050E000A5FF01302BD023682B4423600EE02268FB
:1050F000521B1ED40B2A16D96119A342256018BF72
:105100005960636808BF316062514B60384604F1F2
:105110000B0601F051FB26F00706231DF21AB6D04C
:105120009B1BA350B3E76268A3420CBF32605A6076
:10513000ECE723466468B2E734467668B9E70C23A7
:1051400038463B6001F038FBA1E72560DEE700BF91
:10515000A8040020002B2DE9F0471F46BBBF03F138
:1051600000431F4600232D2388B01446129A109D39
:105170001370149BDDF84CA023F02008B8F1460F03
:1051800005D0B8F1450F00D10135022300E003231B
:1051900007AA049206AACDE902A2CDE9003522466B
:1051A0003B4600F0F5FCB8F1470F064602D1119BD3
:1051B000DB0722D5B8F1460F06EB050910D133788D
:1051C000302B0AD10022002320463946FBF7ECFBA6
:1051D00018B9C5F10105CAF80050DAF80030994451
:1051E0000022002320463946FBF7DEFB08B1CDF84C
:1051F0001C903022079B4B4507D33046079B159ADE
:105200009B1B136008B0BDE8F087591C07911A700A
:10521000F0E70346F7B5002903F8022BB6BF2D22AD
:105220002B224942092942702BDD0DF10704A446C7
:105230000A2791FBF7F60A46A64607FB1615632ACE
:1052400005F13005314604F1FF340EF8015CF0DC65
:105250003031AEF1020504F8011C2946441C6145B9
:105260000AD30DF10902A2EB0E02654588BF0022A8
:105270001344181A03B0F0BD11F8012B04F8012FE4
:10528000EDE7302330318370C170031DF1E700007A
:105290002DE9F04F91B00C46DDF8688016461F46A8
:1052A000054601F063FA036818460993FAF750FFC0
:1052B00000230E93D8F800300A90073323F0070339
:1052C00003F1080294F81890D4F800B0C8F8002050
:1052D000D3E90023C4E91223D4E9128A2AF0004357
:1052E0000B934FF0FF3240469C4B0B99FBF78EFB24
:1052F00070BB4FF0FF324046984B0B99FBF768FBB1
:1053000030BB0022002340465146FBF757FB10B14B
:105310002D2384F84330924B9248B9F1470F94BF44
:105320009846804603234FF0000A23612BF00403C4
:10533000236033462146284600970FAA00F0D4F98F
:10534000013040F090804FF0FF3011B0BDE8F08F99
:105350004246534640465146FBF758FB48B1BAF126
:10536000000FB8BF2D238048B8BF84F843307F4B6F
:10537000D3E7636809F0DF015A1C42D1062363605A
:10538000002206920EAACDE904920DAA4BF4806386
:1053900003920DF13302CDE9013223606368424686
:1053A0000093284653460B91FFF7D4FE0B99804695
:1053B00047290D9908D1C81C02DB6368994240DD7A
:1053C000A9F102095FFA89F9B9F1650F1FD84A46B8
:1053D000013904F150000D91FFF71BFF0E9A824630
:1053E0001318012A236102DC2268D20701D5013398
:1053F00023619DF83330002B9BD02D2384F843305C
:1054000097E74729BCD1002BBAD10123B7E7B9F1FF
:10541000660F18D1002963680BDD216113B922687A
:10542000D00702D501330B4423614FF0000AA16578
:10543000DFE713B92268D20701D50233F4E701236D
:10544000F2E74FF067090E9B994205DB2368216163
:10545000D807EAD54B1CE7E70029CCBF0122C1F1F0
:1054600002021344E0E723685A0507D42369424641
:1054700031462846B84701302BD164E7B9F1650FB2
:1054800040F2DD80D4E9120100220023FBF78CFA00
:10549000002833D0012331462846354AB847013029
:1054A0003FF451AFDDE90D239A4202DB2368D807B0
:1054B0000FD5DDE9092331462846B84701303FF4CE
:1054C00042AF4FF0000804F11A090E9B013B43451F
:1054D00009DC23689B0700F10281E0680F9B98427A
:1054E000B8BF184631E701234A4631462846B84737
:1054F00001303FF428AF08F10108E6E70D9B002BCF
:1055000038DC012331462846194AB84701303FF4B8
:105510001AAFDDE90D23134302D12368D907D8D58B
:10552000DDE9092331462846B84701303FF40BAF87
:105530004FF0000904F11A0A0D9B5B424B4501DC58
:105540000E9B94E70123524631462846B847013066
:105550003FF4F9AE09F10109EEE700BFFFFFEF7F6D
:10556000E07D0008E47D0008EC7D0008E87D00088F
:10557000F07D00080E9AA36D9A42A8BF1A46002A31
:10558000914637DC4FF0000B29EAE97904F11A0261
:10559000D4F858A0AAEB09035B4533DCDDE90D2301
:1055A0009A423BDB2368DA0738D40E9B0D99A3EBB4
:1055B0000A02A3EB01099145A8BF9146B9F1000F7A
:1055C00034DC4FF0000829EAE97904F11A0ADDE930
:1055D0000D239B1AA3EB090343457FF77AAF012301
:1055E000524631462846B84701303FF4ACAE08F188
:1055F0000108ECE71346314642462846B8470130D9
:10560000C0D1A0E60123314628460B92B8470130AD
:105610003FF499AE0B9A0BF1010BB9E73146DDE986
:1056200009232846B8470130BFD18CE64B463146A6
:10563000284608EB0A02B8470130C2D183E60E9A29
:10564000012A01DCDB0737D50123424631462846D3
:10565000B84701303FF477AEDDE9092331462846EB
:10566000B84701303FF46FAED4E9120100220023A5
:10567000FBF79AF9D8B90E9B08F10102013B3146BC
:105680002846B84701300ED15DE601234A4631462F
:105690002846B84701303FF456AE08F101080E9B8A
:1056A000013B4345F1DC534604F15002E0E64FF084
:1056B000000804F11A09F2E701234246DFE701235B
:1056C0004A4631462846B84701303FF43CAE08F11F
:1056D0000108E3680F995B1A4345F0DCFDE64FF0E3
:1056E000000804F11909F4E72DE9F0471646994638
:1056F0008A680B6907469342B8BF1346336091F836
:1057000043200C46DDF820800AB101333360236862
:10571000990642BF336802333360256815F00605E9
:1057200006D104F1190AE36832689B1AAB4228DCFF
:1057300094F84320131E226818BF012392062DD42B
:105740004946384604F14302C047013020D023685F
:10575000E56803F00603042B18BF002532684FF0FC
:105760000006A36808BFAD1A226908BF25EAE575DF
:105770009342C4BF9B1AED181A34B5421AD10020C7
:1057800008E00123524649463846C047013003D15C
:105790004FF0FF30BDE8F0870135C4E73020E11855
:1057A00081F843005A1C94F845102244023382F8D1
:1057B0004310C5E70123224649463846C047013019
:1057C000E6D00136D9E700002DE9FF470F7E91466C
:1057D000782F80460C469A460C9D01F1430207D86B
:1057E000622F0AD8002F00F0D980582F00F0A48033
:1057F00004F1420584F842703AE0A7F16303152BE7
:10580000F6D801A151F823F0615800087558000836
:10581000F1570008F1570008F1570008F157000848
:1058200075580008F1570008F1570008F1570008B3
:10583000F157000883590008A55800086559000869
:10584000F1570008F1570008A5590008F157000862
:10585000A5580008F1570008F15700086D590008D5
:105860002B681A1D1B682A6004F1420584F8423037
:105870000123A4E020682968060601F104030AD583
:105880000E682B60002E03DA2D23764284F8433015
:105890000A235E4819E00E6810F0400F2B6018BF15
:1058A00036B2EFE72B682068191D2960010601D583
:1058B0001E6802E04606FBD51E886F2F0CBF08232A
:1058C0000A235248002184F843106568002DA8BFC0
:1058D0002168A560A4BF21F0040121600EB9002D4C
:1058E0004DD01546B6FBF3F103FB1167C75D05F814
:1058F000017D3746BB420E46F4D9082B0BD12368F5
:10590000DE0708D5236961689942DEBF302305F8B8
:10591000013C05F1FF35521B22614B4621464046B2
:10592000CDF800A003AAFFF7DFFE01304CD14FF005
:10593000FF3004B0BDE8F087344881F8457029682D
:10594000236851F8046B29601D0614D5DF0744BF96
:1059500043F0200323601EB9236823F02003236053
:105960001023AFE7236843F02003236078232848FF
:1059700084F84530E3E7590648BFB6B2E6E7154676
:10598000BBE72B682668181D6169286035061B680F
:1059900001D5196002E07006FBD519800023154679
:1059A0002361BAE72B6800211A1D2A601D6862680E
:1059B000284600F0DFFE08B1401B60606368236189
:1059C000002384F84330A8E72A4649464046236925
:1059D000D0470130ABD023689B0713D4E068039B0A
:1059E0009842B8BF1846A4E70123324649464046CC
:1059F000D04701309BD00135E36803995B1AAB4275
:105A0000F2DCEBE7002504F11906F5E7F27D00086A
:105A1000037E000838B50023054D044608462B6078
:105A2000FCF782FB431C02D12B6803B1236038BD15
:105A3000B00400200EB46FF0004100B59CB01DAB67
:105A400002900690079104910848094953F8042BE5
:105A50000591006802A9019301F0A6FA0022029BB9
:105A60001A701CB05DF804EB03B0704720000020F2
:105A70000802FFFF2DE9F74F03690C690746A342AF
:105A8000C0F28280013C00F1140501F1140805EB1D
:105A90008403019358F8243055F8242001339A42A6
:105AA000B2FBF3F64FEA840B08EB840931D34FF0D5
:105AB000000E4046AC46F24650F8042B93B206FB6B
:105AC00003E3120C4FEA134E9BB206FB02E2AAEB71
:105AD0000303DCF800A04FEA124E1FFA8AFA53447F
