:020000040800F2
:100000000050002065200008151D00081B1D000879
:10001000211D0008271D00082D1D000800000000FC
:10002000000000000000000000000000331D000878
:100030003F1D0008000000004B1D0008571D000870
:10004000AD200008AD200008AD200008AD2000085C
:10005000AD200008AD200008AD200008AD2000084C
:10006000AD200008AD200008AD200008AD2000083C
:10007000AD200008AD200008AD200008AD2000082C
:10008000AD200008AD200008AD200008AD2000081C
:10009000AD200008AD200008AD200008AD2000080C
:1000A000AD200008AD200008AD200008AD200008FC
:1000B000651D0008AD200008AD200008AD20000837
:1000C000AD200008AD200008AD200008AD200008DC
:1000D000AD200008AD200008AD200008AD200008CC
:1000E000AD200008AD200008AD2000080000000091
:1000F0000000000000000000000000000000000000
:0C01000000000000000000005FF808F1A3
:1001100010B5054C237833B9044B13B10448AFF341
:1001200000800123237010BDE001002000000000CA
:10013000C872000808B5034B1BB103490348AFF36D
:10014000008008BD00000000E4010020C872000823
:10015000034613F8012B002AFBD1181A0138704707
:1001600081F0004102E000BF83F0004330B54FEA68
:1001700041044FEA430594EA050F08BF90EA020FD5
:100180001FBF54EA000C55EA020C7FEA645C7FEA68
:10019000655C00F0E2804FEA5454D4EB5555B8BF8B
:1001A0006D420CDD2C4480EA020281EA030382EAFC
:1001B000000083EA010180EA020281EA0303362D8E
:1001C00088BF30BD11F0004F4FEA01314FF4801C61
:1001D0004CEA113102D0404261EB410113F0004F73
:1001E0004FEA03334CEA133302D0524263EB43032A
:1001F00094EA050F00F0A780A4F10104D5F1200EC8
:100200000DDB02FA0EFC22FA05F2801841F1000122
:1002100003FA0EF2801843FA05F359410EE0A5F1F6
:1002200020050EF1200E012A03FA0EFC28BF4CF027
:10023000020C43FA05F3C01851EBE37101F00045DD
:1002400007D54FF0000EDCF1000C7EEB00006EEBEA
:100250000101B1F5801F1BD3B1F5001F0CD3490874
:100260005FEA30004FEA3C0C04F101044FEA4452CB
:1002700012F5800F80F09A80BCF1004F08BF5FEA52
:10028000500C50F1000041EB045141EA050130BD32
:100290005FEA4C0C404141EB0101013C28BFB1F544
:1002A000801FE9D291F0000F04BF01460020B1FA8F
:1002B00081F308BF2033A3F10B03B3F120020CDA62
:1002C0000C3208DD02F1140CC2F10C0201FA0CF040
:1002D00021FA02F10CE002F11402D8BFC2F1200CA5
:1002E00001FA02F120FA0CFCDCBF41EA0C0190405B
:1002F000E41AA2BF01EB0451294330BD6FEA0404A4
:100300001F3C1CDA0C340EDC04F11404C4F120028E
:1003100020FA04F001FA02F340EA030021FA04F3A0
:1003200045EA030130BDC4F10C04C4F1200220FAF7
:1003300002F001FA04F340EA0300294630BD21FA35
:1003400004F0294630BD94F0000F83F4801306BFFB
:1003500081F480110134013D4EE77FEA645C18BFEF
:100360007FEA655C29D094EA050F08BF90EA020F86
:1003700005D054EA000C04BF1946104630BD91EA7E
:10038000030F1EBF0021002030BD5FEA545C05D181
:100390004000494128BF41F0004130BD14F58004C0
:1003A0003CBF01F5801130BD01F0004545F0FE4134
:1003B00041F470014FF0000030BD7FEA645C1ABF69
:1003C000194610467FEA655C1CBF0B46024650EAA0
:1003D000013406BF52EA033591EA030F41F40021CC
:1003E00030BD00BF90F0000F04BF0021704730B552
:1003F0004FF4806404F132044FF000054FF0000127
:1004000050E700BF90F0000F04BF0021704730B5E7
:100410004FF4806404F1320410F0004548BF4042BC
:100420004FF000013EE700BF42004FEAE2014FEA11
:1004300031014FEA02701FBF12F07F4393F07F4FEC
:1004400081F06051704732F07F4208BF704793F0EF
:100450007F4F04BF41F40021704730B54FF4607402
:1004600001F0004521F000411CE700BF50EA010205
:1004700008BF704730B54FF000050AE050EA0102AE
:1004800008BF704730B511F0004502D5404261EB1E
:1004900041014FF4806404F132045FEA915C3FF45F
:1004A000D8AE4FF003025FEADC0C18BF03325FEAFC
:1004B000DC0C18BF033202EBDC02C2F1200300FAAD
:1004C00003FC20FA02F001FA03FE40EA0E0021FAD2
:1004D00002F11444BDE600BF70B54FF0FF0C4CF4C0
:1004E000E06C1CEA11541DBF1CEA135594EA0C0F72
:1004F00095EA0C0F00F0DEF82C4481EA030621EAAD
:100500004C5123EA4C5350EA013518BF52EA0335E7
:1005100041F4801143F4801338D0A0FB02CE4FF099
:100520000005E1FB02E506F00042E0FB03E54FF0C9
:100530000006E1FB03569CF0000F18BF4EF0010EC1
:10054000A4F1FF04B6F5007F64F5407404D25FEABD
:100550004E0E6D4146EB060642EAC62141EA555170
:100560004FEAC52040EA5E504FEACE2EB4F1FD0CB2
:1005700088BFBCF5E06F1ED8BEF1004F08BF5FEA30
:10058000500E50F1000041EB045170BD06F00046E2
:1005900046EA010140EA020081EA0301B4EB5C048F
:1005A000C2BFD4EB0C0541EA045170BD41F4801187
:1005B0004FF0000E013C00F3AB8014F1360FDEBFAC
:1005C000002001F0004170BDC4F10004203C35DA88
:1005D0000C341BDC04F11404C4F1200500FA05F30B
:1005E00020FA04F001FA05F240EA020001F00042AC
:1005F00021F0004110EBD37021FA04F642EB060122
:100600005EEA430E08BF20EAD37070BDC4F10C044B
:10061000C4F1200500FA04F320FA05F001FA04F20F
:1006200040EA020001F0004110EBD37041F10001FB
:100630005EEA430E08BF20EAD37070BDC4F1200506
:1006400000FA05F24EEA020E20FA04F301FA05F26E
:1006500043EA020321FA04F001F0004121FA04F216
:1006600020EA020000EBD3705EEA430E08BF20EAE6
:10067000D37070BD94F0000F0FD101F00046400020
:1006800041EB010111F4801F08BF013CF7D041EAA2
:10069000060195F0000F18BF704703F000465200A6
:1006A00043EB030313F4801F08BF013DF7D043EA77
:1006B0000603704794EA0C0F0CEA135518BF95EA2D
:1006C0000C0F0CD050EA410618BF52EA4306D1D1B4
:1006D00081EA030101F000414FF0000070BD50EAD3
:1006E000410606BF1046194652EA430619D094EA5D
:1006F0000C0F02D150EA013613D195EA0C0F05D147
:1007000052EA03361CBF104619460AD181EA03019A
:1007100001F0004141F0FE4141F470014FF0000052
:1007200070BD41F0FE4141F4780170BD70B54FF0ED
:10073000FF0C4CF4E06C1CEA11541DBF1CEA13556D
:1007400094EA0C0F95EA0C0F00F0A7F8A4EB05044F
:1007500081EA030E52EA03354FEA013100F0888046
:100760004FEA03334FF0805545EA131343EA12630F
:100770004FEA022245EA111545EA10654FEA0026C4
:100780000EF000419D4208BF964244F1FD0404F57D
:10079000407402D25B084FEA3202B61A65EB0305D9
:1007A0005B084FEA32024FF480104FF4002CB6EB96
:1007B000020E75EB030E22BFB61A754640EA0C0016
:1007C0005B084FEA3202B6EB020E75EB030E22BF56
:1007D000B61A754640EA5C005B084FEA3202B6EB97
:1007E000020E75EB030E22BFB61A754640EA9C0056
:1007F0005B084FEA3202B6EB020E75EB030E22BF26
:10080000B61A754640EADC0055EA060E18D04FEAE3
:10081000051545EA16754FEA06164FEAC30343EA83
:1008200052734FEAC2025FEA1C1CC0D111F4801F50
:100830000BD141EA00014FF000004FF0004CB6E749
:1008400011F4801F04BF01430020B4F1FD0C88BFE8
:10085000BCF5E06F3FF6AFAEB5EB030C04BFB6EBF3
:10086000020C5FEA500C50F1000041EB045170BDE6
:100870000EF0004E4EEA113114EB5C04C2BFD4EB13
:100880000C0541EA045170BD41F480114FF0000E97
:10089000013C90E645EA060E8DE60CEA135594EA13
:1008A0000C0F08BF95EA0C0F3FF43BAF94EA0C0F16
:1008B0000AD150EA01347FF434AF95EA0C0F7FF48B
:1008C00025AF104619462CE795EA0C0F06D152EADF
:1008D00003353FF4FDAE1046194622E750EA4106C3
:1008E00018BF52EA43067FF4C5AE50EA41047FF4D4
:1008F0000DAF52EA43057FF4EBAE12E74FF0FF3C39
:1009000006E000BF4FF0010C02E000BF4FF0010C09
:100910004DF804CD4FEA410C7FEA6C5C4FEA430C82
:1009200018BF7FEA6C5C1BD001B050EA410C0CBFD1
:1009300052EA430C91EA030F02BF90EA020F002033
:10094000704710F1000F91EA030F58BF994208BF9A
:1009500090422CBFD8176FEAE37040F00100704757
:100960004FEA410C7FEA6C5C02D150EA013C07D1AE
:100970004FEA430C7FEA6C5CD6D152EA033CD3D0F9
:100980005DF8040B704700BF8446104662468C46F3
:100990001946634600E000BF01B5FFF7B7FF002826
:1009A00048BF10F1000F01BD4DF808EDFFF7F4FF4F
:1009B0000CBF012000205DF808FB00BF4DF808EDDA
:1009C000FFF7EAFF34BF012000205DF808FB00BFFD
:1009D0004DF808EDFFF7E0FF94BF012000205DF81F
:1009E00008FB00BF4DF808EDFFF7CEFF94BF0120D4
:1009F00000205DF808FB00BF4DF808EDFFF7C4FFCD
:100A000034BF012000205DF808FB00BF4FEA410C15
:100A10007FEA6C5C02D150EA013C0AD14FEA430CF8
:100A20007FEA6C5C02D152EA033C02D14FF0000035
:100A300070474FF0010070474FEA410212F5001273
:100A400015D211D56FF47873B3EB625212D94FEA15
:100A5000C12343F0004343EA505311F0004F23FAFF
:100A600002F018BF404270474FF00000704750EA54
:100A7000013005D111F0004008BF6FF00040704711
:100A80004FF00000704700BF4FEA4102B2F1E0436F
:100A900024BFB3F5001CDCF1FE5C0DD901F0004C65
:100AA0004FEAC0024CEA5070B2F1004F40EB8300B5
:100AB00008BF20F00100704711F0804F21D113F1E1
:100AC0003872BCBF01F00040704741F480114FEA1A
:100AD0005252C2F11802C2F1200C10FA0CF320FAA3
:100AE00002F018BF40F001004FEAC1234FEAD323C0
:100AF00003FA0CFC40EA0C0023FA02F34FEA43032A
:100B0000CCE77FEA625307D150EA01331EBF4FF0B2
:100B1000FE4040F44000704701F0004040F0FE40CD
:100B200040F40000704700BF80F0004002E000BFCA
:100B300081F0004142001FBF5FEA410392EA030FC8
:100B40007FEA226C7FEA236C6AD04FEA1262D2EB12
:100B50001363C1BFD218414048404140B8BF5B4217
:100B6000192B88BF704710F0004F40F4000020F0B0
:100B70007F4018BF404211F0004F41F4000121F0C6
:100B80007F4118BF494292EA030F3FD0A2F1010210
:100B900041FA03FC10EB0C00C3F1200301FA03F14E
:100BA00000F0004302D5494260EB4000B0F5000F71
:100BB00013D3B0F1807F06D340084FEA310102F130
:100BC0000102FE2A51D2B1F1004F40EBC25008BFE2
:100BD00020F0010040EA03007047490040EB0000AC
:100BE000013A28BFB0F5000FEDD2B0FA80FCACF1AD
:100BF000080CB2EB0C0200FA0CF0AABF00EBC250DA
:100C000052421843BCBFD0401843704792F0000FC7
:100C100081F4000106BF80F400000132013BB5E71A
:100C20004FEA41037FEA226C18BF7FEA236C21D090
:100C300092EA030F04D092F0000F08BF08467047F5
:100C400090EA010F1CBF0020704712F07F4F04D1C3
:100C5000400028BF40F00040704712F100723CBFD6
:100C600000F50000704700F0004343F0FE4040F400
:100C7000000070477FEA226216BF08467FEA2363BE
:100C80000146420206BF5FEA412390EA010F40F4A9
:100C9000800070474FF0000304E000BF10F00043F5
:100CA00048BF40425FEA000C08BF704743F09643DC
:100CB00001464FF000001CE050EA010208BF7047F7
:100CC0004FF000030AE000BF50EA010208BF70477E
:100CD00011F0004302D5404261EB41015FEA010C93
:100CE00002BF84460146002043F0B64308BFA3F18B
:100CF0008053A3F50003BCFA8CF2083AA3EBC2536D
:100D000010DB01FA02FC634400FA02FCC2F120028B
:100D1000BCF1004F20FA02F243EB020008BF20F0C2
:100D20000100704702F1200201FA02FCC2F1200228
:100D300050EA4C0021FA02F243EB020008BF20EA1D
:100D4000DC70704742000ED2B2F1FE4F0BD34FF071
:100D50009E03B3EB126209D44FEA002343F0004331
:100D600023FA02F070474FF00000704712F1610F54
:100D700001D1420202D14FF0FF3070474FF0000026
:100D8000704700BF80B483B000AF78600B467B80B3
:100D90007B689B681B6800225A6200BF7B689B6867
:100DA0001B685A6A7B889A42F8D300BF00BF0C3791
:100DB000BD4680BC704780B586B000AF786007F153
:100DC000080300221A605A609A60DA607B689B8888
:100DD000BB600023FB6001233B617B681B6807F15C
:100DE00008021146184601F013FB00BF1837BD4634
:100DF00080BD80B586B000AF786007F1080300229F
:100E00001A605A609A60DA607B689B88BB60012335
:100E1000FB6001233B6102237B617B681B6807F158
:100E200008021146184601F0F3FA00BF1837BD4614
:100E300080BD80B582B000AF78600B46FB707B68E8
:100E400018687B689B88FA78194601F07CFC00BF23
:100E50000837BD4680BD80B582B000AF78607B6842
:100E60001A687B689B881946104601F055FC0346BA
:100E700018460837BD4680BD80B584B000AFF86025
:100E8000B9603B601346FB80FB68BA681A60FB6878
:100E9000FA889A80FB683A689A60FB684FF0000213
:100EA000DA60FB68DA68FB681A61F868FFF7A1FF8F
:100EB0000121F868FFF7BDFF00BF1037BD4680BDB8
:100EC000B0B586B000AF78600023FB82844A07F19A
:100ED000080392E803001860043319707B684FF030
:100EE0000002DA607B68DA687B681A617868FFF76D
:100EF00080FF00217868FFF79CFF142001F03AF989
:100F00007868FFF758FF28217868FFF73BFF78687B
:100F1000FFF7A1FF0346002B03D150217868FFF7AC
:100F200031FF0023FB8202E0FB8A0133FB82FB8A54
:100F3000632B05D87868FFF78EFF0346002BF3D1AB
:100F400000237B7560E000233B7557E00023FB82A4
:100F500002E0FB8A0133FB82FB8A632B05D87868A9
:100F6000FFF779FF0346002BF3D028217868FFF7BD
:100F700009FF7868FFF76FFF0346002B17D17B7DD1
:100F800018333B4413F8103C5AB23B7DC3F10703BE
:100F9000012101FA03F35BB2DB435BB213405AB2A7
:100FA0007B7DD2B218333B4403F8102C14E07B7DD8
:100FB00018333B4413F8103C5AB23B7DC3F107038E
:100FC000012101FA03F35BB213435AB27B7DD2B223
:100FD00018333B4403F8102C0023FB8202E0FB8A09
:100FE0000133FB82FB8A632B05D87868FFF733FF58
:100FF0000346002BF3D13B7D01333B753B7D072B33
:10100000A4D97B7D01337B757B7D042B9BD93B7BF6
:101010001A463B7A19467B7A0B44B97A0B44F97A23
:101020000B449A4257D13B7A1846FFF7EBF9044636
:101030000D467B7A1846FFF7E5F94FF00002294B81
:10104000FFF774FB02460B4620462946FFF78EF851
:1010500002460B4610461946FFF716FD0346184692
:10106000FFF770FE03467B82BB7A1846FFF7CAF98A
:1010700004460D46FB7A1846FFF7C4F94FF000020C
:10108000184BFFF753FB02460B4620462946FFF755
:101090006DF802460B4610461946FFF7F5FC03466D
:1010A0001846FFF74FFE03463B827B8A1846FFF740
:1010B000F1FD02467B681A613B8A1846FFF7EAFD9C
:1010C00002467B68DA607868FFF793FE0121786852
:1010D000FFF7AFFE00E000BF1837BD46B0BD00BF50
:1010E000E07200080000244080B483B000AF786054
:1010F0007B68DB6818460C37BD4680BC704780B4FF
:1011000083B000AF78607B681B6918460C37BD461A
:1011100080BC7047B0B586B006AF114B5B6818460F
:10112000FFF782F904460D460D4B9B681846FFF702
:101130007BF902460B460A49898908460849C9894C
:1011400005910490CDE90223CDE90045002205492F
:10115000054803F033FF0346DBB21846BD46B0BD79
:10116000C8020020E87200080002002080B400AF2E
:10117000034B00221A7000BFBD4680BC704700BF01
:10118000FC01002080B500AF294B1B78022B16D044
:10119000022B46DC002B02D0012B07D041E0254B6F
:1011A00005221A80224B02221A703EE0224A0021B8
:1011B000002000F0CDF91E4B02221A7035E01F4AC4
:1011C0000021002000F0C4F91A4B1B88002B24D109
:1011D000184B05221A801A48FFF772FE1848FFF7CD
:1011E00083FF0346174A53601548FFF788FF0346FD
:1011F000144A936000F02AF803461A46114B9A816C
:1012000000F02EF803461A460E4BDA81FFF782FFF4
:10121000034619460C4800F005FF054B01221A70E1
:1012200003E0034B00221A7000BF00BF80BD00BF67
:10123000FC010020EC020020287300083073000835
:10124000D8020020C80200200002002080B400AFB5
:10125000024B5B881846BD4680BC7047F0020020F8
:1012600080B400AF024B1B881846BD4680BC704757
:10127000F002002080B582B000AF0346FB80FB88FF
:10128000184600F077FF00BF0837BD4680BD00005C
:1012900080B586B002AF03460A46FB711346BB71A8
:1012A000FB7923F00F03FB73FB791B01BB731C4B12
:1012B000DB7A002B07D0FB7B43F00803FB73BB7B7F
:1012C00043F00803BB73BB79012B07D1FB7B43F0D1
:1012D0000103FB73BB7B43F00103BB73FB7B43F058
:1012E0000403DBB23B72FB7B7B72BB7B43F00403EA
:1012F000DBB2BB72BB7BFB72094B1868084B1B79D6
:101300009BB25B0099B207F108024FF47A73009325
:10131000042301F08DFB00BF1037BD4680BD00BF28
:10132000F802002080B584B000AF7860084611460E
:101330001A460346FB700B46BB7013467B704A4A45
:101340007B681360484AFB781371474A7B78537176
:10135000454ABB789371444B28221A72424B0622AD
:10136000DA71414B0C225A723F4B14229A723E4B57
:101370000822DA723220FFF77DFF3C4B1B68002BFE
:1013800004D03A4B1B68184603F0BCF8BB787A7857
:1013900002FB03F3DB00184603F0ACF803461A46E1
:1013A000324B1A600023FB7308E0304B1A68FB7B5A
:1013B000134420221A70FB7B0133FB73FA7B2A4B08
:1013C0009B791946284B5B7901FB03F39A42ECDBCE
:1013D00000213320FFF75CFF00213320FFF758FF87
:1013E0000520FFF747FF00213220FFF751FF0520BE
:1013F000FFF740FF00212020FFF74AFF0520FFF7FD
:1014000039FF194BDB7900211846FFF741FF012016
:10141000FFF730FF144B5B7A00211846FFF738FFC7
:101420000120FFF727FF104B9B7A00211846FFF79A
:101430002FFF0120FFF71EFF0B4B1B7A00211846E0
:10144000FFF726FF0120FFF715FF00210120FFF71E
:101450001FFF0120FFF70EFF00210220FFF718FFFA
:1014600000BF1037BD4680BDF8020020F402002006
:1014700080B584B000AF03460A46FB711346BB71CA
:101480000023FB731D4B9A79FB79B3FBF2F101FB4F
:1014900002F29B1AFB71194B5A79BB79B3FBF2F13B
:1014A00001FB02F29B1ABB71FB79032B19D801A235
:1014B00052F823F0C5140008CB140008D314000818
:1014C000DB140008BB79FB730BE0BB794033FB7383
:1014D00007E0BB791433FB7303E0BB795433FB7330
:1014E00000BFFB7B63F07F03DBB200211846FFF7F0
:1014F000CFFE00BF1037BD4680BD00BFF802002000
:1015000080B483B000AF0346FB710D4B1B680D4ADE
:10151000127811460C4A527901FB02F20B49097804
:101520000A441344FA791A70084B1B780133DAB273
:10153000064B1A7000BF0C37BD4680BC704700BF19
:10154000F402002005030020F8020020040300201C
:1015500080B582B000AF03463A60FB710B46BB71A9
:10156000134B9A79FB79B3FBF2F101FB02F29B1A60
:10157000DAB2104B1A700E4B5A79BB79B3FBF2F109
:1015800001FB02F29B1ADAB20B4B1A7006E03B68C1
:101590005A1C3A601B781846FFF7B2FF3B681B786D
:1015A000002BF4D100BF00BF0837BD4680BD00BF8F
:1015B000F8020020050300200403002080B584B059
:1015C00000AF0346FB710B46BB711346BB80002383
:1015D000FB73304BBB60FB7903F00103DAB22E4B97
:1015E0001A70BB7903F00F03DAB22C4B1A70B7F9FB
:1015F0000430002B07DABB885B429BB2BB802D20F6
:10160000FFF77EFF11E0B7F90430002B06D1302040
:10161000FFF776FF3020FFF773FF38E0B7F90430AB
:10162000092B02DC3020FFF76BFF0A23BB732BE092
:10163000B7F90430BA689A420DD80123FB73B7F9A1
:101640000420BB68B2FBF3F3DBB23033DBB21846E5
:10165000FFF756FF05E0FB7B002B02D03020FFF7A1
:101660004FFFB7F90430BA68B3FBF2F2B96801FB77
:1016700002F29B1ABB80BB68094AA2FB0323DB086A
:10168000BB60BB7B013BBB73BB7B002BD0D1103756
:10169000BD4680BD00CA9A3B05030020040300201C
:1016A000CDCCCCCC80B582B000AF0023FB7121E063
:1016B000FB7900211846FFF7DBFE0023BB7111E028
:1016C000114B1B68FA791149497902FB01F1BA798A
:1016D0000A4413441B7801211846FFF7D9FDBB7952
:1016E0000133BB71094B5B79BA799A42E8D3FB7934
:1016F0000133FB71054B9B79FA799A42D8D300BF2D
:1017000000BF0837BD4680BDF4020020F80200206B
:1017100080B500AF00F0CCFC00F05EF800F094F96A
:1017200000F0CCF800F018F900F09AF800F062F937
:10173000214802F053F9214802F006F94FF47A717A
:101740001D4800F015FC4FF47A7000F039FC1B4B7B
:1017500008221B491B48FFF78FFB1B4800F054FC75
:101760001023022227211948FFF7DCFDFFF7FEFCBA
:1017700000F024FD0121002001F060FC00F02CFDB0
:10178000134B1B88002B05D0114B1B88013B9AB2D1
:101790000F4B1A80FFF7F6FC4FF400510D4800F094
:1017A000EAFF0B4B1B881BB21A4600210120FFF7F2
:1017B00005FFFFF777FFDBE75C030020A4030020B1
:1017C00000080140D8020020EC030020080300209C
:1017D000EC0200200010014080B590B000AF07F18E
:1017E000180328220021184602F094FE3B1D002217
:1017F0001A605A609A60DA601A610123BB614FF483
:101800008033FB6100233B620123BB6202237B63C5
:101810004FF48033BB630023FB6307F118031846C2
:1018200001F028FC0346002B01D000F079F90F23CA
:101830007B600223BB600023FB604FF480633B614D
:1018400000237B613B1D0021184601F095FE0346F5
:10185000002B01D000F064F900BF4037BD4680BDC9
:1018600080B500AF124B134A1A60114B124A5A60EE
:101870000F4B00229A600E4B0022DA600C4B4FF4A3
:1018800080421A610A4B00225A61094B00229A6178
:10189000074B0022DA61064B00221A62044800F06E
:1018A00083FF0346002B01D000F03AF900BF80BD52
:1018B0000803002000540040A086010080B586B0D7
:1018C00000AF07F1080300221A605A609A60DA60DC
:1018D0003B4600221A605A601E4B4FF080421A604D
:1018E0001C4B43F67F625A601A4B00229A60194BD8
:1018F00040F2E732DA60174B00221A61154B0022E2
:101900009A61144801F0D0FF0346002B01D000F08B
:1019100007F94FF48053BB6007F1080319460D48DF
:1019200002F0B6F90346002B01D000F0F9F80023CD
:101930003B6000237B603B461946064802F088FB6B
:101940000346002B01D000F0EBF800BF1837BD466E
:1019500080BD00BF5C03002080B586B000AF07F1FA
:10196000080300221A605A609A60DA603B4600223F
:101970001A605A601D4B1E4A1A601C4B0F225A6097
:101980001A4B00229A60194B4FF6FE72DA60174B21
:1019900000221A61154B00229A61144801F084FF5D
:1019A0000346002B01D000F0BBF84FF48053BB601E
:1019B00007F1080319460D4802F06AF90346002BA7
:1019C00001D000F0ADF800233B6000237B603B4674
:1019D0001946064802F03CFB0346002B01D000F0FC
:1019E0009FF800BF1837BD4680BD00BFA40300208C
:1019F0000004004080B500AF114B124A1A60104B32
:101A00004FF416525A600E4B00229A600C4B002283
:101A1000DA600B4B00221A61094B0C225A61084B09
:101A200000229A61064B0022DA61054802F080FB31
:101A30000346002B01D000F073F800BF80BD00BF4B
:101A4000EC0300200038014080B588B000AF07F1FA
:101A5000100300221A605A609A60DA602D4B9B696D
:101A60002C4A43F0100393612A4B9B6903F0100347
:101A7000FB60FB68274B9B69264A43F02003936178
:101A8000244B9B6903F02003BB60BB68214B9B691F
:101A9000204A43F0040393611E4B9B6903F0040347
:101AA0007B607B681B4B9B691A4A43F00803936178
:101AB000184B9B6903F008033B603B6800224FF41E
:101AC0000051154800F03FFE00220821134800F0A5
:101AD0003AFE4FF400533B6101237B610123BB615C
:101AE0000223FB6107F1100319460B4800F090FC3C
:101AF00008233B6101237B610123BB610223FB615E
:101B000007F110031946054800F082FC00BF20379A
:101B1000BD4680BD00100240001001400008014099
:101B200080B400AF72B600BFFEE7000080B485B09D
:101B300000AF154B9B69144A43F001039361124BAC
:101B40009B6903F00103BB60BB680F4BDB690E4A66
:101B500043F08053D3610C4BDB6903F080537B600F
:101B60007B680A4B5B68FB60FB6823F0E063FB600B
:101B7000FB6843F00073FB60044AFB68536000BFDE
:101B80001437BD4680BC7047001002400000014081
:101B900080B588B000AF786007F1100300221A60AA
:101BA0005A609A60DA607B681B68154A934223D1B9
:101BB000144B9B69134A43F008039361114B9B69D3
:101BC00003F00803FB60FB68C0233B6112237B61C9
:101BD0000323FB6107F1100319460B4800F018FCC2
:101BE000084BDB69074A43F40013D361054BDB69FB
:101BF00003F40013BB60BB6800BF2037BD4680BD47
:101C00000054004000100240000C014080B584B038
:101C100000AF78607B681B68B3F1804F14D1154B1F
:101C2000DB69144A43F00103D361124BDB6903F013
:101C30000103FB60FB68002200211C2000F0B1FBC7
:101C40001C2000F0CAFB10E07B681B680A4A934224
:101C50000BD1084BDB69074A43F00203D361054B04
:101C6000DB6903F00203BB60BB6800BF1037BD46F1
:101C700080BD00BF001002400004004080B588B065
:101C800000AF786007F1100300221A605A609A6072
:101C9000DA607B681B681C4A934231D11B4B9B69FD
:101CA0001A4A43F480439361184B9B6903F48043C1
:101CB000FB60FB68154B9B69144A43F00403936176
:101CC000124B9B6903F00403BB60BB684FF40073C5
:101CD0003B6102237B610323FB6107F1100319467B
:101CE0000B4800F095FB4FF480633B6100237B6160
:101CF0000023BB6107F110031946054800F088FB7B
:101D000000BF2037BD4680BD0038014000100240B2
:101D10000008014080B400AFFEE780B400AFFEE7EA
:101D200080B400AFFEE780B400AFFEE780B400AF40
:101D3000FEE780B400AF00BFBD4680BC704780B4F2
:101D400000AF00BFBD4680BC704780B400AF00BF8D
:101D5000BD4680BC704780B500AF00F0EFF900BF12
:101D600080BD000080B500AF024801F089FE00BFD1
:101D700080BD00BF5C03002080B400AF0123184683
:101D8000BD4680BC704780B582B000AF78603960D6
:101D900002F086FB034616221A604FF0FF33184606
:101DA0000837BD4680BD80B582B000AF78604FF087
:101DB000FF317868FFF7E7FFFEE780B586B000AF38
:101DC000F860B9607A6000237B610AE0AFF30080BD
:101DD0000146BB685A1CBA60CAB21A707B690133EB
:101DE0007B617A697B689A42F0DB7B68184618371A
:101DF000BD4680BD80B586B000AFF860B9607A603E
:101E000000237B6109E0BB685A1CBA601B78184646
:101E1000AFF300807B6901337B617A697B689A420A
:101E2000F1DB7B6818461837BD4680BD80B483B0AF
:101E300000AF78604FF0FF3318460C37BD4680BCCA
:101E4000704780B483B000AF786039603B684FF46E
:101E500000525A60002318460C37BD4680BC7047BC
:101E600080B483B000AF7860012318460C37BD46BC
:101E700080BC704780B485B000AFF860B9607A600C
:101E8000002318461437BD4680BC704780B586B025
:101E900000AF7860144A154BD31A7B617B693B61B4
:101EA000134B1B68002B02D1114B124A1A60104BC6
:101EB0001A687B6813443A699A4207D202F0F0FA32
:101EC00003460C221A604FF0FF3309E0084B1B68F1
:101ED000FB60074B1A687B681344054A1360FB6874
:101EE00018461837BD4680BD005000200004000091
:101EF000300400205804002080B400AF00BFBD466D
:101F000080BC704780B400AF0C4B1B88002B11D0F5
:101F10000A4B1B88013B9AB2084B1A80074B1B885F
:101F2000002B07D1064B1B789AB2044B1A80054B45
:101F300001221A7000BFBD4680BC70473A040020E1
:101F4000060000203804002080B582B000AF786021
:101F50007B681A68054B1B681B689A4201D1FFF722
:101F6000D1FF00BF0837BD4680BD00BF340400204C
:101F700080B582B000AF78600B467B800B4A7B68EF
:101F800013600B4B1B789AB20A4B1A800A4A7B8863
:101F900013800A4B00221A70044B1B68184601F08C
:101FA0001DFD00BF0837BD4680BD00BF34040020C2
:101FB000060000203A04002004000020380400201D
:101FC00080B483B000AF0346FB800B4B1B88FA88BC
:101FD000B2FBF3F39BB2DAB2084B1A70074B1B78D3
:101FE0009AB2074B1A80074B00221A7000BF0C37B9
:101FF000BD4680BC704700BF0400002006000020E2
:102000003A0400203804002080B483B000AF786028
:10201000034A7B68136000BF0C37BD4680BC704725
:102020003C04002080B584B000AF78600B46FB70A4
:102030000023FB730BE00A4B1868FB7B7A68D1180E
:102040006423012202F0C1F8FB7B0133FB73FA7BAE
:10205000FB789A42EFD300BF00BF1037BD4680BD6A
:102060003C0400200C480D490D4A002302E0D458DE
:10207000C4500433C4188C42F9D30A4A0A4C0023D2
:1020800001E013600432A242FBD3FFF735FF02F0F8
:102090000DFAFFF73DFB704700000020E001002033
:1020A00044770008E001002054040020FEE700000F
:1020B00080B500AF084B1B68074A43F0100313605C
:1020C000032000F063F90F2000F008F8FFF72EFD61
:1020D0000023184680BD00BF0020024080B582B0BA
:1020E00000AF7860124B1A68124B1B7819464FF4F8
:1020F0007A73B3FBF1F3B2FBF3F3184600F07BF90C
:102100000346002B01D001230EE07B680F2B0AD879
:10211000002279684FF0FF3000F043F9064A7B68EF
:102120001360002300E0012318460837BD4680BD38
:10213000000000200C0000200800002080B400AF48
:10214000054B1B781A46054B1B681344034A136062
:1021500000BFBD4680BC70470C000020400400203A
:1021600080B400AF024B1B681846BD4680BC704768
:102170004004002080B584B000AF7860FFF7F0FF26
:10218000B8607B68FB60FB68B3F1FF3F05D00A4B8A
:102190001B781A46FB681344FB6000BFFFF7E0FFA3
:1021A0000246BB68D31AFA689A42F7D800BF00BF4C
:1021B0001037BD4680BD00BF0C00002080B400AFCA
:1021C000044B1B68034A23F00203136000BFBD46A3
:1021D00080BC704710E000E080B400AF044B1B6887
:1021E000034A43F00203136000BFBD4680BC704742
:1021F00010E000E080B485B000AF78607B6803F049
:102200000703FB600C4BDB68BB60BA684FF6FF034B
:102210001340BB60FB681A02BB68134343F0BF6303
:1022200043F40033BB60044ABB68D36000BF14377B
:10223000BD4680BC704700BF00ED00E080B400AF39
:10224000044BDB681B0A03F007031846BD4680BC3D
:10225000704700BF00ED00E080B483B000AF0346DC
:10226000FB7197F90730002B0BDBFB7903F01F02A2
:10227000064997F907305B09012000FA02F241F89C
:10228000232000BF0C37BD4680BC704700E100E052
:1022900080B483B000AF03463960FB7197F9073013
:1022A000002B0ADB3B68DAB20C4997F907301201C0
:1022B000D2B20B4483F800230AE03B68DAB2084943
:1022C000FB7903F00F03043B1201D2B20B441A76E0
:1022D00000BF0C37BD4680BC704700BF00E100E086
:1022E00000ED00E080B489B000AFF860B9607A60BA
:1022F000FB6803F00703FB61FB69C3F10703042BD1
:1023000028BF0423BB61FB690433062B02D9FB6998
:10231000033B00E000237B614FF0FF32BB6902FA10
:1023200003F3DA43BB681A407B699A404FF0FF31F0
:102330007B6901FA03F3D9437B680B4013431846CA
:102340002437BD4680BC704780B582B000AF78604E
:102350007B68013BB3F1807F01D301230FE00A4A80
:102360007B68013B53600F214FF0FF30FFF790FF78
:10237000054B00229A60044B07221A60002318467E
:102380000837BD4680BD00BF10E000E080B582B0D8
:1023900000AF78607868FFF72DFF00BF0837BD46B3
:1023A00080BD80B586B000AF0346B9607A60FB732C
:1023B00000237B61FFF742FF78617A68B96878692A
:1023C000FFF790FF024697F90F3011461846FFF7C6
:1023D0005FFF00BF1837BD4680BD80B582B000AF3B
:1023E0000346FB7197F907301846FFF735FF00BF2A
:1023F0000837BD4680BD80B582B000AF7860786890
:10240000FFF7A2FF034618460837BD4680BD00000F
:1024100080B48BB000AF7860396000237B6200230A
:102420003B6269E101227B6A02FA03F3FB613B68CC
:102430001B68FA691340BB61BA69FB699A4240F0B4
:1024400058813B685B689A4A93425ED0984A9342AF
:1024500075D8984A934258D0964A93426FD8964A74
:10246000934252D0944A934269D8944A93424CD0B2
:10247000924A934263D8924A934246D0904A9342FA
:102480005DD8122B2AD8122B59D801A252F823F06A
:102490000B250008E5240008F7240008392500086A
:1024A0003F2500083F2500083F2500083F2500087C
:1024B0003F2500083F2500083F2500083F2500086C
:1024C0003F2500083F2500083F2500083F2500085C
:1024D0003F250008ED24000801250008794A9342B1
:1024E00013D02CE03B68DB683B6229E03B68DB688B
:1024F00004333B6224E03B68DB6808333B621FE047
:102500003B68DB680C333B621AE03B689B68002B3E
:1025100002D104233B6213E03B689B68012B05D189
:1025200008233B627B68FA691A6109E008233B6271
:102530007B68FA695A6103E000233B6200E000BF58
:10254000BB69FF2B01D87B6801E07B6804337B61AA
:10255000BB69FF2B02D87B6A9B0002E07B6A083BC9
:102560009B003B617B691A680F213B6901FA03F309
:10257000DB431A40396A3B6901FA03F31A437B696A
:102580001A603B685B6803F08053002B00F0B18059
:102590004D4B9B694C4A43F0010393614A4B9B6945
:1025A00003F00103BB60BB68484A7B6A9B080233A7
:1025B00052F82330FB607B6A03F003039B000F2279
:1025C00002FA03F3DB43FA681340FB607B68404A7E
:1025D000934213D07B683F4A93420DD07B683E4ABA
:1025E000934207D07B683D4A934201D1032306E022
:1025F000042304E0022302E0012300E000237A6ABE
:1026000002F0030292009340FA681343FB602F49E3
:102610007B6A9B080233FA6841F823203B685B68B9
:1026200003F48033002B06D02D4B1A682C49BB696C
:1026300013430B6006E02A4B1A68BB69DB43284949
:1026400013400B603B685B6803F40033002B06D03B
:10265000234B5A682249BB6913434B6006E0204B69
:102660005A68BB69DB431E4913404B603B685B689B
:1026700003F48013002B06D0194B9A681849BB69E4
:1026800013438B6006E0164B9A68BB69DB43144921
:1026900013408B603B685B6803F40013002B21D070
:1026A0000F4BDA680E49BB691343CB6021E000BFD2
:1026B0000000321000003110000022100000211034
:1026C0000000121000001110001002400000014034
:1026D00000080140000C01400010014000140140BE
:1026E000000401400B4BDA68BB69DB430949134026
:1026F000CB607B6A01337B623B681A687B6A22FA93
:1027000003F3002B7FF48EAE00BF00BF2C37BD4615
:1027100080BC70470004014080B485B000AF786091
:102720000B467B807B689A687B881340002B02D025
:102730000123FB7301E00023FB73FB7B1846143776
:10274000BD4680BC704780B483B000AF78600B4654
:102750007B8013467B707B78002B03D07A887B6864
:102760001A6103E07B881A047B681A6100BF0C378A
:10277000BD4680BC704780B485B000AF78600B4622
:102780007B807B68DB68FB607A88FB6813401A04F7
:10279000FB68D9437B880B401A437B681A6100BFF2
:1027A0001437BD4680BC704780B584B000AF7860F8
:1027B0007B68002B01D101232BE17B6893F83D302E
:1027C000DBB2002B06D17B68002283F83C207868BE
:1027D000FFF7DEF97B68242283F83D207B681B68C5
:1027E0001A687B681B6822F001021A607B681B680C
:1027F0001A687B681B6842F400421A607B681B6899
:102800001A687B681B6822F400421A6001F006F81F
:10281000F8607B685B68814A934207D8FB68804A0E
:10282000934294BF01230023DBB206E0FB687D4A9C
:10283000934294BF01230023DBB2002B01D001237C
:10284000E7E0FB68784AA2FB03239B0CBB607B6834
:102850001B685B6823F03F017B681B68BA680A430A
:102860005A607B681B681B6A23F03F017B685B68CA
:102870006A4A934202D8BB68013309E0BB684FF44F
:10288000967202FB03F3694AA2FB03239B090133FF
:102890007A6812680B4313627B681B68DB6923F458
:1028A0004F4222F0FF027B685B685C498B4219D87B
:1028B000FB68591E7B685B685B00B1FBF3F3591C36
:1028C00040F6FC730B40002B0AD0FB68591E7B6856
:1028D0005B685B00B1FBF3F30133C3F30B0351E01F
:1028E00004234FE07B689B68002B11D1FB68581EC6
:1028F0007B6859680B465B000B44B0FBF3F3013374
:10290000C3F30B03002B0CBF01230023DBB212E047
:10291000FB68581E7B6859680B469B000B44990066
:102920000B44B0FBF3F30133C3F30B03002B0CBFD9
:1029300001230023DBB2002B01D0012322E07B68BE
:102940009B68002B0ED1FB68581E7B6859680B46AC
:102950005B000B44B0FBF3F30133C3F30B0343F40D
:1029600000430FE0FB68581E7B6859680B469B00CC
:102970000B4499000B44B0FBF3F30133C3F30B0397
:1029800043F44043796809681343CB617B681B6853
:102990001B6823F0C0017B68DA697B681B6A1A43F5
:1029A0007B681B680A431A607B681B689B6823F47A
:1029B000034323F0FF037A6811697A68D2681143F0
:1029C0007A6812680B4393607B681B68DB6823F0AE
:1029D000FF017B685A697B689B691A437B681B68A7
:1029E0000A43DA607B681B681A687B681B6842F0E0
:1029F00001021A607B6800221A647B68202283F837
:102A00003D207B6800221A637B68002283F83E2009
:102A1000002318461037BD4680BD00BFA0860100C8
:102A20007F841E00FF083D0083DE1B43D34D6210F0
:102A300080B588B002AFF8607A601A460B467B8199
:102A400013463B81FFF78CFB7861FB6893F83D30C0
:102A5000DBB2202B40F0E0807B6900931923012238
:102A60007049F86800F064F90346002B01D0022396
:102A7000D3E0FB6893F83C30012B01D10223CCE07A
:102A8000FB68012283F83C20FB681B681B6803F08D
:102A90000103012B07D0FB681B681A68FB681B68E1
:102AA00042F001021A60FB681B681A68FB681B6829
:102AB00022F400621A60FB68212283F83D20FB6843
:102AC000102283F83E20FB6800221A64FB687A68B3
:102AD0005A62FB683A895A85FB685B8D9AB2FB683B
:102AE0001A85FB68504ADA6279897B693A6AF86824
:102AF00000F09CF80346002B01D001238DE0002359
:102B00003B61FB681B685B693B61FB681B689B69F9
:102B10003B613B6966E07A69396AF86800F0DEF982
:102B20000346002B0DD0FB681B6C042B07D1FB6800
:102B30001B681A68FB681B6842F400721A60012364
:102B40006BE0FB685B6A1A78FB681B681A61FB68BC
:102B50005B6A5A1CFB685A62FB685B8D9BB2013B47
:102B60009AB2FB685A85FB681B8D013B9AB2FB68E1
:102B70001A85FB681B685B6903F00403042B1BD1F7
:102B8000FB681B8D002B17D0FB685B6A1A78FB680B
:102B90001B681A61FB685B6A5A1CFB685A62FB6817
:102BA0005B8D9BB2013B9AB2FB685A85FB681B8D1B
:102BB000013B9AB2FB681A857A69396AF86800F0B5
:102BC000CEF90346002B0DD0FB681B6C042B07D1FC
:102BD000FB681B681A68FB681B6842F400721A6085
:102BE00001231AE0FB681B8D002B94D1FB681B6846
:102BF0001A68FB681B6842F400721A60FB682022A6
:102C000083F83D20FB68002283F83E20FB68002209
:102C100083F83C20002300E0022318461837BD4605
:102C200080BD00BF020010000000FFFF80B588B02B
:102C300002AFF8607A603B600B467B81FB68DB6A21
:102C40007B617B69082B06D07B69012B03D07B69F4
:102C500013F5803F08D1FB681B681A68FB681B6886
:102C600042F480721A600BE0FB681B6B122B07D1D9
:102C7000FB681B681A68FB681B6842F480721A6064
:102C80003B6800937B6800224FF00111F86800F068
:102C90004FF80346002B0DD0FB681B681B6803F43C
:102CA0008073B3F5807F03D1FB684FF400721A6420
:102CB000032335E0FB681B69B3F5804F08D17B899E
:102CC000DBB21A46FB681B6802F0FE021A611BE0C9
:102CD0007B89DB11DBB203F00603DBB263F00F0389
:102CE000DAB2FB681B681A613B687A680E49F868BB
:102CF00000F075F80346002B01D0012310E07B891A
:102D0000DAB2FB681B681A613B687A680749F868A1
:102D100000F065F80346002B01D0012300E00023FA
:102D200018461837BD4680BD0800010002000100AA
:102D300080B584B000AFF860B9603B601346FB71AA
:102D400025E03B68B3F1FF3F21D0FFF709FA0246C7
:102D5000BB69D31A3A689A4202D33B68002B16D15A
:102D6000FB6800221A63FB68202283F83D20FB6881
:102D7000002283F83E20FB681B6C43F02002FB68B6
:102D80001A64FB68002283F83C20012323E0BB681F
:102D90001B0CDBB2012B0DD1FB681B685B69DA43AE
:102DA000BB6813409BB2002B0CBF01230023DBB296
:102DB0001A460CE0FB681B689B69DA43BB6813404A
:102DC0009BB2002B0CBF01230023DBB21A46FB7918
:102DD0009A42B6D0002318461037BD4680BD80B554
:102DE00084B000AFF860B9607A603B6051E0FB6886
:102DF0001B685B6903F48063B3F5806F23D1FB68C4
:102E00001B681A68FB681B6842F400721A60FB6852
:102E10001B686FF480625A61FB6800221A63FB68CA
:102E2000202283F83D20FB68002283F83E20FB68C7
:102E30001B6C43F00402FB681A64FB68002283F8F1
:102E40003C20012346E07B68B3F1FF3F21D0FFF730
:102E500087F902463B68D31A7A689A4202D37B68A4
:102E6000002B16D1FB6800221A63FB68202283F82E
:102E70003D20FB68002283F83E20FB681B6C43F07A
:102E80002002FB681A64FB68002283F83C200123BF
:102E900020E0BB681B0CDBB2012B0CD1FB681B686C
:102EA0005B69DA43BB6813409BB2002B14BF01235C
:102EB0000023DBB20BE0FB681B689B69DA43BB684D
:102EC00013409BB2002B14BF01230023DBB2002B65
:102ED0008DD1002318461037BD4680BD80B584B023
:102EE00000AFF860B9607A602DE0F86800F078F81B
:102EF0000346002B01D001232DE0BB68B3F1FF3F57
:102F000021D0FFF72DF902467B68D31ABA689A429E
:102F100002D3BB68002B16D1FB6800221A63FB6842
:102F2000202283F83D20FB68002283F83E20FB68C6
:102F30001B6C43F02002FB681A64FB68002283F8D4
:102F40003C20012307E0FB681B685B6903F08003FA
:102F5000802BCAD1002318461037BD4680BD80B5EE
:102F600084B000AFF860B9607A602DE0F86800F0D6
:102F700037F80346002B01D001232DE0BB68B3F1E5
:102F8000FF3F21D0FFF7ECF802467B68D31ABA68FE
:102F90009A4202D3BB68002B16D1FB6800221A6349
:102FA000FB68202283F83D20FB68002283F83E2046
:102FB000FB681B6C43F02002FB681A64FB6800226C
:102FC00083F83C20012307E0FB681B685B6903F082
:102FD0000403042BCAD1002318461037BD4680BD18
:102FE00080B483B000AF78607B681B685B6903F4D2
:102FF0008063B3F5806F1BD17B681B686FF48062C0
:103000005A617B6800221A637B68202283F83D2086
:103010007B68002283F83E207B681B6C43F004022F
:103020007B681A647B68002283F83C20012300E05F
:10303000002318460C37BD4680BC704780B483B06F
:1030400000AF78600B46FB70094B1B69084A23F000
:1030500004031361FB78012B01D130BF02E040BFB4
:1030600020BF20BF00BF0C37BD4680BC704700BFEB
:1030700000ED00E080B586B000AF78607B68002B83
:1030800001D1012372E27B681B6803F00103002B6E
:1030900000F08780924B5B6803F00C03042B0CD08C
:1030A0008F4B5B6803F00C03082B12D18C4B5B68D1
:1030B00003F48033B3F5803F0BD1894B1B6803F4D5
:1030C0000033002B6CD07B685B68002B68D1012338
:1030D0004CE27B685B68B3F5803F06D1804B1B6890
:1030E0007F4A43F4803313602EE07B685B68002BDB
:1030F0000CD17B4B1B687A4A23F480331360784BE6
:103100001B68774A23F4802313601DE07B685B68AB
:10311000B3F5A02F0CD1724B1B68714A43F4802386
:1031200013606F4B1B686E4A43F4803313600BE0EF
:103130006B4B1B686A4A23F480331360684B1B682F
:10314000674A23F4802313607B685B68002B13D0ED
:10315000FFF706F8386108E0FFF702F802463B691E
:10316000D31A642B01D9032300E25D4B1B6803F4DF
:103170000033002BF0D014E0FEF7F2FF386108E0D6
:10318000FEF7EEFF02463B69D31A642B01D90323F5
:10319000ECE1534B1B6803F40033002BF0D100E04B
:1031A00000BF7B681B6803F00203002B63D04C4B0D
:1031B0005B6803F00C03002B0BD0494B5B6803F0FA
:1031C0000C03082B1CD1464B5B6803F48033002BA7
:1031D00016D1434B1B6803F00203002B05D07B681C
:1031E0001B69012B01D00123C0E13D4B1B6823F07B
:1031F000F8027B685B69DB00394913430B603AE0F6
:103200007B681B69002B20D0364B01221A60FEF729
:10321000A7FF386108E0FEF7A3FF02463B69D31A17
:10322000022B01D90323A1E12D4B1B6803F00203FC
:10323000002BF0D02A4B1B6823F0F8027B685B69F7
:10324000DB00274913430B6015E0264B00221A6070
:10325000FEF786FF386108E0FEF782FF02463B6911
:10326000D31A022B01D9032380E11D4B1B6803F005
:103270000203002BF0D17B681B6803F00803002BCE
:103280003AD07B689B69002B19D0174B01221A603A
:10329000FEF766FF386108E0FEF762FF02463B6911
:1032A000D31A022B01D9032360E10D4B5B6A03F0B3
:1032B0000203002BF0D0012000F0D8FA1CE00A4BEA
:1032C00000221A60FEF74CFF38610FE0FEF748FF5E
:1032D00002463B69D31A022B08D9032346E100BFFB
:1032E000001002400000424280044242924B5B6A5E
:1032F00003F00203002BE9D17B681B6803F0040391
:10330000002B00F0A6800023FB758B4BDB6903F0DC
:103310008053002B0DD1884BDB69874A43F08053E3
:10332000D361854BDB6903F08053BB60BB6801232D
:10333000FB75824B1B6803F48073002B18D17F4B05
:103340001B687E4A43F480731360FEF709FF3861FF
:1033500008E0FEF705FF02463B69D31A642B01D94A
:10336000032303E1754B1B6803F48073002BF0D03B
:103370007B68DB68012B06D16F4B1B6A6E4A43F0FA
:10338000010313622DE07B68DB68002B0CD16A4BD4
:103390001B6A694A23F001031362674B1B6A664A82
:1033A00023F0040313621CE07B68DB68052B0CD15F
:1033B000614B1B6A604A43F0040313625E4B1B6A55
:1033C0005D4A43F0010313620BE05B4B1B6A5A4AF0
:1033D00023F001031362584B1B6A574A23F004037E
:1033E00013627B68DB68002B15D0FEF7B9FE3861ED
:1033F0000AE0FEF7B5FE02463B69D31A41F2883275
:10340000934201D90323B1E04B4B1B6A03F0020343
:10341000002BEED014E0FEF7A3FE38610AE0FEF7C1
:103420009FFE02463B69D31A41F28832934201D98A
:1034300003239BE0404B1B6A03F00203002BEED1F9
:10344000FB7D012B05D13C4BDB693B4A23F08053CC
:10345000D3617B68DB69002B00F08780364B5B68AB
:1034600003F00C03082B61D07B68DB69022B46D18B
:10347000334B00221A60FEF773FE386108E0FEF756
:103480006FFE02463B69D31A022B01D903236DE07C
:10349000294B1B6803F00073002BF0D17B681B6A7B
:1034A000B3F5803F08D1244B5B6823F400327B687E
:1034B0009B68214913434B601F4B5B6823F47412D4
:1034C0007B68196A7B685B6A0B431B4913434B603B
:1034D0001B4B01221A60FEF743FE386108E0FEF73D
:1034E0003FFE02463B69D31A022B01D903233DE07C
:1034F000114B1B6803F00073002BF0D035E0104B2C
:1035000000221A60FEF72CFE386108E0FEF728FE64
:1035100002463B69D31A022B01D9032326E0064B4E
:103520001B6803F00073002BF0D11EE07B68DB69A1
:10353000012B07D1012319E0001002400070004068
:10354000600042420B4B5B68FB60FB6803F4803217
:103550007B681B6A9A4206D1FB6803F470127B6891
:103560005B6A9A4201D0012300E000231846183715
:10357000BD4680BD0010024080B584B000AF7860C9
:1035800039607B68002B01D10123D0E06A4B1B68B6
:1035900003F007033A689A4210D9674B1B6823F07F
:1035A000070265493B6813430B60634B1B6803F0DC
:1035B00007033A689A4201D00123B8E07B681B6890
:1035C00003F00203002B20D07B681B6803F0040388
:1035D000002B05D0594B5B68584A43F4E0635360B5
:1035E0007B681B6803F00803002B05D0534B5B6816
:1035F000524A43F460535360504B5B6823F0F0022F
:103600007B689B684D4913434B607B681B6803F0E4
:103610000103002B40D07B685B68012B07D1474B2F
:103620001B6803F40033002B15D101237FE07B6876
:103630005B68022B07D1414B1B6803F00073002B22
:1036400009D1012373E03D4B1B6803F00203002BFB
:1036500001D101236BE0394B5B6823F003027B68E7
:103660005B68364913434B60FEF77AFDF8600AE069
:10367000FEF776FD0246FB68D31A41F28832934288
:1036800001D9032353E02D4B5B6803F00C027B68E8
:103690005B689B009A42EBD1274B1B6803F0070342
:1036A0003A689A4210D2244B1B6823F00702224941
:1036B0003B6813430B60204B1B6803F007033A6819
:1036C0009A4201D0012332E07B681B6803F00403B7
:1036D000002B08D0194B5B6823F4E0627B68DB6841
:1036E000164913434B607B681B6803F00803002BEB
:1036F00009D0124B5B6823F460527B681B69DB00C6
:103700000E4913434B6000F021F802460B4B5B68F7
:103710001B0903F00F030A49CB5C22FA03F3094AA1
:103720001360094B1B681846FEF7D8FC00231846A7
:103730001037BD4680BD00BF00200240001002408F
:1037400048730008000000200800002090B48AB0F0
:1037500000AF294B3C1D0FCB84E80F0040F2012342
:103760003B800023FB610023BB6100237B620023BD
:103770007B6100233B62214B5B68FB61FB6903F0CB
:103780000C03042B02D0082B03D02BE01C4B3B6214
:103790002BE0FB699B0C03F00F0328333B4413F829
:1037A000243C7B61FB6903F48033002B12D0134B64
:1037B0005B685B0C03F0010328333B4413F8283C9F
:1037C000BB617B690E4A03FB02F2BB69B2FBF3F3F8
:1037D0007B6204E07B690B4A02FB03F37B627B6A3A
:1037E0003B6202E0064B3B6200BF3B6A184628374B
:1037F000BD4690BC704700BF3873000800100240FF
:1038000000127A0000093D0080B400AF024B1B6833
:103810001846BD4680BC70470000002080B500AF50
:10382000FFF7F2FF0246054B5B681B0A03F0070334
:103830000349CB5C22FA03F3184680BD0010024016
:103840005873000880B500AFFFF7DEFF0246054B56
:103850005B68DB0A03F007030349CB5C22FA03F33E
:10386000184680BD001002405873000880B485B02F
:1038700000AF78600A4B1B680A4AA2FB03235B0A6D
:103880007A6802FB03F3FB6000BFFB685A1EFA6014
:10389000002BF9D100BF00BF1437BD4680BC704774
:1038A00000000020D34D621080B582B000AF786078
:1038B0007B68002B01D1012341E07B6893F83D3008
:1038C000DBB2002B06D17B68002283F83C207868AD
:1038D000FEF79CF97B68022283F83D207B681A681A
:1038E0007B6804331946104600F0BAFA7B6801225F
:1038F00083F846207B68012283F83E207B68012202
:1039000083F83F207B68012283F840207B680122F6
:1039100083F841207B68012283F842207B680122E2
:1039200083F843207B68012283F844207B680122CE
:1039300083F845207B68012283F83D200023184648
:103940000837BD4680BD000080B485B000AF786008
:103950007B6893F83D30DBB2012B01D0012332E0CC
:103960007B68022283F83D207B681B68184A9342DB
:103970000ED07B681B68B3F1804F09D07B681B6851
:10398000144A934204D07B681B68134A934211D1B6
:103990007B681B689B6803F00703FB60FB68062BD2
:1039A00010D07B681B681A687B681B6842F00102B4
:1039B0001A6007E07B681B681A687B681B6842F026
:1039C00001021A60002318461437BD4680BC7047B8
:1039D000002C0140000400400008004080B485B085
:1039E00000AF78607B6893F83D30DBB2012B01D0EB
:1039F00001233AE07B68022283F83D207B681B6844
:103A0000DA687B681B6842F00102DA607B681B6839
:103A1000184A93420ED07B681B68B3F1804F09D0DF
:103A20007B681B68144A934204D07B681B68134A66
:103A3000934211D17B681B689B6803F00703FB600E
:103A4000FB68062B10D07B681B681A687B681B68B4
:103A500042F001021A6007E07B681B681A687B6805
:103A60001B6842F001021A60002318461437BD4655
:103A700080BC7047002C014000040040000800405A
:103A800080B582B000AF78607B681B681B6903F06B
:103A90000203022B22D17B681B68DB6803F0020360
:103AA000022B1BD17B681B686FF002021A617B68D6
:103AB00001221A777B681B689B6903F00303002BC4
:103AC00003D0786800F0B1F905E0786800F0A4F957
:103AD000786800F0B3F97B6800221A777B681B686E
:103AE0001B6903F00403042B22D17B681B68DB688D
:103AF00003F00403042B1BD17B681B686FF00402E6
:103B00001A617B6802221A777B681B689B6903F441
:103B10004073002B03D0786800F087F905E07868DF
:103B200000F07AF9786800F089F97B6800221A774A
:103B30007B681B681B6903F00803082B22D17B6894
:103B40001B68DB6803F00803082B1BD17B681B682C
:103B50006FF008021A617B6804221A777B681B6881
:103B6000DB6903F00303002B03D0786800F05DF9F4
:103B700005E0786800F050F9786800F05FF97B683C
:103B800000221A777B681B681B6903F01003102B57
:103B900022D17B681B68DB6803F01003102B1BD15C
:103BA0007B681B686FF010021A617B6808221A7725
:103BB0007B681B68DB6903F44073002B03D07868D3
:103BC00000F033F905E0786800F026F9786800F035
:103BD00035F97B6800221A777B681B681B6903F044
:103BE0000103012B0ED17B681B68DB6803F0010326
:103BF000012B07D17B681B686FF001021A6178689E
:103C0000FEF7A2F97B681B681B6903F08003802B19
:103C10000ED17B681B68DB6803F08003802B07D123
:103C20007B681B686FF080021A61786800F077FA91
:103C30007B681B681B6903F04003402B0ED17B6837
:103C40001B68DB6803F04003402B07D17B681B68CF
:103C50006FF040021A61786800F0F9F87B681B6821
:103C60001B6903F02003202B0ED17B681B68DB68E7
:103C700003F02003202B07D17B681B686FF0200224
:103C80001A61786800F042FA00BF0837BD4680BD6F
:103C900080B584B000AF786039607B6893F83C30C1
:103CA000012B01D10223B3E07B68012283F83C2081
:103CB0007B68022283F83D207B681B689B68FB6061
:103CC000FB6823F07703FB60FB6823F47F43FB6012
:103CD0007B681B68FA689A603B681B68B3F5005FF5
:103CE0003ED0B3F5005F00F28780B3F5805F00F04F
:103CF0008580B3F5805F7FD8702B1AD0702B7BD86E
:103D0000602B50D0602B77D8502B3CD0502B73D8E1
:103D1000402B58D0402B6FD8302B64D0302B6BD831
:103D2000202B60D0202B67D8002B5CD0102B5AD0D2
:103D300062E07B6818683B6899683B685A683B6832
:103D4000DB6800F066F97B681B689B68FB60FB68BA
:103D500043F07703FB607B681B68FA689A604EE06B
:103D60007B6818683B6899683B685A683B68DB6801
:103D700000F04FF97B681B689A687B681B6842F407
:103D800080429A603BE07B6818683B6859683B68F2
:103D9000DB681A4600F0C6F87B681B68502118469D
:103DA00000F01DF92BE07B6818683B6859683B6898
:103DB000DB681A4600F0E4F87B681B68602118464F
:103DC00000F00DF91BE07B6818683B6859683B6898
:103DD000DB681A4600F0A6F87B681B68402118468D
:103DE00000F0FDF80BE07B681A683B681B68194619
:103DF000104600F0F4F802E000BF00E000BF7B686E
:103E0000012283F83D207B68002283F83C200023B8
:103E100018461037BD4680BD80B483B000AF7860CF
:103E200000BF0C37BD4680BC704780B483B000AF84
:103E3000786000BF0C37BD4680BC704780B483B04B
:103E400000AF786000BF0C37BD4680BC704780B4BF
:103E500083B000AF786000BF0C37BD4680BC7047B0
:103E600080B485B000AF786039607B681B68FB6008
:103E70007B68294A93420BD07B68B3F1804F07D00F
:103E80007B68264A934203D07B68254A934208D137
:103E9000FB6823F07003FB603B685B68FA681343C0
:103EA000FB607B681C4A93420BD07B68B3F1804F68
:103EB00007D07B68194A934203D07B68184A934223
:103EC00008D1FB6823F44073FB603B68DB68FA6849
:103ED0001343FB60FB6823F080023B685B6913437C
:103EE000FB607B68FA681A603B689A687B68DA62F4
:103EF0003B681A687B689A627B68074A934203D1E1
:103F00003B681A697B681A637B6801225A6100BFAB
:103F10001437BD4680BC7047002C014000040040AF
:103F20000008004080B487B000AFF860B9607A60E4
:103F3000FB681B6A7B61FB681B6A23F00102FB685C
:103F40001A62FB689B693B613B6923F0F0033B61AC
:103F50007B681B013A6913433B617B6923F00A03C9
:103F60007B617A69BB6813437B61FB683A699A613C
:103F7000FB687A691A6200BF1C37BD4680BC704777
:103F800080B487B000AFF860B9607A60FB681B6AE4
:103F900023F01002FB681A62FB689B697B61FB6877
:103FA0001B6A3B617B6923F470437B617B681B0365
:103FB0007A6913437B613B6923F0A0033B61BB68D3
:103FC0001B013A6913433B61FB687A699A61FB689C
:103FD0003A691A6200BF1C37BD4680BC704780B486
:103FE00085B000AF786039607B689B68FB60FB68D8
:103FF00023F07003FB603A68FB68134343F0070348
:10400000FB607B68FA689A6000BF1437BD4680BCCD
:10401000704780B487B000AFF860B9607A603B60E9
:10402000FB689B687B617B6923F47F437B613B6812
:104030001A027B681A43BB6813437A6913437B6196
:10404000FB687A699A6000BF1C37BD4680BC704728
:1040500080B485B000AF786039607B6893F83C30FD
:10406000012B01D1022346E07B68012283F83C202A
:104070007B68022283F83D207B681B685B68FB60DD
:104080007B681B689B68BB60FB6823F07003FB6068
:104090003B681B68FA681343FB607B681B68FA681F
:1040A0005A607B681B68164A93420ED07B681B6877
:1040B000B3F1804F09D07B681B68124A934204D049
:1040C0007B681B68104A93420CD1BB6823F08003C5
:1040D000BB603B685B68BA681343BB607B681B6866
:1040E000BA689A607B68012283F83D207B680022D1
:1040F00083F83C20002318461437BD4680BC704727
:10410000002C0140000400400008004080B483B04F
:1041100000AF786000BF0C37BD4680BC704780B4EC
:1041200083B000AF786000BF0C37BD4680BC7047DD
:1041300080B582B000AF78607B68002B01D101238D
:104140003FE07B6893F83D30DBB2002B06D17B6803
:10415000002283F83C207868FDF790FD7B682422DC
:1041600083F83D207B681B68DA687B681B6822F453
:104170000052DA60786800F005F97B681B681A69FC
:104180007B681B6822F490421A617B681B685A693D
:104190007B681B6822F02A025A617B681B68DA6818
:1041A0007B681B6842F40052DA607B6800221A6464
:1041B0007B68202283F83D207B68202283F83E2004
:1041C000002318460837BD4680BD80B58AB002AFCF
:1041D000F860B9603B601346FB8000237B61FB689D
:1041E00093F83D30DBB2202B7CD1BB68002B02D092
:1041F000FB88002B01D1012375E0FB6893F83C306C
:10420000012B01D102236EE0FB68012283F83C20E0
:10421000FB6800221A64FB68212283F83D20FDF729
:104220009FFF7861FB68FA889A84FB68FA88DA84D1
:10423000FB689B68B3F5805F08D1FB681B69002BA6
:1042400004D10023FB61BB68BB6103E0BB68FB6179
:104250000023BB61FB68002283F83C202AE03B6816
:1042600000937B6900228021F86800F040F8034643
:10427000002B01D0032336E0FB69002B0BD1BB6977
:104280001B881A46FB681B68C2F308025A60BB69A8
:104290000233BB6107E0FB691A78FB681B685A6050
:1042A000FB690133FB61FB68DB8C9BB2013B9AB27B
:1042B000FB68DA84FB68DB8C9BB2002BCFD13B68B8
:1042C00000937B6900224021F86800F010F8034653
:1042D000002B01D0032306E0FB68202283F83D2059
:1042E000002300E0022318462037BD4680BD80B57C
:1042F00084B000AFF860B9603B601346FB712CE0FE
:10430000BB69B3F1FF3F28D0BB69002B07D0FDF795
:1043100027FF02463B68D31ABA699A421DD2FB684E
:104320001B68DA68FB681B6822F4D072DA60FB68ED
:104330001B685A69FB681B6822F001025A61FB681E
:10434000202283F83D20FB68202283F83E20FB6872
:10435000002283F83C2003230FE0FB681B681A68E7
:10436000BB681340BA689A420CBF01230023DBB23A
:104370001A46FB799A42C3D0002318461037BD462F
:1043800080BD000080B584B000AF78607B681B689A
:104390001B6923F440517B68DA687B681B680A4319
:1043A0001A617B689A687B681B691A437B685B6942
:1043B0001343BB607B681B68DB6823F4B05323F0B6
:1043C0000C037A681268B9680B43D3607B681B687A
:1043D0005B6923F440717B689A697B681B680A43B8
:1043E0005A617B681B682C4A934203D1FFF72AFA73
:1043F000F86002E0FFF712FAF860FA6813469B00D3
:1044000013449A001A447B685B689B00B2FBF3F389
:10441000224AA2FB03235B091901FA6813469B0099
:1044200013449A001A447B685B689B00B2FBF3F26A
:104430001A4BA3FB02035B09642000FB03F3D31AAE
:104440001B013233154AA2FB03235B0903F0F0037F
:104450001944FA6813469B0013449A001A447B6877
:104460005B689B00B2FBF3F20C4BA3FB02035B09FE
:10447000642000FB03F3D31A1B013233074AA2FB6B
:1044800003235B0903F00F027B681B680A449A60F0
:1044900000BF1037BD4680BD003801401F85EB517D
:1044A000014B1868704700BF1000002070B500264F
:1044B0000C4D0D4C641BA410A64209D102F004FF60
:1044C00000260A4D0A4C641BA410A64205D170BDFB
:1044D00055F8043B98470136EEE755F8043B9847FA
:1044E0000136F2E73C7700083C7700083C7700088B
:1044F00040770008024B0146186800F07BB800BF07
:1045000010000020024B0146186800F00BB800BFF5
:104510001000002003460244934200D1704703F884
:10452000011BF9E738B50546002940D051F8043C95
:104530000C1F002BB8BFE41801F0FCFB1C4A1368E9
:1045400033B9636014602846BDE8384001F0F8BB19
:10455000A34208D9206821188B4201BF19685B6803
:1045600009182160EDE71A465B680BB1A342FAD93E
:1045700011685018A0420BD12068014450188342A2
:104580001160E0D118685B68014411605360DAE79C
:1045900002D90C232B60D6E7206821188B4201BF7B
:1045A00019685B680918216063605460CBE738BD07
:1045B0004404002070B50E4E0C463168054611B912
:1045C00000F0ECFC30602146284600F0E7FC431C7C
:1045D0000AD0C41C24F00304A04207D0211A2846A4
:1045E00000F0DCFC013001D14FF0FF34204670BDFB
:1045F000480400202DE9F041CD1C25F003050835C5
:104600000C2D38BF0C25002D074601DBA94205D92A
:104610000C2300263B603046BDE8F0812E4E01F0B1
:1046200089FB33681C4634BB29463846FFF7C2FF76
:10463000431C04464DD134682646002E40D12368E1
:104640003146384604EB030800F0A8FC80453AD117
:10465000216803356D1A25F0030508350C2D38BF88
:104660000C2538462946FFF7A5FF01302BD02368DB
:104670002B4423600EE02268521B1ED40B2A16D94D
:104680006119A342256018BF5960636808BF316093
:1046900062514B60384604F10B0601F051FB26F0E5
:1046A0000706231DF21AB6D09B1BA350B3E762681E
:1046B000A3420CBF32605A60ECE723466468B2E75D
:1046C00034467668B9E70C2338463B6001F038FB86
:1046D000A1E72560DEE700BF44040020002B2DE9A0
:1046E000F0471F46BBBF03F100431F4600232D23A5
:1046F00088B01446129A109D1370149BDDF84CA0DC
:1047000023F02008B8F1460F05D0B8F1450F00D1CD
:104710000135022300E0032307AA049206AACDE98B
:1047200002A2CDE9003522463B4600F0F5FCB8F187
:10473000470F064602D1119BDB0722D5B8F1460F81
:1047400006EB050910D13378302B0AD10022002363
:1047500020463946FCF728F918B9C5F10105CAF811
:104760000050DAF8003099440022002320463946F0
:10477000FCF71AF908B1CDF81C903022079B4B4585
:1047800007D33046079B159A9B1B136008B0BDE802
:10479000F087591C07911A70F0E70346F7B5002916
:1047A00003F8022BB6BF2D222B2249420929427061
:1047B0002BDD0DF10704A4460A2791FBF7F60A4604
:1047C000A64607FB1615632A05F13005314604F1AC
:1047D000FF340EF8015CF0DC3031AEF1020504F874
:1047E000011C2946441C61450AD30DF10902A2EBC4
:1047F0000E02654588BF00221344181A03B0F0BDAD
:1048000011F8012B04F8012FEDE7302330318370CC
:10481000C170031DF1E700002DE9F04F91B00C4687
:10482000DDF8688016461F46054601F063FA036806
:1048300018460993FBF78CFC00230E93D8F8003040
:104840000A90073323F0070303F1080294F8189045
:10485000D4F800B0C8F80020D3E90023C4E912233B
:10486000D4E9128A2AF000430B934FF0FF324046FE
:104870009C4B0B99FCF7CAF870BB4FF0FF324046D7
:10488000984B0B99FCF7A4F830BB0022002340465C
:104890005146FCF793F810B12D2384F84330924B26
:1048A0009248B9F1470F94BF9846804603234FF0D2
:1048B000000A23612BF00403236033462146284677
:1048C00000970FAA00F0D4F9013040F090804FF02B
:1048D000FF3011B0BDE8F08F424653464046514686
:1048E000FCF794F848B1BAF1000FB8BF2D23804807
:1048F000B8BF84F843307F4BD3E7636809F0DF012A
:104900005A1C42D106236360002206920EAACDE90A
:1049100004920DAA4BF4806303920DF13302CDE9AA
:1049200001322360636842460093284653460B9148
:10493000FFF7D4FE0B99804647290D9908D1C81C72
:1049400002DB6368994240DDA9F102095FFA89F947
:10495000B9F1650F1FD84A46013904F150000D9195
:10496000FFF71BFF0E9A82461318012A236102DC0F
:104970002268D20701D5013323619DF83330002B23
:104980009BD02D2384F8433097E74729BCD1002BD7
:10499000BAD10123B7E7B9F1660F18D100296368CE
:1049A0000BDD216113B92268D00702D501330B4416
:1049B00023614FF0000AA165DFE713B92268D2072F
:1049C00001D50233F4E70123F2E74FF067090E9BAC
:1049D000994205DB23682161D807EAD54B1CE7E73C
:1049E0000029CCBF0122C1F102021344E0E7236891
:1049F0005A0507D42369424631462846B847013054
:104A00002BD164E7B9F1650F40F2DD80D4E91201E2
:104A100000220023FBF7C8FF002833D001233146D2
:104A20002846354AB84701303FF451AFDDE90D2340
:104A30009A4202DB2368D8070FD5DDE90923314606
:104A40002846B84701303FF442AF4FF0000804F168
:104A50001A090E9B013B434509DC23689B0700F1C3
:104A60000281E0680F9B9842B8BF184631E70123E6
:104A70004A4631462846B84701303FF428AF08F18E
:104A80000108E6E70D9B002B38DC01233146284660
:104A9000194AB84701303FF41AAFDDE90D2313433B
:104AA00002D12368D907D8D5DDE909233146284644
:104AB000B84701303FF40BAF4FF0000904F11A0A78
:104AC0000D9B5B424B4501DC0E9B94E70123524654
:104AD00031462846B84701303FF4F9AE09F10109E3
:104AE000EEE700BFFFFFEF7F647300086873000804
:104AF000707300086C730008747300080E9AA36D3D
:104B00009A42A8BF1A46002A914637DC4FF0000BA4
:104B100029EAE97904F11A02D4F858A0AAEB0903AA
:104B20005B4533DCDDE90D239A423BDB2368DA0782
:104B300038D40E9B0D99A3EB0A02A3EB0109914512
:104B4000A8BF9146B9F1000F34DC4FF0000829EA04
:104B5000E97904F11A0ADDE90D239B1AA3EB090395
:104B600043457FF77AAF0123524631462846B8477E
:104B700001303FF4ACAE08F10108ECE713463146D2
:104B800042462846B8470130C0D1A0E6012331464D
:104B900028460B92B84701303FF499AE0B9A0BF1BF
:104BA000010BB9E73146DDE909232846B847013052
:104BB000BFD18CE64B463146284608EB0A02B8477F
:104BC0000130C2D183E60E9A012A01DCDB0737D51A
:104BD0000123424631462846B84701303FF477AEBC
:104BE000DDE9092331462846B84701303FF46FAE6E
:104BF000D4E9120100220023FBF7D6FED8B90E9BA0
:104C000008F10102013B31462846B84701300ED178
:104C10005DE601234A4631462846B84701303FF455
:104C200056AE08F101080E9B013B4345F1DC5346AB
:104C300004F15002E0E64FF0000804F11A09F2E72F
:104C400001234246DFE701234A4631462846B8475A
:104C500001303FF43CAE08F10108E3680F995B1A9C
:104C60004345F0DCFDE64FF0000804F11909F4E7D4
:104C70002DE9F047164699468A680B690746934224
:104C8000B8BF1346336091F843200C46DDF820800E
:104C90000AB1013333602368990642BF3368023397
:104CA0003360256815F0060506D104F1190AE3689A
:104CB00032689B1AAB4228DC94F84320131E22680A
:104CC00018BF012392062DD44946384604F1430209
:104CD000C047013020D02368E56803F00603042BA9
:104CE00018BF002532684FF00006A36808BFAD1A50
:104CF000226908BF25EAE5759342C4BF9B1AED18E7
:104D00001A34B5421AD1002008E001235246494620
:104D10003846C047013003D14FF0FF30BDE8F0877F
:104D20000135C4E73020E11881F843005A1C94F89B
:104D300045102244023382F84310C5E7012322467E
:104D400049463846C0470130E6D00136D9E7000071
:104D50002DE9FF470F7E9146782F80460C469A46F4
:104D60000C9D01F1430207D8622F0AD8002F00F0F2
:104D7000D980582F00F0A48004F1420584F84270D5
:104D80003AE0A7F16303152BF6D801A151F823F0FF
:104D9000E94D0008FD4D0008794D0008794D0008E7
:104DA000794D0008794D0008FD4D0008794D000847
:104DB000794D0008794D0008794D00080B4F000827
:104DC0002D4E0008ED4E0008794D0008794D000881
:104DD0002D4F0008794D00082D4E0008794D000830
:104DE000794D0008F54E00082B681A1D1B682A60D3
:104DF00004F1420584F842300123A4E020682968C8
:104E0000060601F104030AD50E682B60002E03DAB2
:104E10002D23764284F843300A235E4819E00E6859
:104E200010F0400F2B6018BF36B2EFE72B682068F8
:104E3000191D2960010601D51E6802E04606FBD552
:104E40001E886F2F0CBF08230A235248002184F8C4
:104E500043106568002DA8BF2168A560A4BF21F09C
:104E6000040121600EB9002D4DD01546B6FBF3F1BB
:104E700003FB1167C75D05F8017D3746BB420E464F
:104E8000F4D9082B0BD12368DE0708D523696168A4
:104E90009942DEBF302305F8013C05F1FF35521B76
:104EA00022614B4621464046CDF800A003AAFFF7F9
:104EB000DFFE01304CD14FF0FF3004B0BDE8F08789
:104EC000344881F845702968236851F8046B2960DB
:104ED0001D0614D5DF0744BF43F0200323601EB92D
:104EE000236823F0200323601023AFE7236843F0F7
:104EF000200323607823284884F84530E3E75906E7
:104F000048BFB6B2E6E71546BBE72B682668181D12
:104F10006169286035061B6801D5196002E07006DA
:104F2000FBD51980002315462361BAE72B680021C1
:104F30001A1D2A601D686268284600F0DFFE08B16D
:104F4000401B606063682361002384F84330A8E756
:104F50002A46494640462369D0470130ABD02368F2
:104F60009B0713D4E068039B9842B8BF1846A4E798
:104F70000123324649464046D04701309BD0013597
:104F8000E36803995B1AAB42F2DCEBE7002504F11E
:104F90001906F5E7767300088773000838B5002313
:104FA000054D044608462B60FCF770FF431C02D1F8
:104FB0002B6803B1236038BD4C0400200EB46FF0A1
:104FC000004100B59CB01DAB029006900791049182
:104FD0000848094953F8042B0591006802A9019378
:104FE00001F0A6FA0022029B1A701CB05DF804EBD7
:104FF00003B07047100000200802FFFF2DE9F74FB3
:1050000003690C690746A342C0F28280013C00F1AB
:10501000140501F1140805EB8403019358F82430BA
:1050200055F8242001339A42B2FBF3F64FEA840B81
:1050300008EB840931D34FF0000E4046AC46F246EF
:1050400050F8042B93B206FB03E3120C4FEA134E05
:105050009BB206FB02E2AAEB0303DCF800A04FEAD6
:10506000124E1FFA8AFA5344DCF800A092B2C2EB47
:105070001A4202EB23429BB243EA024381454FEAC4
:10508000224A4CF8043BDBD255F80B302BB9019B7C
:10509000043B9D421A462FD33C61384601F0D4F8B8
:1050A000002825DB28464FF0000C013658F8041B79
:1050B000D0F800E08BB2ACEB03031FFA8EF213447E
:1050C0000A0CC2EB1E4202EB23429BB243EA0243AC
:1050D000C1454FEA224C40F8043BE7D255F8242062
:1050E00005EB840322B9043B9D421A460AD33C6176
:1050F000304603B0BDE8F08F1268043B002ACBD1E4
:10510000013CC6E71268043B002AF0D1013CEBE702
:105110000020EEE7000000002DE9F04F16461F4684
:10512000446A99B00546CDE90467DDF8948074B906
:105130001020FFF7DFF90246686220B9EA21A84B88
:10514000A84801F0F5FAC0E901440460C4606B6A44
:10515000196851B15A68012393404A608B60284610
:1051600000F034FE00226B6A1A603B1EAFBF0023C2
:10517000012223F000430593A8BFC8F80030DDF8F2
:105180001490994BB8BFC8F8002033EA090319D12D
:1051900042F20F73249A1360C9F31303334300F0F0
:1051A0007F85269B53B9914B22E0914B03930833A3
:1051B000269A1360039819B0BDE8F08F8B4B0393C8
:1051C0000333F5E7DDE90434CDE90C34DDE90C0106
:1051D00000220023FBF7E8FB804658B10123249A04
:1051E0001360269B002B00F0588582481860431EF0
:1051F0000393DFE716AB019317AB00932846DDE975
:105200000C2301F0C9F8C9F30A548346002C7FD05F
:10521000DDE90C010D9BA4F2FF34C3F3130343F04B
:105220007F5141F44011CDF84C800022724BFAF7C7
:105230009BFF65A3D3E90023FBF74EF964A3D3E9F1
:105240000023FAF793FF064620460F46FBF7DAF8ED
:1052500061A3D3E90023FBF73FF902460B46304632
:105260003946FAF783FF06460F46FBF7E5FB0022B7
:105270008246002330463946FBF7A0FB48B1504632
:10528000FBF7C0F832463B46FBF78EFB08B90AF144
:10529000FF3ABAF1160F58D8DDE90C01574B03EB72
:1052A000CA03D3E90023FBF789FB00284FD0002372
:1052B0000AF1FF3A0F93169B1C1B631E099349BF0B
:1052C000C4F1010300230693002354BF06930993FE
:1052D000BAF1000F3DDB099BCDF838A05344099388
:1052E00000230A93229B092B00F28C80052BC4BF5C
:1052F000043B2293229BC8BF0024A3F10203D8BF22
:105300000124032B00F28A80DFE803F02D4F4D5B70
:10531000DDE916431C4404F23243202BC3BFC3F122
:10532000400304F2124009FA03F3C3F12003C6BF9D
:1053300026FA00F0184306FA03F0FBF753F80123AE
:10534000A1F1F871013C13936FE70123B2E70F90CD
:10535000B1E7069BA3EB0A030693CAF100030A9385
:1053600000230E93BEE700230B93239B002B58DCF6
:105370004FF001094B46CDF82090CDF88C900022DB
:10538000686A4260042202F114069E4241684ED9C6
:10539000284600F0DBFC039000284CD102464FF475
:1053A000D571174BCCE60123DEE700230B93239B3B
:1053B0000AEB030909F10103012B0893B8BF01238C
:1053C000DDE70123F2E700BF61436F63A787D23FA8
:1053D000B3C8608B288AC63FFB799F501344D33FE4
:1053E000A5730008BC7300080000F07FA1730008DB
:1053F00098730008757300080000F83FB074000847
:1054000017740008012400230B9422934FF0FF39F6
:1054100000221223CDF820902392B0E701230B93B2
:10542000F4E7DDF88C904B46CDF82090A7E70131EA
:1054300041605200A7E76B6A039A1A60089B0E2B23
:1054400000F2A880002C00F0A580BAF1000F34DD36
:105450009A4A0AF00F0302EBC3031AF4807FD3E9E0
:105460000034CDE910344FEA2A1416D0DDE90C01DE
:10547000934B0327D3E90823FBF758F9CDE904013F
:1054800004F00F048E4E54B9DDE91023DDE9040168
:10549000FBF74CF9CDE9040129E00227F2E7E10727
:1054A00008D5DDE91001D6E90023FBF715F8CDE9B1
:1054B0001001013764100836E5E700F0A580DDE94A
:1054C0000C01CAF100047D4B04F00F0203EBC20390
:1054D000D3E90023FBF700F802270023CDE90401FC
:1054E000774E2411002C40F08480002BD2D10F9BEA
:1054F000002B00F08B80DDE90434CDE91034DDE9C8
:10550000100100226F4BFBF759FA00287ED0089B50
:10551000002B7BD0B9F1000F38DDDDE9100100224E
:10552000694BFAF7D9FF4C46CDE904010AF1FF387F
:1055300001373846FAF766FFDDE90423FAF7CCFFB6
:105540000022624BFAF712FEA1F15076CDE910016C
:105550001196002C5DD1DDE9040100225C4BFAF7C5
:1055600003FE02460B46CDE904233346109AFBF7AF
:1055700043FA002840F09C82DDE90401109A06F10C
:105580000043FBF71BFA002840F09082DDE90C3461
:10559000CDE90434179B002BC0F25281BAF10E0FF3
:1055A00000F34E81454B03EBCA03D3E90034CDE948
:1055B0000634239B002B80F2DB80089B002B00F33A
:1055C000D78040F07282DDE906010022404BFAF7F5
:1055D00083FFDDE90423FBF705FA089C2646002833
:1055E00040F048823123039F0AF1010A07F8013B8A
:1055F00044E2E20705D5D6E90023FAF76DFF01235F
:105600000137641008366DE7022770E7D046089C22
:105610008FE70399294B214412910B9903EBC403A3
:10562000DDE9106753E90223002955D000202949FC
:10563000FBF77CF83B463246FAF796FDCDE91001C0
:10564000039FDDE90401FBF7F7F90446FAF7DAFEF8
:1056500002460B46DDE90401FAF786FD02460B46D9
:105660003034CDE90423DDE9102307F8014BFBF7C3
:10567000A5F9002874D1DDE9042300201149FAF7C7
:1056800073FDDDE91023FBF799F9002840F0B7809E
:10569000129B9F423FF47AAFDDE9100100220A4BD2
:1056A000FAF71AFF0022CDE91001DDE90401064BEB
:1056B000FAF712FFCDE90401C3E700BFB074000898
:1056C000887400080000F03F0000244000001C40E7
:1056D000000014400000E03F30463946FAF7FCFE77
:1056E000129BCDE91001039C1493DDE90401FBF743
:1056F000A3F91590FAF786FE02460B46DDE9040190
:10570000FAF732FD159B0646303304F8013B129B35
:105710000F469C424FF0000224D1DDE91001B04B4E
:10572000FAF724FD02460B4630463946FBF764F98A
:10573000002863D1DDE910230020A949FAF714FD00
:1057400002460B4630463946FBF738F900283FF44D
:105750001DAF149F7B1E149317F8013C302BF8D01B
:10576000C2463BE09F4BFAF7B7FECDE90401BCE728
:10577000039FDDE90489DDE9062340464946FAF73F
:10578000D5FFFBF759F90446FAF73CFEDDE906239D
:10579000FAF7A2FE02460B4640464946FAF7E4FCF9
:1057A00004F1300607F8016B039EDDF820C0BE1B34
:1057B000B44502460B4636D1FAF7D8FCDDE906239C
:1057C00080468946FBF718F958BBDDE906234046B9
:1057D0004946FBF7E9F808B1E10722D428465946C3
:1057E00000F0F4FA00233B70249B0AF101001860DA
:1057F000269B002B3FF4DEAC1F60DBE427463B46D4
:105800001F4613F8012D392A07D1039A9A42F7D17E
:105810003022039908F101080A701A7801321A70CF
:105820009EE7D046EBE700226E4BFAF755FE0022CA
:10583000002380468946FBF7B7F800289BD0CDE7C8
:105840000B9A002A00F0D080229A012A00F3AE8041
:10585000139A002A00F0A68003F233430A9C069FA5
:10586000069A01211A440692099A28461A44099276
:1058700000F062FB0646002F0CDD099B002B09DDC2
:10588000BB42A8BF3B46069AFF1AD21A0692099A53
:10589000D31A09930A9BF3B10B9B002B00F0A8804D
:1058A000002C10DD31462246284600F003FC5A4603
:1058B00001460646284600F055FB804659462846D4
:1058C00000F084FAC3460A9B1A1B04D059462846A6
:1058D00000F0F0FB83460121284600F02DFB0E9BD3
:1058E0000446002B40F386801A460146284600F005
:1058F000E1FB229B0446012B7FDD4FF0000823696A
:1059000004EB8303186900F0C9FAC0F12000099B79
:10591000184410F01F0000F09280C0F12003042B07
:1059200040F38A80C0F11C00069B074403440693A1
:10593000099B03440993069B002B05DD59461A4633
:10594000284600F011FC8346099B002B05DD21460B
:105950001A46284600F008FC04460F9B002B70D026
:105960002146584600F070FC00286ADA00235946A8
:105970000A22284600F04CFA0B9B83460AF1FF3AB4
:10598000002B00F09481314600230A22284600F0C3
:105990003FFAB9F1000F064600F39380229B022BD9
:1059A00057DC8EE0169BC3F1360357E7089B5C1E5D
:1059B0000A9BA342B7BF0A9B1C1BE21A0E9BBEBFE9
:1059C0000A949B180E93089BB8BF0024002BBBBF02
:1059D000069B089A069F9F1AACBF089B00233FE7CF
:1059E0000000E03F000024400A9C069F0B9E42E717
:1059F0000A9A6BE7229B012B19DC049BBBB9059B20
:105A0000C3F313039BB9059B23F000431B0D1B0538
:105A100083B14FF00108069B01330693099B0133C4
:105A200009930E9B002B7FF46AAF01206FE74FF0C4
:105A30000008F6E79846F4E73FF47DAF18461C30BF
:105A400072E7089B002B36DC229B022B33DDDDF84E
:105A50002090B9F1000F0DD121464B460522284672
:105A600000F0D6F901460446584600F0EDFB002848
:105A70003FF7B8AD239B039F6FEA030A4FF000087E
:105A80002146284600F0A2F9002E3FF4A7AEB8F157
:105A9000000F05D0B04503D04146284600F096F9E6
:105AA0003146284600F092F998E600242646E1E7C0
:105AB000C246264696E50B9BDDF82090002B00F0B1
:105AC000FD80002F05DD31463A46284600F04CFBAC
:105AD0000646B8F1000F5CD02846716800F036F930
