:020000040800F2
:1000000000500020751E00089D1A0008A31A000861
:10001000A91A0008AF1A0008B51A0008000000006D
:10002000000000000000000000000000BB1A0008F3
:10003000C71A000800000000D31A0008DF1A0008E1
:10004000BD1E0008BD1E0008BD1E0008BD1E000824
:10005000BD1E0008BD1E0008BD1E0008BD1E000814
:10006000BD1E0008BD1E0008BD1E0008ED1A0008D8
:10007000BD1E0008BD1E0008011B0008151B00085E
:10008000BD1E0008BD1E0008291B0008BD1E00087B
:10009000BD1E0008BD1E0008BD1E0008BD1E0008D4
:1000A000BD1E0008BD1E0008BD1E0008BD1E0008C4
:1000B0003D1B0008BD1E0008BD1E0008BD1E000837
:1000C000BD1E0008BD1E0008BD1E0008BD1E0008A4
:1000D000BD1E0008511B0008BD1E0008BD1E000803
:1000E000BD1E0008BD1E0008BD1E00080000000067
:1000F0000000000000000000000000000000000000
:0C01000000000000000000005FF808F1A3
:1001100010B5054C237833B9044B13B10448AFF341
:1001200000800123237010BD0802002000000000A1
:100130005086000808B5034B1BB103490348AFF3D1
:10014000008008BD000000000C020020508600085E
:10015000034613F8012B002AFBD1181A0138704707
:1001600081F0004102E000BF83F0004330B54FEA68
:1001700041044FEA430594EA050F08BF90EA020FD5
:100180001FBF54EA000C55EA020C7FEA645C7FEA68
:10019000655C00F0E2804FEA5454D4EB5555B8BF8B
:1001A0006D420CDD2C4480EA020281EA030382EAFC
:1001B000000083EA010180EA020281EA0303362D8E
:1001C00088BF30BD11F0004F4FEA01314FF4801C61
:1001D0004CEA113102D0404261EB410113F0004F73
:1001E0004FEA03334CEA133302D0524263EB43032A
:1001F00094EA050F00F0A780A4F10104D5F1200EC8
:100200000DDB02FA0EFC22FA05F2801841F1000122
:1002100003FA0EF2801843FA05F359410EE0A5F1F6
:1002200020050EF1200E012A03FA0EFC28BF4CF027
:10023000020C43FA05F3C01851EBE37101F00045DD
:1002400007D54FF0000EDCF1000C7EEB00006EEBEA
:100250000101B1F5801F1BD3B1F5001F0CD3490874
:100260005FEA30004FEA3C0C04F101044FEA4452CB
:1002700012F5800F80F09A80BCF1004F08BF5FEA52
:10028000500C50F1000041EB045141EA050130BD32
:100290005FEA4C0C404141EB0101013C28BFB1F544
:1002A000801FE9D291F0000F04BF01460020B1FA8F
:1002B00081F308BF2033A3F10B03B3F120020CDA62
:1002C0000C3208DD02F1140CC2F10C0201FA0CF040
:1002D00021FA02F10CE002F11402D8BFC2F1200CA5
:1002E00001FA02F120FA0CFCDCBF41EA0C0190405B
:1002F000E41AA2BF01EB0451294330BD6FEA0404A4
:100300001F3C1CDA0C340EDC04F11404C4F120028E
:1003100020FA04F001FA02F340EA030021FA04F3A0
:1003200045EA030130BDC4F10C04C4F1200220FAF7
:1003300002F001FA04F340EA0300294630BD21FA35
:1003400004F0294630BD94F0000F83F4801306BFFB
:1003500081F480110134013D4EE77FEA645C18BFEF
:100360007FEA655C29D094EA050F08BF90EA020F86
:1003700005D054EA000C04BF1946104630BD91EA7E
:10038000030F1EBF0021002030BD5FEA545C05D181
:100390004000494128BF41F0004130BD14F58004C0
:1003A0003CBF01F5801130BD01F0004545F0FE4134
:1003B00041F470014FF0000030BD7FEA645C1ABF69
:1003C000194610467FEA655C1CBF0B46024650EAA0
:1003D000013406BF52EA033591EA030F41F40021CC
:1003E00030BD00BF90F0000F04BF0021704730B552
:1003F0004FF4806404F132044FF000054FF0000127
:1004000050E700BF90F0000F04BF0021704730B5E7
:100410004FF4806404F1320410F0004548BF4042BC
:100420004FF000013EE700BF42004FEAE2014FEA11
:1004300031014FEA02701FBF12F07F4393F07F4FEC
:1004400081F06051704732F07F4208BF704793F0EF
:100450007F4F04BF41F40021704730B54FF4607402
:1004600001F0004521F000411CE700BF50EA010205
:1004700008BF704730B54FF000050AE050EA0102AE
:1004800008BF704730B511F0004502D5404261EB1E
:1004900041014FF4806404F132045FEA915C3FF45F
:1004A000D8AE4FF003025FEADC0C18BF03325FEAFC
:1004B000DC0C18BF033202EBDC02C2F1200300FAAD
:1004C00003FC20FA02F001FA03FE40EA0E0021FAD2
:1004D00002F11444BDE600BF70B54FF0FF0C4CF4C0
:1004E000E06C1CEA11541DBF1CEA135594EA0C0F72
:1004F00095EA0C0F00F0DEF82C4481EA030621EAAD
:100500004C5123EA4C5350EA013518BF52EA0335E7
:1005100041F4801143F4801338D0A0FB02CE4FF099
:100520000005E1FB02E506F00042E0FB03E54FF0C9
:100530000006E1FB03569CF0000F18BF4EF0010EC1
:10054000A4F1FF04B6F5007F64F5407404D25FEABD
:100550004E0E6D4146EB060642EAC62141EA555170
:100560004FEAC52040EA5E504FEACE2EB4F1FD0CB2
:1005700088BFBCF5E06F1ED8BEF1004F08BF5FEA30
:10058000500E50F1000041EB045170BD06F00046E2
:1005900046EA010140EA020081EA0301B4EB5C048F
:1005A000C2BFD4EB0C0541EA045170BD41F4801187
:1005B0004FF0000E013C00F3AB8014F1360FDEBFAC
:1005C000002001F0004170BDC4F10004203C35DA88
:1005D0000C341BDC04F11404C4F1200500FA05F30B
:1005E00020FA04F001FA05F240EA020001F00042AC
:1005F00021F0004110EBD37021FA04F642EB060122
:100600005EEA430E08BF20EAD37070BDC4F10C044B
:10061000C4F1200500FA04F320FA05F001FA04F20F
:1006200040EA020001F0004110EBD37041F10001FB
:100630005EEA430E08BF20EAD37070BDC4F1200506
:1006400000FA05F24EEA020E20FA04F301FA05F26E
:1006500043EA020321FA04F001F0004121FA04F216
:1006600020EA020000EBD3705EEA430E08BF20EAE6
:10067000D37070BD94F0000F0FD101F00046400020
:1006800041EB010111F4801F08BF013CF7D041EAA2
:10069000060195F0000F18BF704703F000465200A6
:1006A00043EB030313F4801F08BF013DF7D043EA77
:1006B0000603704794EA0C0F0CEA135518BF95EA2D
:1006C0000C0F0CD050EA410618BF52EA4306D1D1B4
:1006D00081EA030101F000414FF0000070BD50EAD3
:1006E000410606BF1046194652EA430619D094EA5D
:1006F0000C0F02D150EA013613D195EA0C0F05D147
:1007000052EA03361CBF104619460AD181EA03019A
:1007100001F0004141F0FE4141F470014FF0000052
:1007200070BD41F0FE4141F4780170BD70B54FF0ED
:10073000FF0C4CF4E06C1CEA11541DBF1CEA13556D
:1007400094EA0C0F95EA0C0F00F0A7F8A4EB05044F
:1007500081EA030E52EA03354FEA013100F0888046
:100760004FEA03334FF0805545EA131343EA12630F
:100770004FEA022245EA111545EA10654FEA0026C4
:100780000EF000419D4208BF964244F1FD0404F57D
:10079000407402D25B084FEA3202B61A65EB0305D9
:1007A0005B084FEA32024FF480104FF4002CB6EB96
:1007B000020E75EB030E22BFB61A754640EA0C0016
:1007C0005B084FEA3202B6EB020E75EB030E22BF56
:1007D000B61A754640EA5C005B084FEA3202B6EB97
:1007E000020E75EB030E22BFB61A754640EA9C0056
:1007F0005B084FEA3202B6EB020E75EB030E22BF26
:10080000B61A754640EADC0055EA060E18D04FEAE3
:10081000051545EA16754FEA06164FEAC30343EA83
:1008200052734FEAC2025FEA1C1CC0D111F4801F50
:100830000BD141EA00014FF000004FF0004CB6E749
:1008400011F4801F04BF01430020B4F1FD0C88BFE8
:10085000BCF5E06F3FF6AFAEB5EB030C04BFB6EBF3
:10086000020C5FEA500C50F1000041EB045170BDE6
:100870000EF0004E4EEA113114EB5C04C2BFD4EB13
:100880000C0541EA045170BD41F480114FF0000E97
:10089000013C90E645EA060E8DE60CEA135594EA13
:1008A0000C0F08BF95EA0C0F3FF43BAF94EA0C0F16
:1008B0000AD150EA01347FF434AF95EA0C0F7FF48B
:1008C00025AF104619462CE795EA0C0F06D152EADF
:1008D00003353FF4FDAE1046194622E750EA4106C3
:1008E00018BF52EA43067FF4C5AE50EA41047FF4D4
:1008F0000DAF52EA43057FF4EBAE12E74FF0FF3C39
:1009000006E000BF4FF0010C02E000BF4FF0010C09
:100910004DF804CD4FEA410C7FEA6C5C4FEA430C82
:1009200018BF7FEA6C5C1BD001B050EA410C0CBFD1
:1009300052EA430C91EA030F02BF90EA020F002033
:10094000704710F1000F91EA030F58BF994208BF9A
:1009500090422CBFD8176FEAE37040F00100704757
:100960004FEA410C7FEA6C5C02D150EA013C07D1AE
:100970004FEA430C7FEA6C5CD6D152EA033CD3D0F9
:100980005DF8040B704700BF8446104662468C46F3
:100990001946634600E000BF01B5FFF7B7FF002826
:1009A00048BF10F1000F01BD4DF808EDFFF7F4FF4F
:1009B0000CBF012000205DF808FB00BF4DF808EDDA
:1009C000FFF7EAFF34BF012000205DF808FB00BFFD
:1009D0004DF808EDFFF7E0FF94BF012000205DF81F
:1009E00008FB00BF4DF808EDFFF7CEFF94BF0120D4
:1009F00000205DF808FB00BF4DF808EDFFF7C4FFCD
:100A000034BF012000205DF808FB00BF4FEA410C15
:100A10007FEA6C5C02D150EA013C0AD14FEA430CF8
:100A20007FEA6C5C02D152EA033C02D14FF0000035
:100A300070474FF0010070474FEA410212F5001273
:100A400015D211D56FF47873B3EB625212D94FEA15
:100A5000C12343F0004343EA505311F0004F23FAFF
:100A600002F018BF404270474FF00000704750EA54
:100A7000013005D111F0004008BF6FF00040704711
:100A80004FF00000704700BF80B586B000AF7860BF
:100A900007F1080300221A605A609A60DA607B68E6
:100AA0009B88BB600123FB6001233B6102237B61C8
:100AB0007B681B6807F108021146184602F0D2FA5B
:100AC00000BF1837BD4680BD80B582B000AF7860EA
:100AD0000B46FB707B6818687B689B88FA78194620
:100AE00002F044FC00BF0837BD4680BD80B584B02D
:100AF00000AFF860B9603B601346FB80FB68BA68E2
:100B00001A60FB68FA889A80FB683A689A60FB680A
:100B10004FF00002DA60FB68DA68FB681A61F86877
:100B2000FFF7B2FF0121F868FFF7CEFF00BF1037D3
:100B3000BD4680BD80B483B000AF7860024B1846DC
:100B40000C37BD4680BC70473333F34180B483B06B
:100B500000AF7860024B18460C37BD4680BC70472A
:100B60009A9949422DE9B04F9AB012AF304B5B6869
:100B70001846FFF759FC82468B462D4B9B6818465A
:100B8000FFF752FCC7E90601294BDB681846FFF75F
:100B90004BFCC7E90401264B1B691846FFF744FCD0
:100BA000C7E90201224B5B691846FFF73DFCC7E924
:100BB00000011F4B9B691846FFF736FC80468946AB
:100BC0001B4BDB691846FFF72FFC04460D46184BFC
:100BD0001B6A1846FFF728FC154B9B8C1A46144BD2
:100BE000DB8C11931092CDE90E01CDE90C45CDE9D6
:100BF0000A89D7E90034CDE90834D7E90234CDE9D0
:100C00000634D7E90434CDE90434D7E90634CDE914
:100C10000234CDE900AB01220649074805F094FBF8
:100C20000346DBB218462037BD46BDE8B08F00BF93
:100C300000000020688600082802002080B400AF71
:100C4000034B00221A7000BFBD4680BC704700BF36
:100C50002402002080B500AF394B1B78032B68D8E5
:100C600001A252F823F000BF790C0008810C0008A3
:100C7000890C0008130D0008314B01221A705CE04A
:100C80002F4B02221A7058E02E4A0021002000F05B
:100C9000FFF92D48FFF74EFF03462C4A53602A48C0
:100CA000FFF754FF0346294A93602948FFF742FFA4
:100CB0000346264AD3602648FFF748FF0346234AE7
:100CC00013612448FFF736FF0346204A5361214849
:100CD000FFF73CFF03461D4A93611F48FFF72AFFB9
:100CE00003461A4AD3611C48FFF730FF0346174AF0
:100CF000136200F04BF803461A46144B9A8400F036
:100D00004FF803461A46114BDA840D4B03221A7032
:100D100013E0124A0021002000F0BAF9FFF722FF89
:100D2000034619460E4801F085F8054B01221A705A
:100D300003E0034B00221A7000BF00BF80BD00BF5C
:100D400024020020F8860008F002002000000020A5
:100D500004030020180300202C030020048700084F
:100D60002802002080B582B000AF7860054A7B6819
:100D7000136002220449786801F000FA00BF0837C6
:100D8000BD4680BD440300204803002080B400AF6E
:100D9000024B5B881846BD4680BC70474803002064
:100DA00080B400AF024B1B881846BD4680BC70471C
:100DB0004803002080B582B000AF0346FB80FB886B
:100DC000184601F0DFF800BF0837BD4680BD0000BF
:100DD00080B586B002AF03460A46FB711346BB716D
:100DE000FB7923F00F03FB73FB791B01BB731C4BD7
:100DF000DB7A002B07D0FB7B43F00803FB73BB7B44
:100E000043F00803BB73BB79012B07D1FB7B43F095
:100E10000103FB73BB7B43F00103BB73FB7B43F01C
:100E20000403DBB23B72FB7B7B72BB7B43F00403AE
:100E3000DBB2BB72BB7BFB72094B1868084B1B799A
:100E40009BB25B0099B207F108024FF47A730093EA
:100E5000042302F001FC00BF1037BD4680BD00BF77
:100E60005003002080B584B000AF7860084611467A
:100E70001A460346FB700B46BB7013467B704A4A0A
:100E80007B681360484AFB781371474A7B7853713B
:100E9000454ABB789371444B28221A72424B062272
:100EA000DA71414B0C225A723F4B14229A723E4B1C
:100EB0000822DA723220FFF77DFF3C4B1B68002BC3
:100EC00004D03A4B1B68184604F0E2FCBB787A78F1
:100ED00002FB03F3DB00184604F0D2FC03461A467B
:100EE000324B1A600023FB7308E0304B1A68FB7B1F
:100EF000134420221A70FB7B0133FB73FA7B2A4BCD
:100F00009B791946284B5B7901FB03F39A42ECDB92
:100F100000213320FFF75CFF00213320FFF758FF4B
:100F20000520FFF747FF00213220FFF751FF052082
:100F3000FFF740FF00212020FFF74AFF0520FFF7C1
:100F400039FF194BDB7900211846FFF741FF0120DB
:100F5000FFF730FF144B5B7A00211846FFF738FF8C
:100F60000120FFF727FF104B9B7A00211846FFF75F
:100F70002FFF0120FFF71EFF0B4B1B7A00211846A5
:100F8000FFF726FF0120FFF715FF00210120FFF7E3
:100F90001FFF0120FFF70EFF00210220FFF718FFBF
:100FA00000BF1037BD4680BD500300204C03002019
:100FB00080B584B000AF03460A46FB711346BB718F
:100FC0000023FB731D4B9A79FB79B3FBF2F101FB14
:100FD00002F29B1AFB71194B5A79BB79B3FBF2F100
:100FE00001FB02F29B1ABB71FB79032B19D801A2FA
:100FF00052F823F0051000080B1000081310000829
:101000001B100008BB79FB730BE0BB794033FB730B
:1010100007E0BB791433FB7303E0BB795433FB73F4
:1010200000BFFB7B63F07F03DBB200211846FFF7B4
:10103000CFFE00BF1037BD4680BD00BF500300206B
:1010400080B483B000AF0346FB710D4B1B680D4AA3
:10105000127811460C4A527901FB02F20B490978C9
:101060000A441344FA791A70084B1B780133DAB238
:10107000064B1A7000BF0C37BD4680BC704700BFDE
:101080004C0300205D030020500300205C0300207F
:1010900080B582B000AF03463A60FB710B46BB716E
:1010A000134B9A79FB79B3FBF2F101FB02F29B1A25
:1010B000DAB2104B1A700E4B5A79BB79B3FBF2F1CE
:1010C00001FB02F29B1ADAB20B4B1A7006E03B6886
:1010D0005A1C3A601B781846FFF7B2FF3B681B7832
:1010E000002BF4D100BF00BF0837BD4680BD00BF54
:1010F000500300205D0300205C03002080B483B017
:1011000000AF0023FB7108E00C4B1A68FB79134415
:1011100020221A70FB790133FB71FA79084B9B7915
:101120001946074B5B7901FB03F39A42ECDB00BFE6
:1011300000BF0C37BD4680BC704700BF4C03002089
:101140005003002080B582B000AF0023FB7121E086
:10115000FB7900211846FFF72BFF0023BB7111E03C
:10116000114B1B68FA791149497902FB01F1BA79EF
:101170000A4413441B7801211846FFF729FEBB7966
:101180000133BB71094B5B79BA799A42E8D3FB7999
:101190000133FB71054B9B79FA799A42D8D300BF92
:1011A00000BF0837BD4680BD4C030020500300201F
:1011B00080B500AF00F084FE00F074F800F03AFA59
:1011C00000F00AFA00F044F900F08EF900F0C4F8DB
:1011D00000F010F900F0D6F9264803F0ADFA2648E1
:1011E00003F060FA234800F0B9FD40F6B83000F093
:1011F000D5FD2248FFF7B6FD1F4B082220492148A4
:10120000FFF774FC1C4B10221D491F48FFF76EFCB2
:10121000194B20221A491D48FFF768FC164B402243
:1012200017491B48FFF762FC1A4800F0F5FD102330
:10123000022227211848FFF715FEFFF7FFFC00F0F8
:10124000CFFD0346002BFAD0144B1B88042B05D985
:10125000124B1B88053B9AB2104B1A80FFF74EFFCA
:10126000FFF7F8FC4FF400510D4802F097F8FFF734
:1012700069FFE4E7280400207004002060030020D8
:1012800000080140F00200200403002018030020A1
:101290002C030020B8040020D403002040030020C9
:1012A0000010014080B594B000AF07F12803282258
:1012B0000021184604F0F4FA07F1140300221A6022
:1012C0005A609A60DA601A613B1D00221A605A6007
:1012D0009A60DA600123BB624FF48033FB62002323
:1012E0003B630123BB6302237B644FF48033BB6405
:1012F0000023FB6407F12803184602F0B3FC034601
:10130000002B01D000F002FA0F237B610223BB61A6
:101310000023FB614FF480633B6200237B6207F193
:1013200014030021184602F01FFF0346002B01D0D2
:1013300000F0ECF902237B604FF40043FB603B1D9F
:10134000184603F0A9F80346002B01D000F0DEF99F
:1013500000BF5037BD4680BD80B584B000AF3B1D97
:1013600000221A605A609A60204B214A1A601F4B73
:101370004FF480729A601D4B00221A731B4B00229F
:101380001A751A4B4FF46022DA61184B00225A602A
:10139000164B02221A61154800F018FE0346002B76
:1013A00001D000F0B3F900237B600123BB60072369
:1013B000FB603B1D19460D4801F0A6F80346002BC3
:1013C00001D000F0A3F901237B600223BB603B1D29
:1013D0001946064801F098F80346002B01D000F0AA
:1013E00095F900BF1037BD4680BD00BF60030020E7
:1013F0000024014080B500AF124B134A1A60114B14
:10140000124A5A600F4B00229A600E4B0022DA609B
:101410000C4B4FF480421A610A4B00225A61094B6F
:1014200000229A61074B0022DA61064B00221A6201
:10143000044801F0CDFF0346002B01D000F066F90F
:1014400000BF80BDD403002000540040A0860100EE
:1014500080B586B000AF07F1080300221A605A6019
:101460009A60DA603B4600221A605A601D4B4FF0CA
:1014700080421A601B4B43F67F625A60194B002270
:101480009A60184B3122DA60164B00221A61154B14
:1014900000229A61134803F0B5F80346002B01D0EF
:1014A00000F034F94FF48053BB6007F1080319468C
:1014B0000C4803F09BFA0346002B01D000F026F9FC
:1014C00000233B6000237B603B461946054803F040
:1014D0006DFC0346002B01D000F018F900BF18374F
:1014E000BD4680BD2804002080B586B000AF07F15E
:1014F000080300221A605A609A60DA603B460022B4
:101500001A605A601D4B1E4A1A601C4B0F225A600B
:101510001A4B00229A60194B4FF6FE72DA60174B95
:1015200000221A61154B00229A61144803F06AF8F0
:101530000346002B01D000F0E9F84FF48053BB6064
:1015400007F1080319460D4803F050FA0346002B33
:1015500001D000F0DBF800233B6000237B603B46BA
:101560001946064803F022FC0346002B01D000F088
:10157000CDF800BF1837BD4680BD00BF7004002005
:101580000004004080B500AF114B124A1A60104BA6
:101590004FF416525A600E4B00229A600C4B0022F8
:1015A000DA600B4B00221A61094B0C225A61084B7E
:1015B00000229A61064B0022DA61054803F066FCBE
:1015C0000346002B01D000F0A1F800BF80BD00BF92
:1015D000B80400200038014080B582B000AF144B41
:1015E0005B69134A43F001035361114B5B6903F0DC
:1015F00001037B607B68002200210B2001F05DFA73
:101600000B2001F076FA002200210E2001F055FA9D
:101610000E2001F06EFA002200210F2001F04DFA99
:101620000F2001F066FA00BF0837BD4680BD00BF3D
:101630000010024080B588B000AF07F1100300220F
:101640001A605A609A60DA602D4B9B692C4A43F00D
:10165000100393612A4B9B6903F01003FB60FB6846
:10166000274B9B69264A43F020039361244B9B69D7
:1016700003F02003BB60BB68214B9B69204A43F009
:10168000040393611E4B9B6903F004037B607B683A
:101690001B4B9B691A4A43F008039361184B9B69E3
:1016A00003F008033B603B6800224FF400511548EB
:1016B00001F05CFE00227821134801F057FE4FF440
:1016C00000533B6101237B610123BB610223FB616A
:1016D00007F1100319460B4801F0C4FC78233B6165
:1016E00001237B610123BB610223FB6107F110032E
:1016F0001946054801F0B6FC00BF2037BD4680BD45
:1017000000100240001001400008014080B400AF0A
:1017100072B600BFFEE7000080B485B000AF154B85
:101720009B69144A43F001039361124B9B6903F0D8
:101730000103BB60BB680F4BDB690E4A43F080536B
:10174000D3610C4BDB6903F080537B607B680A4BF1
:101750005B68FB60FB6823F0E063FB60FB6843F0C1
:101760000073FB60044AFB68536000BF1437BD463A
:1017700080BC7047001002400000014080B588B076
:1017800000AF786007F1100300221A605A609A6077
:10179000DA607B681B682C4A934251D12B4B9B69C2
:1017A0002A4A43F400739361284B9B6903F4007346
:1017B000FB60FB68254B9B69244A43F0040393615B
:1017C000224B9B6903F00403BB60BB6803233B61AE
:1017D00003237B6107F1100319461D4801F042FC09
:1017E0001C4B1D4A1A601B4B00225A60194B0022E9
:1017F0009A60184B8022DA60164B4FF480721A619F
:10180000144B4FF480625A61124B20229A61114BA3
:101810000022DA610F4801F087F90346002B01D05E
:10182000FFF774FF7B680B4A1A620A4A7B685362AF
:1018300000220021122001F040F9122001F059F994
:1018400000BF2037BD4680BD00240140001002408B
:1018500000080140900300200800024080B588B0D5
:1018600000AF786007F1100300221A605A609A6096
:10187000DA607B681B68154A934223D1144B9B693D
:10188000134A43F008039361114B9B6903F008036B
:10189000FB60FB68C0233B6112237B610323FB6178
:1018A00007F1100319460B4801F0DCFB084BDB691C
:1018B000074A43F40013D361054BDB6903F40013BB
:1018C000BB60BB6800BF2037BD4680BD00540040F0
:1018D00000100240000C014080B584B000AF786079
:1018E0007B681B68B3F1804F14D1154BDB69144A38
:1018F00043F00103D361124BDB6903F00103FB608A
:10190000FB68002200211C2001F0D7F81C2001F008
:10191000F0F810E07B681B680A4A93420BD1084B31
:10192000DB69074A43F00203D361054BDB6903F02F
:101930000203BB60BB6800BF1037BD4680BD00BF5F
:10194000001002400004004080B588B000AF78600D
:1019500007F1100300221A605A609A60DA607B680F
:101960001B68474A934240F08680464B9B69454A34
:1019700043F480439361434B9B6903F48043FB60D2
:10198000FB68404B9B693F4A43F0040393613D4B26
:101990009B6903F00403BB60BB684FF400733B61B9
:1019A00002237B610323FB6107F1100319463648CC
:1019B00001F058FB4FF480633B6100237B610023FF
:1019C000BB6107F1100319462F4801F04BFB2F4B69
:1019D0002F4A1A602D4B00225A602C4B00229A602D
:1019E0002A4B8022DA60294B00221A61274B002201
:1019F0005A61264B00229A61244B0022DA61234867
:101A000001F092F80346002B01D0FFF77FFE7B68C0
:101A10001E4A9A631D4A7B6853621E4B1E4A1A6017
:101A20001C4B10225A601B4B00229A60194B8022DB
:101A3000DA60184B00221A61164B00225A61154BCE
:101A400000229A61134B0022DA61124801F06CF80F
:101A50000346002B01D0FFF759FE7B680D4A5A63FD
:101A60000C4A7B68536200220021252001F025F8F2
:101A7000252001F03EF800BF2037BD4680BD00BFE5
:101A8000003801400010024000080140FC04002022
:101A900058000240400500204400024080B400AFDE
:101AA000FEE780B400AFFEE780B400AFFEE780B48D
:101AB00000AFFEE780B400AFFEE780B400AF00BF28
:101AC000BD4680BC704780B400AF00BFBD4680BC3F
:101AD000704780B400AF00BFBD4680BC704780B582
:101AE00000AF00F033FA00BF80BD000080B500AF4A
:101AF000024801F083F900BF80BD00BF90030020C1
:101B000080B500AF024801F079F900BF80BD00BF89
:101B10004005002080B500AF024801F06FF900BF1A
:101B200080BD00BFFC04002080B500AF024800F07B
:101B300003FC00BF80BD00BF6003002080B500AF84
:101B4000024802F04BFE00BF80BD00BF2804002009
:101B500080B500AF024803F079FA00BF80BD00BF36
:101B6000B804002080B400AF01231846BD4680BCF5
:101B7000704780B582B000AF7860396003F056FEE0
:101B8000034616221A604FF0FF3318460837BD4649
:101B900080BD80B582B000AF78604FF0FF317868CB
:101BA000FFF7E7FFFEE780B586B000AFF860B960E9
:101BB0007A6000237B610AE0AFF300800146BB68D6
:101BC0005A1CBA60CAB21A707B6901337B617A69A8
:101BD0007B689A42F0DB7B6818461837BD4680BDAB
:101BE00080B586B000AFF860B9607A6000237B6191
:101BF00009E0BB685A1CBA601B781846AFF3008036
:101C00007B6901337B617A697B689A42F1DB7B688F
:101C100018461837BD4680BD80B483B000AF7860E9
:101C20004FF0FF3318460C37BD4680BC704780B478
:101C300083B000AF786039603B684FF400525A605F
:101C4000002318460C37BD4680BC704780B483B073
:101C500000AF7860012318460C37BD4680BC704742
:101C600080B485B000AFF860B9607A600023184690
:101C70001437BD4680BC704780B586B000AF786031
:101C8000144A154BD31A7B617B693B61134B1B686C
:101C9000002B02D1114B124A1A60104B1A687B6854
:101CA00013443A699A4207D203F0C0FD03460C225E
:101CB0001A604FF0FF3309E0084B1B68FB60074BCD
:101CC0001A687B681344054A1360FB681846183786
:101CD000BD4680BD005000200004000084050020A7
:101CE000A805002080B400AF00BFBD4680BC70478F
:101CF00080B400AF0C4B1B78002B10D00A4B1B7824
:101D0000013BDAB2084B1A70074B1B78002B06D147
:101D1000064B1A78044B1A70054B01221A7000BF4B
:101D2000BD4680BC704700BF8D0500202D000020FF
:101D30008C05002080B582B000AF78607B681A689F
:101D4000054B1B681B689A4201D1FFF7D1FF00BF0A
:101D50000837BD4680BD00BF8805002080B582B031
:101D600000AF7860094A7B681360094B1A78094B09
:101D70001A70094B00221A70044B1B68184602F0B7
:101D8000DBFC00BF0837BD4680BD00BF88050020D2
:101D90002D0000208D0500208C05002080B483B02C
:101DA00000AF0346FB80FB88094A127893FBF2F3ED
:101DB000DAB2084B1A70074B1A78074B1A70074BA8
:101DC00000221A7000BF0C37BD4680BC704700BFB0
:101DD0002C0000202D0000208D0500208C05002007
:101DE00080B400AF064B1B78002B04D0044B0022BC
:101DF0001A70012300E000231846BD4680BC7047DE
:101E00008C05002080B483B000AF786000BF0C3731
:101E1000BD4680BC7047000080B483B000AF7860DE
:101E2000034A7B68136000BF0C37BD4680BC704717
:101E30009005002080B584B000AF78600B46FB7041
:101E40000023FB730BE00A4B1868FB7B7A68D11800
:101E50006423012203F067F8FB7B0133FB73FA7BF9
:101E6000FB789A42EFD300BF00BF1037BD4680BD5C
:101E7000900500200C480D490D4A002302E0D4587B
:101E8000C4500433C4188C42F9D30A4A0A4C0023C4
:101E900001E013600432A242FBD3FFF723FF03F0FB
:101EA000CBFCFFF785F970470000002008020020F6
:101EB0001C8B000808020020A8050020FEE7000097
:101EC00080B500AF084B1B68074A43F0100313604E
:101ED000032000F0E7FD0F2000F008F8FFF71CFCDE
:101EE0000023184680BD00BF0020024080B582B0AC
:101EF00000AF7860124B1A68124B1B7819464FF4EA
:101F00007A73B3FBF1F3B2FBF3F3184600F0FFFD75
:101F10000346002B01D001230EE07B680F2B0AD86B
:101F2000002279684FF0FF3000F0C7FD064A7B6859
:101F30001360002300E0012318460837BD4680BD2A
:101F400028000020340000203000002080B400AFC2
:101F5000054B1B781A46054B1B681344034A136054
:101F600000BFBD4680BC70473400002094050020AF
:101F700080B400AF024B1B681846BD4680BC70475A
:101F80009405002080B584B000AF7860FFF7F0FFC3
:101F9000B8607B68FB60FB68B3F1FF3F05D00A4B7C
:101FA0001B781A46FB681344FB6000BFFFF7E0FF95
:101FB0000246BB68D31AFA689A42F7D800BF00BF3E
:101FC0001037BD4680BD00BF3400002080B586B00C
:101FD00000AF78600023FB7500233B610023BB60EA
:101FE0000023FB607B68002B01D10123BEE07B68EE
:101FF0009B68002B7B689B6A002B09D17B680022C1
:10200000DA627B68002283F824207868FFF7B6FB49
:10201000786800F0CBFB0346FB757B689B6A03F096
:102020001003002B40F09980FB7D002B40F0958041
:102030007B689B6A23F4885323F0020343F0020277
:102040007B689A627B685A687B68DB691A437B68A5
:102050001B7B5B001343BA681343BB607B689B68C0
:10206000B3F5807F03D07B689B68012B02D14FF4CE
:10207000807300E000233A6913433B617B681B7D5A
:10208000012B19D17B681B7B002B09D17B689B69D5
:10209000013B5A033B69134343F400633B610BE08C
:1020A0007B689B6A43F020027B689A627B68DB6AEC
:1020B00043F001027B68DA627B681B685B6823F48B
:1020C00069417B681B683A690A435A607B681B68F0
:1020D0009A68284B13407A681268B9680B4393607A
:1020E0007B689B68B3F5807F03D07B689B68012B7E
:1020F00004D17B681B69013B1B05FB607B681B6887
:10210000DB6A23F470017B681B68FA680A43DA62B1
:102110007B681B689A68184B1340BA689A420BD1C7
:102120007B680022DA627B689B6A23F0030343F03A
:1021300001027B689A6218E07B689B6A23F01203B5
:1021400043F010027B689A627B68DB6A43F001020D
:102150007B68DA620123FB7507E07B689B6A43F0CA
:1021600010027B689A620123FB75FB7D18461837C5
:10217000BD4680BDFDF7E1FFFE0E1FFF80B586B0B6
:1021800000AFF860B9607A600023FB75FB681B68DC
:10219000644A934204D0FB681B68634A934206D1A9
:1021A000604B5B6803F47023002B40F0B380FB6846
:1021B00093F82430012B01D10223AEE0FB68012209
:1021C00083F82420F86800F097FA0346FB75FB7D3E
:1021D000002B40F09A80FB689B6A23F4706323F025
:1021E000010343F48072FB689A62FB681B684E4AE5
:1021F000934205D14B4B5B6803F47023002B15D140
:10220000FB689B6A23F48012FB689A62FB681B6878
:102210005B6803F48063002B26D0FB689B6A23F481
:10222000405343F48052FB689A621DE0FB689B6A4E
:1022300043F48012FB689A62FB681B68394A934238
:1022400004D0FB681B68384A93420DD1354B5B685C
:1022500003F48063002B07D0FB689B6A23F4405390
:1022600043F48052FB689A62FB689B6A03F48053D4
:10227000002B06D0FB68DB6A23F00602FB68DA62FB
:1022800002E0FB680022DA62FB68002283F8242067
:10229000FB681B6A254A9A62FB681B6A244ADA6259
:1022A000FB681B6A234A1A63FB681B686FF0020213
:1022B0001A60FB681B689A68FB681B6842F48072AE
:1022C0009A60FB68186AFB681B684C331946BA6849
:1022D0007B6800F083FCFB681B689B6803F4602349
:1022E000B3F5602F08D1FB681B689A68FB681B6810
:1022F00042F4A0029A600FE0FB681B689A68FB68D2
:102300001B6842F480129A6006E0FB68002283F8A2
:10231000242001E00123FB75FB7D18461837BD46DC
:1023200080BD00BF00240140002801402F28000884
:10233000AB280008C728000880B582B000AF7860DD
:102340007B681B685B6803F02003202B40D17B680F
:102350001B681B6803F00203022B39D17B689B6A60
:1023600003F01003002B05D17B689B6A43F40072D5
:102370007B689A627B681B689B6803F46023B3F5F3
:10238000602F1DD17B681B7B002B19D17B681B68DC
:102390005A687B681B6822F020025A607B689B6A3F
:1023A00023F480727B689A627B689B6A03F4805393
:1023B000002B05D17B689B6A43F001027B689A621F
:1023C000786800F07CF87B681B686FF012021A6076
:1023D0007B681B685B6803F08003802B4FD17B68B0
:1023E0001B681B6803F00403042B48D17B689B6ABD
:1023F00003F01003002B05D17B689B6A43F4005265
:102400007B689A627B681B689B6803F4E043B3F5C2
:10241000E04F12D07B681B685B6803F48063002B7D
:1024200025D17B681B689B6803F46023B3F5602F9C
:102430001DD17B681B7B002B19D17B681B685A68F8
:102440007B681B6822F080025A607B689B6A23F4D9
:1024500080527B689A627B689B6A03F48073002BCE
:1024600005D17B689B6A43F001027B689A627868B9
:1024700000F043FA7B681B686FF00C021A607B68FF
:102480001B685B6803F04003402B14D17B681B681A
:102490001B6803F00103012B0DD17B689B6A43F499
:1024A00080327B689A62786800F01BF87B681B6852
:1024B0006FF001021A6000BF0837BD4680BD80B4CE
:1024C00083B000AF786000BF0C37BD4680BC70475A
:1024D00080B483B000AF786000BF0C37BD4680BCCD
:1024E000704780B483B000AF786000BF0C37BD4642
:1024F00080BC704780B483B000AF786000BF0C37F9
:10250000BD4680BC7047000080B485B000AF7860E5
:1025100039600023FB730023BB607B6893F8243091
:10252000012B01D10223DCE07B68012283F8242007
:102530003B685B68062B1CD87B681B68596B3B6843
:102540005A6813469B001344053B1F2202FA03F30B
:10255000DB4319403B6818683B685A6813469B0088
:102560001344053B00FA03F27B681B680A435A6375
:102570003CE03B685B680C2B1CD87B681B68196BC4
:102580003B685A6813469B001344233B1F2202FA00
:1025900003F3DB4319403B6818683B685A681346ED
:1025A0009B001344233B00FA03F27B681B680A4339
:1025B0001A631BE07B681B68D96A3B685A6813463C
:1025C0009B001344413B1F2202FA03F3DB431940F3
:1025D0003B6818683B685A6813469B001344413BAC
:1025E00000FA03F27B681B680A43DA623B681B68E7
:1025F000092B1CD97B681B68D9683B681A6813468D
:102600005B0013441E3B072202FA03F3DB4319402D
:102610003B6898683B681A6813465B0013441E3B8E
:1026200000FA03F27B681B680A43DA6019E07B68F2
:102630001B6819693B681A6813465B00134407223C
:1026400002FA03F3DB4319403B6898683B681A6859
:1026500013465B00134400FA03F27B681B680A43CD
:102660001A613B681B68102B03D03B681B68112B59
:1026700032D17B681B681D4A934225D17B681B6859
:102680009B6803F40003002B26D17B681B689A68C3
:102690007B681B6842F400029A603B681B68102B41
:1026A0001AD1134B1B68134AA2FB03239A0C13463F
:1026B0009B0013445B00BB6002E0BB68013BBB6056
:1026C000BB68002BF9D107E07B689B6A43F02002CE
:1026D0007B689A620123FB737B68002283F82420C5
:1026E000FB7B18461437BD4680BC70470024014070
:1026F0002800002083DE1B4380B584B000AF7860E3
:102700000023FB600023BB607B681B689B6803F0B1
:102710000103012B40D07B681B689A687B681B68AB
:1027200042F001029A601F4B1B681F4AA2FB032361
:102730009B0CBB6002E0BB68013BBB60BB68002B2D
:10274000F9D1FFF715FCF8601FE0FFF711FC024616
:10275000FB68D31A022B18D97B681B689B6803F0AF
:102760000103012B11D07B689B6A43F010027B6848
:102770009A627B68DB6A43F001027B68DA627B68FD
:10278000002283F82420012307E07B681B689B68F4
:1027900003F00103012BD8D1002318461037BD46A2
:1027A00080BD00BF2800002083DE1B4380B584B0BD
:1027B00000AF78600023FB607B681B689B6803F0B8
:1027C0000103012B2ED17B681B689A687B681B680C
:1027D00022F001029A60FFF7CBFBF8601BE0FFF7E5
:1027E000C7FB0246FB68D31A022B14D97B681B680F
:1027F0009B6803F00103012B0DD17B689B6A43F0BA
:1028000010027B689A627B68DB6A43F001027B6896
:10281000DA62012307E07B681B689B6803F0010311
:10282000012BDCD0002318461037BD4680BD80B593
:1028300084B000AF78607B685B6AFB60FB689B6A72
:1028400003F05003002B27D1FB689B6A43F400720E
:10285000FB689A62FB681B689B6803F46023B3F50E
:10286000602F15D1FB681B7B002B11D1FB689B6A85
:1028700023F48072FB689A62FB689B6A03F48053BE
:10288000002B05D1FB689B6A43F00102FB689A624A
:10289000F868FFF714FE04E0FB681B6A1B6B78689E
:1028A000984700BF1037BD4680BD80B584B000AFEB
:1028B00078607B685B6AFB60F868FFF709FE00BF21
:1028C0001037BD4680BD80B584B000AF78607B68AE
:1028D0005B6AFB60FB689B6A43F04002FB689A629C
:1028E000FB68DB6A43F00402FB68DA62F868FFF712
:1028F00001FE00BF1037BD4680BD80B483B000AF7D
:10290000786000BF0C37BD4680BC704780B485B08E
:1029100000AF78607B6803F00703FB600C4BDB685B
:10292000BB60BA684FF6FF031340BB60FB681A0236
:10293000BB68134343F0BF6343F40033BB60044AF6
:10294000BB68D36000BF1437BD4680BC704700BF72
:1029500000ED00E080B400AF044BDB681B0A03F01D
:1029600007031846BD4680BC704700BF00ED00E07D
:1029700080B483B000AF0346FB7197F90730002B9A
:102980000BDBFB7903F01F02064997F907305B095F
:10299000012000FA02F241F8232000BF0C37BD46A7
:1029A00080BC704700E100E080B483B000AF034614
:1029B0003960FB7197F90730002B0ADB3B68DAB20C
:1029C0000C4997F907301201D2B20B4483F8002367
:1029D0000AE03B68DAB20849FB7903F00F03043BD5
:1029E0001201D2B20B441A7600BF0C37BD4680BC30
:1029F000704700BF00E100E000ED00E080B489B066
:102A000000AFF860B9607A60FB6803F00703FB6110
:102A1000FB69C3F10703042B28BF0423BB61FB69D7
:102A20000433062B02D9FB69033B00E000237B61E2
:102A30004FF0FF32BB6902FA03F3DA43BB681A4076
:102A40007B699A404FF0FF317B6901FA03F3D94368
:102A50007B680B40134318462437BD4680BC704743
:102A600080B582B000AF78607B68013BB3F1807FB6
:102A700001D301230FE00A4A7B68013B53600F2119
:102A80004FF0FF30FFF790FF054B00229A60044B98
:102A900007221A60002318460837BD4680BD00BFD4
:102AA00010E000E080B582B000AF78607868FFF792
:102AB0002DFF00BF0837BD4680BD80B586B000AF92
:102AC0000346B9607A60FB7300237B61FFF742FF26
:102AD00078617A68B9687869FFF790FF024697F9DC
:102AE0000F3011461846FFF75FFF00BF1837BD468D
:102AF00080BD80B582B000AF0346FB7197F9073007
:102B00001846FFF735FF00BF0837BD4680BD80B5CA
:102B100082B000AF78607868FFF7A2FF03461846DE
:102B20000837BD4680BD000080B485B000AF786036
:102B30000023FB607B68002B01D1012343E07B680D
:102B40001B681A46224B1344224AA2FB03231B098B
:102B50009A007B681A647B681F4ADA637B680222EA
:102B600083F821207B681B681B68FB60FB6823F4EB
:102B70007F5323F03003FB607B685A687B689B6857
:102B80001A437B68DB681A437B681B691A437B68BE
:102B90005B691A437B689B691A437B68DB69134353
:102BA000FA681343FB607B681B68FA681A607B68ED
:102BB00000229A637B68012283F821207B6800222F
:102BC00083F82020002318461437BD4680BC704788
:102BD000F8FFFDBFCDCCCCCC0000024080B586B064
:102BE00000AFF860B9607A603B600023FB75FB685A
:102BF00093F82030012B01D102234AE0FB68012227
:102C000083F82020FB6893F82130012B3AD1FB6830
:102C1000022283F82120FB6800229A63FB681B686C
:102C20001A68FB681B6822F001021A603B687A6828
:102C3000B968F86800F0E8F9FB68DB6A002B08D097
:102C4000FB681B681A68FB681B6842F00E021A607A
:102C50000FE0FB681B681A68FB681B6822F004021F
:102C60001A60FB681B681A68FB681B6842F00A025E
:102C70001A60FB681B681A68FB681B6842F0010257
:102C80001A6005E0FB68002283F820200223FB7510
:102C9000FB7D18461837BD4680BD80B485B000AFB7
:102CA00078600023FB737B6893F82130022B08D0F7
:102CB0007B6804229A637B68002283F8202001232A
:102CC00020E07B681B681A687B681B6822F00E0294
:102CD0001A607B681B681A687B681B6822F0010217
:102CE0001A607B681A6C7B68DB6B012101FA02F2C7
:102CF0005A607B68012283F821207B68002283F8D8
:102D00002020FB7B18461437BD4680BC704700006E
:102D100080B584B000AF78600023FB737B6893F8C4
:102D20002130022B05D07B6804229A630123FB73B8
:102D300051E07B681B681A687B681B6822F00E02F2
:102D40001A607B681B681A687B681B6822F00102A6
:102D50001A607B681B68224A934229D07B681B68F3
:102D6000204A934222D07B681B681F4A93421AD0A4
:102D70007B681B681D4A934212D07B681B681C4A03
:102D800093420AD07B681B681A4A934202D14FF4DF
:102D900080130EE04FF080730BE04FF4803308E0B7
:102DA0004FF4805305E04FF4807302E0102300E0FD
:102DB0000123114A53607B68012283F821207B683C
:102DC000002283F820207B685B6B002B03D07B689C
:102DD0005B6B78689847FB7B18461037BD4680BD13
:102DE000080002401C000240300002404400024043
:102DF000580002406C0002400000024080B584B0E0
:102E000000AF78607B68DB6B1B68FB607B681B68CE
:102E10001B68BB607B681B6C04229A40FB681340F4
:102E2000002B4FD0BB6803F00403002B4AD07B6813
:102E30001B681B6803F02003002B07D17B681B680D
:102E40001A687B681B6822F004021A607B681B68A2
:102E5000664A934229D07B681B68654A934222D018
:102E60007B681B68634A93421AD07B681B68624A7E
:102E7000934212D07B681B68604A93420AD07B68F9
:102E80001B685F4A934202D14FF480030EE04FF07B
:102E900080630BE04FF4802308E04FF4804305E0AB
:102EA0004FF4806302E0402300E00423554A53605E
:102EB0007B68DB6A002B00F094807B68DB6A7868B3
:102EC00098478EE07B681B6C02229A40FB68134097
:102ED000002B56D0BB6803F00203002B51D07B6857
:102EE0001B681B6803F02003002B0BD17B681B6859
:102EF0001A687B681B6822F00A021A607B6801224C
:102F000083F821207B681B68384A934229D07B686C
:102F10001B68374A934222D07B681B68354A93422C
:102F20001AD07B681B68344A934212D07B681B68B6
:102F3000324A93420AD07B681B68314A934202D1DD
:102F40004FF400130EE04FF000730BE04FF400332A
:102F500008E04FF4005305E04FF4007302E0202333
:102F600000E00223274A53607B68002283F8202078
:102F70007B689B6A002B34D07B689B6A7868984793
:102F80002FE07B681B6C08229A40FB681340002BE3
:102F900028D0BB6803F00803002B23D07B681B6894
:102FA0001A687B681B6822F00E021A607B681A6C34
:102FB0007B68DB6B012101FA02F25A607B68012217
:102FC0009A637B68012283F821207B68002283F8C2
:102FD00020207B681B6B002B04D07B681B6B786800
:102FE000984700BF00BF1037BD4680BD08000240B3
:102FF0001C000240300002404400024058000240E1
:103000006C0002400000024080B485B000AFF86060
:10301000B9607A603B60FB681A6CFB68DB6B01216E
:1030200001FA02F25A60FB681B683A685A60FB6852
:103030005B68102B08D1FB681B687A689A60FB6894
:103040001B68BA68DA6007E0FB681B68BA689A60B8
:10305000FB681B687A68DA6000BF1437BD4680BC25
:103060007047000080B48BB000AF786039600023F7
:103070007B6200233B6269E101227B6A02FA03F36F
:10308000FB613B681B68FA691340BB61BA69FB6965
:103090009A4240F058813B685B689A4A93425ED0FE
:1030A000984A934275D8984A934258D0964A934288
:1030B0006FD8964A934252D0944A934269D8944A20
:1030C00093424CD0924A934263D8924A934246D05C
:1030D000904A93425DD8122B2AD8122B59D801A2BC
:1030E00052F823F05F310008393100084B310008F5
:1030F0008D310008933100089331000893310008A6
:10310000933100089331000893310008933100088F
:10311000933100089331000893310008933100087F
:1031200093310008933100084131000855310008FF
:10313000794A934213D02CE03B68DB683B6229E07C
:103140003B68DB6804333B6224E03B68DB680833A0
:103150003B621FE03B68DB680C333B621AE03B6874
:103160009B68002B02D104233B6213E03B689B6801
:10317000012B05D108233B627B68FA691A6109E0DB
:1031800008233B627B68FA695A6103E000233B62D3
:1031900000E000BFBB69FF2B01D87B6801E07B68C2
:1031A00004337B61BB69FF2B02D87B6A9B0002E082
:1031B0007B6A083B9B003B617B691A680F213B6976
:1031C00001FA03F3DB431A40396A3B6901FA03F35E
:1031D0001A437B691A603B685B6803F08053002BDD
:1031E00000F0B1804D4B9B694C4A43F00103936161
:1031F0004A4B9B6903F00103BB60BB68484A7B6A8A
:103200009B08023352F82330FB607B6A03F0030310
:103210009B000F2202FA03F3DB43FA681340FB60C2
:103220007B68404A934213D07B683F4A93420DD05B
:103230007B683E4A934207D07B683D4A934201D166
:10324000032306E0042304E0022302E0012300E05C
:1032500000237A6A02F0030292009340FA68134353
:10326000FB602F497B6A9B080233FA6841F82320F0
:103270003B685B6803F48033002B06D02D4B1A6843
:103280002C49BB6913430B6006E02A4B1A68BB69E3
:10329000DB43284913400B603B685B6803F4003351
:1032A000002B06D0234B5A682249BB6913434B605D
:1032B00006E0204B5A68BB69DB431E4913404B6054
:1032C0003B685B6803F48013002B06D0194B9A68A7
:1032D0001849BB6913438B6006E0164B9A68BB69BB
:1032E000DB43144913408B603B685B6803F40013B5
:1032F000002B21D00F4BDA680E49BB691343CB601A
:1033000021E000BF00003210000031100000221048
:1033100000002110000012100000111000100240E7
:103320000000014000080140000C01400010014075
:1033300000140140000401400B4BDA68BB69DB4319
:1033400009491340CB607B6A01337B623B681A6892
:103350007B6A22FA03F3002B7FF48EAE00BF00BF1E
:103360002C37BD4680BC70470004014080B483B058
:1033700000AF78600B467B8013467B707B78002B18
:1033800003D07A887B681A6103E07B881A047B6823
:103390001A6100BF0C37BD4680BC704780B485B051
:1033A00000AF78600B467B807B68DB68FB607A88C7
:1033B000FB6813401A04FB68D9437B880B401A430F
:1033C0007B681A6100BF1437BD4680BC704700009F
:1033D00080B584B000AF78607B68002B01D10123F9
:1033E0002BE17B6893F83D30DBB2002B06D17B6884
:1033F000002283F83C207868FEF730FA7B682422AC
:1034000083F83D207B681B681A687B681B6822F084
:1034100001021A607B681B681A687B681B6842F4AB
:1034200000421A607B681B681A687B681B6822F47C
:1034300000421A6000F0EAFFF8607B685B68814A2E
:10344000934207D8FB68804A934294BF012300232C
:10345000DBB206E0FB687D4A934294BF0123002360
:10346000DBB2002B01D00123E7E0FB68784AA2FB26
:1034700003239B0CBB607B681B685B6823F03F01E8
:103480007B681B68BA680A435A607B681B681B6AC2
:1034900023F03F017B685B686A4A934202D8BB68AD
:1034A000013309E0BB684FF4967202FB03F3694AEB
:1034B000A2FB03239B0901337A6812680B43136252
:1034C0007B681B68DB6923F44F4222F0FF027B68B4
:1034D0005B685C498B4219D8FB68591E7B685B6846
:1034E0005B00B1FBF3F3591C40F6FC730B40002B5F
:1034F0000AD0FB68591E7B685B685B00B1FBF3F385
:103500000133C3F30B0351E004234FE07B689B6856
:10351000002B11D1FB68581E7B6859680B465B0075
:103520000B44B0FBF3F30133C3F30B03002B0CBFCD
:1035300001230023DBB212E0FB68581E7B68596848
:103540000B469B000B4499000B44B0FBF3F3013393
:10355000C3F30B03002B0CBF01230023DBB2002BB2
:1035600001D0012322E07B689B68002B0ED1FB6811
:10357000581E7B6859680B465B000B44B0FBF3F3A5
:103580000133C3F30B0343F400430FE0FB68581E01
:103590007B6859680B469B000B4499000B44B0FBB9
:1035A000F3F30133C3F30B0343F440437968096831
:1035B0001343CB617B681B681B6823F0C0017B68E9
:1035C000DA697B681B6A1A437B681B680A431A60C6
:1035D0007B681B689B6823F4034323F0FF037A682E
:1035E00011697A68D26811437A6812680B43936054
:1035F0007B681B68DB6823F0FF017B685A697B6886
:103600009B691A437B681B680A43DA607B681B6806
:103610001A687B681B6842F001021A607B6800220E
:103620001A647B68202283F83D207B6800221A639D
:103630007B68002283F83E20002318461037BD46E1
:1036400080BD00BFA08601007F841E00FF083D00F2
:1036500083DE1B43D34D621080B588B002AFF860A3
:103660007A601A460B467B8113463B81FEF780FC4D
:103670007861FB6893F83D30DBB2202B40F0E080AE
:103680007B690093192301227049F86800F064F9FE
:103690000346002B01D00223D3E0FB6893F83C30B3
:1036A000012B01D10223CCE0FB68012283F83C20EE
:1036B000FB681B681B6803F00103012B07D0FB6844
:1036C0001B681A68FB681B6842F001021A60FB68FD
:1036D0001B681A68FB681B6822F400621A60FB68AA
:1036E000212283F83D20FB68102283F83E20FB68EE
:1036F00000221A64FB687A685A62FB683A895A8524
:10370000FB685B8D9AB2FB681A85FB68504ADA62E7
:1037100079897B693A6AF86800F09CF80346002BC7
:1037200001D001238DE000233B61FB681B685B69CE
:103730003B61FB681B689B693B613B6966E07A699A
:10374000396AF86800F0DEF90346002B0DD0FB68FB
:103750001B6C042B07D1FB681B681A68FB681B688D
:1037600042F400721A6001236BE0FB685B6A1A780E
:10377000FB681B681A61FB685B6A5A1CFB685A622B
:10378000FB685B8D9BB2013B9AB2FB685A85FB6874
:103790001B8D013B9AB2FB681A85FB681B685B694D
:1037A00003F00403042B1BD1FB681B8D002B17D0E7
:1037B000FB685B6A1A78FB681B681A61FB685B6AC6
:1037C0005A1CFB685A62FB685B8D9BB2013B9AB244
:1037D000FB685A85FB681B8D013B9AB2FB681A8512
:1037E0007A69396AF86800F0CEF90346002B0DD0EB
:1037F000FB681B6C042B07D1FB681B681A68FB680D
:103800001B6842F400721A6001231AE0FB681B8DEA
:10381000002B94D1FB681B681A68FB681B6842F494
:1038200000721A60FB68202283F83D20FB680022AA
:1038300083F83E20FB68002283F83C20002300E050
:10384000022318461837BD4680BD00BF0200100095
:103850000000FFFF80B588B002AFF8607A603B607F
:103860000B467B81FB68DB6A7B617B69082B06D09A
:103870007B69012B03D07B6913F5803F08D1FB687E
:103880001B681A68FB681B6842F480721A600BE0C0
:10389000FB681B6B122B07D1FB681B681A68FB685F
:1038A0001B6842F480721A603B6800937B680022B8
:1038B0004FF00111F86800F04FF80346002B0DD0CF
:1038C000FB681B681B6803F48073B3F5807F03D12A
:1038D000FB684FF400721A64032335E0FB681B6930
:1038E000B3F5804F08D17B89DBB21A46FB681B68B1
:1038F00002F0FE021A611BE07B89DB11DBB203F0F0
:103900000603DBB263F00F03DAB2FB681B681A61CF
:103910003B687A680E49F86800F075F80346002B9A
:1039200001D0012310E07B89DAB2FB681B681A61C1
:103930003B687A680749F86800F065F80346002B91
:1039400001D0012300E0002318461837BD4680BD92
:10395000080001000200010080B584B000AFF860EB
:10396000B9603B601346FB7125E03B68B3F1FF3F54
:1039700021D0FEF7FDFA0246BB69D31A3A689A4293
:1039800002D33B68002B16D1FB6800221A63FB6848
:10399000202283F83D20FB68002283F83E20FB684C
:1039A0001B6C43F02002FB681A64FB68002283F85A
:1039B0003C20012323E0BB681B0CDBB2012B0DD1A3
:1039C000FB681B685B69DA43BB6813409BB2002B42
:1039D0000CBF01230023DBB21A460CE0FB681B6816
:1039E0009B69DA43BB6813409BB2002B0CBF0123D9
:1039F0000023DBB21A46FB799A42B6D00023184660
:103A00001037BD4680BD80B584B000AFF860B960A6
:103A10007A603B6051E0FB681B685B6903F480637C
:103A2000B3F5806F23D1FB681B681A68FB681B68BD
:103A300042F400721A60FB681B686FF480625A617E
:103A4000FB6800221A63FB68202283F83D20FB6894
:103A5000002283F83E20FB681B6C43F00402FB68E5
:103A60001A64FB68002283F83C20012346E07B684F
:103A7000B3F1FF3F21D0FEF77BFA02463B68D31A31
:103A80007A689A4202D37B68002B16D1FB68002229
:103A90001A63FB68202283F83D20FB68002283F82C
:103AA0003E20FB681B6C43F02002FB681A64FB6835
:103AB000002283F83C20012320E0BB681B0CDBB212
:103AC000012B0CD1FB681B685B69DA43BB681340B0
:103AD0009BB2002B14BF01230023DBB20BE0FB6879
:103AE0001B689B69DA43BB6813409BB2002B14BF71
:103AF00001230023DBB2002B8DD1002318461037A1
:103B0000BD4680BD80B584B000AFF860B9607A6012
:103B10002DE0F86800F078F80346002B01D001236F
:103B20002DE0BB68B3F1FF3F21D0FEF721FA02463A
:103B30007B68D31ABA689A4202D3BB68002B16D1AD
:103B4000FB6800221A63FB68202283F83D20FB6893
:103B5000002283F83E20FB681B6C43F02002FB68C8
:103B60001A64FB68002283F83C20012307E0FB680D
:103B70001B685B6903F08003802BCAD100231846C1
:103B80001037BD4680BD80B584B000AFF860B96025
:103B90007A602DE0F86800F037F80346002B01D07A
:103BA00001232DE0BB68B3F1FF3F21D0FEF7E0F920
:103BB00002467B68D31ABA689A4202D3BB68002BCC
:103BC00016D1FB6800221A63FB68202283F83D208F
:103BD000FB68002283F83E20FB681B6C43F0200248
:103BE000FB681A64FB68002283F83C20012307E08D
:103BF000FB681B685B6903F00403042BCAD1002334
:103C000018461037BD4680BD80B483B000AF7860E1
:103C10007B681B685B6903F48063B3F5806F1BD11D
:103C20007B681B686FF480625A617B6800221A63AC
:103C30007B68202283F83D207B68002283F83E20A9
:103C40007B681B6C43F004027B681A647B6800226B
:103C500083F83C20012300E0002318460C37BD46C2
:103C600080BC704780B586B000AF78607B68002B61
:103C700001D1012372E27B681B6803F00103002B72
:103C800000F08780924B5B6803F00C03042B0CD090
:103C90008F4B5B6803F00C03082B12D18C4B5B68D5
:103CA00003F48033B3F5803F0BD1894B1B6803F4D9
:103CB0000033002B6CD07B685B68002B68D101233C
:103CC0004CE27B685B68B3F5803F06D1804B1B6894
:103CD0007F4A43F4803313602EE07B685B68002BDF
:103CE0000CD17B4B1B687A4A23F480331360784BEA
:103CF0001B68774A23F4802313601DE07B685B68B0
:103D0000B3F5A02F0CD1724B1B68714A43F480238A
:103D100013606F4B1B686E4A43F4803313600BE0F3
:103D20006B4B1B686A4A23F480331360684B1B6833
:103D3000674A23F4802313607B685B68002B13D0F1
:103D4000FEF716F9386108E0FEF712F902463B6902
:103D5000D31A642B01D9032300E25D4B1B6803F4E3
:103D60000033002BF0D014E0FEF702F9386108E0D0
:103D7000FEF7FEF802463B69D31A642B01D90323F0
:103D8000ECE1534B1B6803F40033002BF0D100E04F
:103D900000BF7B681B6803F00203002B63D04C4B11
:103DA0005B6803F00C03002B0BD0494B5B6803F0FE
:103DB0000C03082B1CD1464B5B6803F48033002BAB
:103DC00016D1434B1B6803F00203002B05D07B6820
:103DD0001B69012B01D00123C0E13D4B1B6823F07F
:103DE000F8027B685B69DB00394913430B603AE0FA
:103DF0007B681B69002B20D0364B01221A60FEF72E
:103E0000B7F8386108E0FEF7B3F802463B69D31A09
:103E1000022B01D90323A1E12D4B1B6803F0020300
:103E2000002BF0D02A4B1B6823F0F8027B685B69FB
:103E3000DB00274913430B6015E0264B00221A6074
:103E4000FEF796F8386108E0FEF792F802463B6903
:103E5000D31A022B01D9032380E11D4B1B6803F009
:103E60000203002BF0D17B681B6803F00803002BD2
:103E70003AD07B689B69002B19D0174B01221A603E
:103E8000FEF776F8386108E0FEF772F802463B6903
:103E9000D31A022B01D9032360E10D4B5B6A03F0B7
:103EA0000203002BF0D0012000F0D8FA1CE00A4BEE
:103EB00000221A60FEF75CF838610FE0FEF758F850
:103EC00002463B69D31A022B08D9032346E100BFFF
:103ED000001002400000424280044242924B5B6A62
:103EE00003F00203002BE9D17B681B6803F0040395
:103EF000002B00F0A6800023FB758B4BDB6903F0E1
:103F00008053002B0DD1884BDB69874A43F08053E7
:103F1000D361854BDB6903F08053BB60BB68012331
:103F2000FB75824B1B6803F48073002B18D17F4B09
:103F30001B687E4A43F480731360FEF719F83861FA
:103F400008E0FEF715F802463B69D31A642B01D945
:103F5000032303E1754B1B6803F48073002BF0D03F
:103F60007B68DB68012B06D16F4B1B6A6E4A43F0FE
:103F7000010313622DE07B68DB68002B0CD16A4BD8
:103F80001B6A694A23F001031362674B1B6A664A86
:103F900023F0040313621CE07B68DB68052B0CD163
:103FA000614B1B6A604A43F0040313625E4B1B6A59
:103FB0005D4A43F0010313620BE05B4B1B6A5A4AF4
:103FC00023F001031362584B1B6A574A23F0040382
:103FD00013627B68DB68002B15D0FDF7C9FF3861E1
:103FE0000AE0FDF7C5FF02463B69D31A41F2883269
:103FF000934201D90323B1E04B4B1B6A03F0020348
:10400000002BEED014E0FDF7B3FF38610AE0FDF7B6
:10401000AFFF02463B69D31A41F28832934201D97D
:1040200003239BE0404B1B6A03F00203002BEED1FD
:10403000FB7D012B05D13C4BDB693B4A23F08053D0
:10404000D3617B68DB69002B00F08780364B5B68AF
:1040500003F00C03082B61D07B68DB69022B46D18F
:10406000334B00221A60FDF783FF386108E0FDF74B
:104070007FFF02463B69D31A022B01D903236DE06F
:10408000294B1B6803F00073002BF0D17B681B6A7F
:10409000B3F5803F08D1244B5B6823F400327B6882
:1040A0009B68214913434B601F4B5B6823F47412D8
:1040B0007B68196A7B685B6A0B431B4913434B603F
:1040C0001B4B01221A60FDF753FF386108E0FDF732
:1040D0004FFF02463B69D31A022B01D903233DE06F
:1040E000114B1B6803F00073002BF0D035E0104B30
:1040F00000221A60FDF73CFF386108E0FDF738FF49
:1041000002463B69D31A022B01D9032326E0064B52
:104110001B6803F00073002BF0D11EE07B68DB69A5
:10412000012B07D1012319E000100240007000406C
:10413000600042420B4B5B68FB60FB6803F480321B
:104140007B681B6A9A4206D1FB6803F470127B6895
:104150005B6A9A4201D0012300E000231846183719
:10416000BD4680BD0010024080B584B000AF7860CD
:1041700039607B68002B01D10123D0E06A4B1B68BA
:1041800003F007033A689A4210D9674B1B6823F083
:10419000070265493B6813430B60634B1B6803F0E0
:1041A00007033A689A4201D00123B8E07B681B6894
:1041B00003F00203002B20D07B681B6803F004038C
:1041C000002B05D0594B5B68584A43F4E0635360B9
:1041D0007B681B6803F00803002B05D0534B5B681A
:1041E000524A43F460535360504B5B6823F0F00233
:1041F0007B689B684D4913434B607B681B6803F0E9
:104200000103002B40D07B685B68012B07D1474B33
:104210001B6803F40033002B15D101237FE07B687A
:104220005B68022B07D1414B1B6803F00073002B26
:1042300009D1012373E03D4B1B6803F00203002BFF
:1042400001D101236BE0394B5B6823F003027B68EB
:104250005B68364913434B60FDF78AFEF8600AE05D
:10426000FDF786FE0246FB68D31A41F2883293427C
:1042700001D9032353E02D4B5B6803F00C027B68EC
:104280005B689B009A42EBD1274B1B6803F0070346
:104290003A689A4210D2244B1B6823F00702224945
:1042A0003B6813430B60204B1B6803F007033A681D
:1042B0009A4201D0012332E07B681B6803F00403BB
:1042C000002B08D0194B5B6823F4E0627B68DB6845
:1042D000164913434B607B681B6803F00803002BEF
:1042E00009D0124B5B6823F460527B681B69DB00CA
:1042F0000E4913434B6000F021F802460B4B5B68FC
:104300001B0903F00F030A49CB5C22FA03F3094AA5
:104310001360094B1B681846FDF7E8FD002318469B
:104320001037BD4680BD00BF002002400010024093
:1043300020870008280000203000002090B48AB0B8
:1043400000AF294B3C1D0FCB84E80F0040F2012346
:104350003B800023FB610023BB6100237B620023C1
:104360007B6100233B62214B5B68FB61FB6903F0CF
:104370000C03042B02D0082B03D02BE01C4B3B6218
:104380002BE0FB699B0C03F00F0328333B4413F82D
:10439000243C7B61FB6903F48033002B12D0134B68
:1043A0005B685B0C03F0010328333B4413F8283CA3
:1043B000BB617B690E4A03FB02F2BB69B2FBF3F3FC
:1043C0007B6204E07B690B4A02FB03F37B627B6A3E
:1043D0003B6202E0064B3B6200BF3B6A184628374F
:1043E000BD4690BC704700BF108700080010024017
:1043F00000127A0000093D0080B400AF024B1B6838
:104400001846BD4680BC70472800002080B500AF2C
:10441000FFF7F2FF0246054B5B681B0A03F0070338
:104420000349CB5C22FA03F3184680BD001002401A
:104430003087000880B500AFFFF7DEFF0246054B6E
:104440005B68DB0A03F007030349CB5C22FA03F342
:10445000184680BD001002403087000880B485B047
:1044600000AF78600A4B1B680A4AA2FB03235B0A71
:104470007A6802FB03F3FB6000BFFB685A1EFA6018
:10448000002BF9D100BF00BF1437BD4680BC704778
:1044900028000020D34D621080B586B000AF786050
:1044A00000233B610023FB607B681B6803F0010372
:1044B000002B7DD00023FB754F4BDB6903F080534D
:1044C000002B0DD14C4BDB694B4A43F08053D36139
:1044D000494BDB6903F08053BB60BB680123FB756C
:1044E000464B1B6803F48073002B18D1434B1B68A9
:1044F000424A43F480731360FDF73AFD386108E0E7
:10450000FDF736FD02463B69D31A642B01D903231C
:104510006DE03A4B1B6803F48073002BF0D0364BF0
:104520001B6A03F44073FB60FB68002B2ED07B6892
:104530005B6803F44073FA689A4227D02E4B1B6ADB
:1045400023F44073FB602E4B01221A602C4B002297
:104550001A60294AFB681362FB6803F00103002B11
:1045600014D0FDF705FD38610AE0FDF701FD0246B4
:104570003B69D31A41F28832934201D9032336E0D2
:104580001D4B1B6A03F00203002BEED01A4B1B6A73
:1045900023F440727B685B68174913430B62FB7D11
:1045A000012B05D1144BDB69134A23F08053D361EF
:1045B0007B681B6803F00203002B08D00E4B5B687E
:1045C00023F440427B689B680B4913434B607B6834
:1045D0001B6803F01003002B08D0074B5B6823F423
:1045E00080027B68DB68044913434B600023184654
:1045F0001837BD4680BD00BF00100240007000406B
:104600004004424280B582B000AF78607B68002BE6
:1046100001D1012341E07B6893F83D30DBB2002BF0
:1046200006D17B68002283F83C207868FDF754F9B6
:104630007B68022283F83D207B681A687B6804331C
:104640001946104600F0BAFA7B68012283F846202A
:104650007B68012283F83E207B68012283F83F209B
:104660007B68012283F840207B68012283F8412087
:104670007B68012283F842207B68012283F8432073
:104680007B68012283F844207B68012283F845205F
:104690007B68012283F83D20002318460837BD4679
:1046A00080BD000080B485B000AF78607B6893F86F
:1046B0003D30DBB2012B01D0012332E07B680222C6
:1046C00083F83D207B681B68184A93420ED07B68B4
:1046D0001B68B3F1804F09D07B681B68144A934272
:1046E00004D07B681B68134A934211D17B681B6816
:1046F0009B6803F00703FB60FB68062B10D07B6808
:104700001B681A687B681B6842F001021A6007E0A8
:104710007B681B681A687B681B6842F001021A609C
:10472000002318461437BD4680BC7047002C01405A
:10473000000400400008004080B485B000AF7860FD
:104740007B6893F83D30DBB2012B01D001233AE0C6
:104750007B68022283F83D207B681B68DA687B68EF
:104760001B6842F00102DA607B681B68184A9342BA
:104770000ED07B681B68B3F1804F09D07B681B6843
:10478000144A934204D07B681B68134A934211D1A8
:104790007B681B689B6803F00703FB60FB68062BC4
:1047A00010D07B681B681A687B681B6842F00102A6
:1047B0001A6007E07B681B681A687B681B6842F018
:1047C00001021A60002318461437BD4680BC7047AA
:1047D000002C0140000400400008004080B582B079
:1047E00000AF78607B681B681B6903F00203022B33
:1047F00022D17B681B68DB6803F00203022B1BD10C
:104800007B681B686FF002021A617B6801221A77CD
:104810007B681B689B6903F00303002B03D0786857
:1048200000F0B1F905E0786800F0A4F9786800F0CC
:10483000B3F97B6800221A777B681B681B6903F059
:104840000403042B22D17B681B68DB6803F004039C
:10485000042B1BD17B681B686FF004021A617B6814
:1048600002221A777B681B689B6903F44073002B54
:1048700003D0786800F087F905E0786800F07AF9ED
:10488000786800F089F97B6800221A777B681B68DA
:104890001B6903F00803082B22D17B681B68DB68C7
:1048A00003F00803082B1BD17B681B686FF008021C
:1048B0001A617B6804221A777B681B68DB6903F046
:1048C0000303002B03D0786800F05DF905E07868F9
:1048D00000F050F9786800F05FF97B6800221A77E1
:1048E0007B681B681B6903F01003102B22D17B68C7
:1048F0001B68DB6803F01003102B1BD17B681B685F
:104900006FF010021A617B6808221A777B681B68B7
:10491000DB6903F44073002B03D0786800F033F9AF
:1049200005E0786800F026F9786800F035F97B68D2
:1049300000221A777B681B681B6903F00103012BB7
:104940000ED17B681B68DB6803F00103012B07D1E4
:104950007B681B686FF001021A617868FDF7EAF95D
:104960007B681B681B6903F08003802B0ED17B687A
:104970001B68DB6803F08003802B07D17B681B6812
:104980006FF080021A61786800F077FA7B681B6824
:104990001B6903F04003402B0ED17B681B68DB686A
:1049A00003F04003402B07D17B681B686FF0400287
:1049B0001A61786800F0F9F87B681B681B6903F0DE
:1049C0002003202B0ED17B681B68DB6803F02003DB
:1049D000202B07D17B681B686FF020021A61786872
:1049E00000F042FA00BF0837BD4680BD80B584B0F4
:1049F00000AF786039607B6893F83C30012B01D1BF
:104A00000223B3E07B68012283F83C207B6802220A
:104A100083F83D207B681B689B68FB60FB6823F084
:104A20007703FB60FB6823F47F43FB607B681B68B4
:104A3000FA689A603B681B68B3F5005F3ED0B3F537
:104A4000005F00F28780B3F5805F00F08580B3F5EA
:104A5000805F7FD8702B1AD0702B7BD8602B50D002
:104A6000602B77D8502B3CD0502B73D8402B58D08C
:104A7000402B6FD8302B64D0302B6BD8202B60D0DC
:104A8000202B67D8002B5CD0102B5AD062E07B68BB
:104A900018683B6899683B685A683B68DB6800F0B7
:104AA00066F97B681B689B68FB60FB6843F07703D3
:104AB000FB607B681B68FA689A604EE07B68186848
:104AC0003B6899683B685A683B68DB6800F04FF9BF
:104AD0007B681B689A687B681B6842F480429A6016
:104AE0003BE07B6818683B6859683B68DB681A469E
:104AF00000F0C6F87B681B685021184600F01DF9CD
:104B00002BE07B6818683B6859683B68DB681A468D
:104B100000F0E4F87B681B686021184600F00DF98E
:104B20001BE07B6818683B6859683B68DB681A467D
:104B300000F0A6F87B681B684021184600F0FDF8DD
:104B40000BE07B681A683B681B681946104600F04A
:104B5000F4F802E000BF00E000BF7B68012283F8A8
:104B60003D207B68002283F83C2000231846103744
:104B7000BD4680BD80B483B000AF786000BF0C3705
:104B8000BD4680BC704780B483B000AF786000BF82
:104B90000C37BD4680BC704780B483B000AF7860EE
:104BA00000BF0C37BD4680BC704780B483B000AFF7
:104BB000786000BF0C37BD4680BC704780B485B0BC
:104BC00000AF786039607B681B68FB607B68294AAE
:104BD00093420BD07B68B3F1804F07D07B68264AA5
:104BE000934203D07B68254A934208D1FB6823F0A7
:104BF0007003FB603B685B68FA681343FB607B688B
:104C00001C4A93420BD07B68B3F1804F07D07B687E
:104C1000194A934203D07B68184A934208D1FB6833
:104C200023F44073FB603B68DB68FA681343FB6066
:104C3000FB6823F080023B685B691343FB607B6881
:104C4000FA681A603B689A687B68DA623B681A689F
:104C50007B689A627B68074A934203D13B681A6972
:104C60007B681A637B6801225A6100BF1437BD4616
:104C700080BC7047002C0140000400400008004048
:104C800080B487B000AFF860B9607A60FB681B6AD7
:104C90007B61FB681B6A23F00102FB681A62FB68F8
:104CA0009B693B613B6923F0F0033B617B681B011F
:104CB0003A6913433B617B6923F00A037B617A699C
:104CC000BB6813437B61FB683A699A61FB687A6948
:104CD0001A6200BF1C37BD4680BC704780B487B0E5
:104CE00000AFF860B9607A60FB681B6A23F01002BD
:104CF000FB681A62FB689B697B61FB681B6A3B610E
:104D00007B6923F470437B617B681B037A691343DF
:104D10007B613B6923F0A0033B61BB681B013A69DF
:104D200013433B61FB687A699A61FB683A691A62CE
:104D300000BF1C37BD4680BC704780B485B000AF53
:104D4000786039607B689B68FB60FB6823F07003C8
:104D5000FB603A68FB68134343F00703FB607B6822
:104D6000FA689A6000BF1437BD4680BC704780B4B3
:104D700087B000AFF860B9607A603B60FB689B6801
:104D80007B617B6923F47F437B613B681A027B680C
:104D90001A43BB6813437A6913437B61FB687A69E2
:104DA0009A6000BF1C37BD4680BC704780B485B098
:104DB00000AF786039607B6893F83C30012B01D1FB
:104DC000022346E07B68012283F83C207B680222B4
:104DD00083F83D207B681B685B68FB607B681B6811
:104DE0009B68BB60FB6823F07003FB603B681B683B
:104DF000FA681343FB607B681B68FA685A607B683B
:104E00001B68164A93420ED07B681B68B3F1804F33
:104E100009D07B681B68124A934204D07B681B68E8
:104E2000104A93420CD1BB6823F08003BB603B68FF
:104E30005B68BA681343BB607B681B68BA689A609A
:104E40007B68012283F83D207B68002283F83C20A8
:104E5000002318461437BD4680BC7047002C014023
:104E6000000400400008004080B483B000AF7860C8
:104E700000BF0C37BD4680BC704780B483B000AF24
:104E8000786000BF0C37BD4680BC704780B582B0EB
:104E900000AF78607B68002B01D101233FE07B6885
:104EA00093F83D30DBB2002B06D17B68002283F8FB
:104EB0003C207868FCF748FD7B68242283F83D207D
:104EC0007B681B68DA687B681B6822F40052DA6032
:104ED000786800F01DFC7B681B681A697B681B689A
:104EE00022F490421A617B681B685A697B681B68D0
:104EF00022F02A025A617B681B68DA687B681B68AB
:104F000042F40052DA607B6800221A647B68202237
:104F100083F83D207B68202283F83E20002318463A
:104F20000837BD4680BD80B58AB002AFF860B96071
:104F30003B601346FB8000237B61FB6893F83D30A8
:104F4000DBB2202B7CD1BB68002B02D0FB88002B6E
:104F500001D1012375E0FB6893F83C30012B01D1AE
:104F600002236EE0FB68012283F83C20FB680022EC
:104F70001A64FB68212283F83D20FCF7F9FF786171
:104F8000FB68FA889A84FB68FA88DA84FB689B6875
:104F9000B3F5805F08D1FB681B69002B04D10023A7
:104FA000FB61BB68BB6103E0BB68FB610023BB61C5
:104FB000FB68002283F83C202AE03B6800937B6971
:104FC00000228021F86800F008FA0346002B01D087
:104FD000032336E0FB69002B0BD1BB691B881A4603
:104FE000FB681B68C2F308025A60BB690233BB61ED
:104FF00007E0FB691A78FB681B685A60FB6901339C
:10500000FB61FB68DB8C9BB2013B9AB2FB68DA84E4
:10501000FB68DB8C9BB2002BCFD13B6800937B6994
:1050200000224021F86800F0D8F90346002B01D097
:10503000032306E0FB68202283F83D20002300E0E4
:10504000022318462037BD4680BD000080B58AB0D7
:1050500000AF78607B681B681B687B627B681B689D
:10506000DB683B627B681B685B69FB610023BB619B
:1050700000237B617B6A03F00F03BB61BB69002BDC
:105080000DD17B6A03F02003002B08D03B6A03F0AC
:105090002003002B03D0786800F090FA7BE1BB6915
:1050A000002B00F0B180FB6903F00103002B05D158
:1050B0003B6A03F49073002B00F0A6807B6A03F038
:1050C0000103002B0AD03B6A03F48073002B05D048
:1050D0007B681B6C43F001027B681A647B6A03F0F7
:1050E0000403002B0AD0FB6903F00103002B05D059
:1050F0007B681B6C43F002027B681A647B6A03F0D6
:105100000203002B0AD0FB6903F00103002B05D03A
:105110007B681B6C43F004027B681A647B6A03F0B3
:105120000803002B0FD03B6A03F02003002B04D1AF
:10513000FB6903F00103002B05D07B681B6C43F077
:1051400008027B681A647B681B6C002B00F01E81D0
:105150007B6A03F02003002B07D03B6A03F0200397
:10516000002B02D0786800F029FA7B681B685B6925
:1051700003F04003002B14BF01230023DBB27B614B
:105180007B681B6C03F00803002B02D17B69002BAA
:1051900031D0786800F06BF97B681B685B6903F0BD
:1051A0004003002B23D07B681B685A697B681B680F
:1051B00022F040025A617B689B6B002B13D07B6806
:1051C0009B6B764A5A637B689B6B1846FDF7A0FD84
:1051D0000346002B16D07B689B6B5B6B7A68926BE7
:1051E000104698470EE0786800F0E3F80AE0786827
:1051F00000F0DFF806E0786800F0DBF87B6800225A
:105200001A64C3E000BFC1E07B681B6B012B40F058
:10521000A1807B6A03F01003002B00F09B803B6AA7
:1052200003F01003002B00F095800023FB607B68E7
:105230001B681B68FB607B681B685B68FB60FB6826
:105240007B681B685B6903F04003002B4ED07B68D2
:105250009B6B1B685B683B823B8A002B00F098804D
:105260007B689B8D3A8A9A4280F092807B683A8A6A
:10527000DA857B689B6B9B69202B2BD07B681B6836
:10528000DA687B681B6822F48072DA607B681B68CE
:105290005A697B681B6822F001025A617B681B68AF
:1052A0005A697B681B6822F040025A617B682022A1
:1052B00083F83E207B6800221A637B681B68DA68EB
:1052C0007B681B6822F01002DA607B689B6B1846D3
:1052D000FDF7E3FC7B689A8D7B68DB8D9BB2D31A6C
:1052E0009BB21946786800F06DF851E07B689A8DA2
:1052F0007B68DB8D9BB2D31A7B827B68DB8D9BB294
:10530000002B47D07B8A002B44D07B681B68DA686F
:105310007B681B6822F49072DA607B681B685A69AC
:105320007B681B6822F001025A617B68202283F8A7
:105330003E207B6800221A637B681B68DA687B6802
:105340001B6822F01002DA607B8A1946786800F048
:1053500039F81FE07B6A03F08003002B08D03B6A1A
:1053600003F08003002B03D0786800F0C0F812E04F
:105370007B6A03F04003002B0DD03B6A03F040032F
:10538000002B08D0786800F001F904E000BF02E0CB
:1053900000BF00E000BF2837BD4680BDC7540008ED
:1053A00080B483B000AF786000BF0C37BD4680BCCE
:1053B000704780B483B000AF786000BF0C37BD4643
:1053C00080BC704780B483B000AF78600B467B80B0
:1053D00000BF0C37BD4680BC704780B584B000AFBD
:1053E000F860B9603B601346FB712CE0BB69B3F118
:1053F000FF3F28D0BB69002B07D0FCF7B9FD024660
:105400003B68D31ABA699A421DD2FB681B68DA68F6
:10541000FB681B6822F4D072DA60FB681B685A696B
:10542000FB681B6822F001025A61FB68202283F8A6
:105430003D20FB68202283F83E20FB68002283F891
:105440003C2003230FE0FB681B681A68BB6813400D
:10545000BA689A420CBF01230023DBB21A46FB79DB
:105460009A42C3D0002318461037BD4680BD80B491
:1054700083B000AF78607B681B68DA687B681B6864
:1054800022F49072DA607B681B685A697B681B683B
:1054900022F001025A617B681B6B012B07D17B68EC
:1054A0001B68DA687B681B6822F01002DA607B6890
:1054B000202283F83E207B6800221A6300BF0C374D
:1054C000BD4680BC704780B584B000AF78607B6813
:1054D0005B6AFB60FB680022DA85FB680022DA84E5
:1054E000F868FFF766FF00BF1037BD4680BD80B487
:1054F00085B000AF78607B6893F83D30DBB2212B3C
:105500003ED17B689B68B3F5805F14D17B681B69D3
:10551000002B10D17B681B6AFB60FB681B881A4656
:105520007B681B68C2F308025A607B681B6A9A1C7E
:105530007B681A6208E07B681B6A591C7A681162F2
:105540001A787B681B685A607B68DB8C9BB2013BD6
:105550009BB27A681946D184002B0FD17B681B68F7
:10556000DA687B681B6822F08002DA607B681B685F
:10557000DA687B681B6842F04002DA60002300E0D2
:10558000022318461437BD4680BC704780B582B0F0
:1055900000AF78607B681B68DA687B681B6822F064
:1055A0004002DA607B68202283F83D207868FFF7AC
:1055B000F7FE002318460837BD4680BD80B586B08B
:1055C00000AF78607B6893F83E30DBB2222B40F06E
:1055D00099807B689B68B3F5805F17D17B681B69F6
:1055E000002B13D100237B617B689B6A3B617B6846
:1055F0001B685B689BB2C3F308039AB23B691A80CD
:105600007B689B6A9A1C7B689A6226E07B689B6A2F
:105610007B6100233B617B689B68B3F5805F07D0AB
:105620007B689B68002B0AD17B681B69002B06D125
:105630007B681B685B68DAB27B691A7008E07B687C
:105640001B685B68DBB203F07F03DAB27B691A7018
:105650007B689B6A5A1C7B689A627B68DB8D9BB275
:10566000013B9BB27A681946D185002B48D17B68F3
:105670001B68DA687B681B6822F02002DA607B68AE
:105680001B68DA687B681B6822F48072DA607B68CA
:105690001B685A697B681B6822F001025A617B68AB
:1056A000202283F83E207B681B6B012B23D17B6873
:1056B00000221A637B681B68DA687B681B6822F02B
:1056C0001002DA607B681B681B6803F01003102B64
:1056D0000AD10023FB607B681B681B68FB607B684A
:1056E0001B685B68FB60FB687B689B8D194678686C
:1056F000FFF768FE02E07868FCF784FB002302E015
:10570000002300E0022318461837BD4680BD000084
:1057100080B584B000AF78607B681B681B6923F498
:1057200040517B68DA687B681B680A431A617B68B2
:105730009A687B681B691A437B685B691343BB608B
:105740007B681B68DB6823F4B05323F00C037A6892
:105750001268B9680B43D3607B681B685B6923F4EC
:1057600040717B689A697B681B680A435A617B6851
:105770001B682C4A934203D1FEF75CFEF86002E0FE
:10578000FEF744FEF860FA6813469B0013449A0043
:105790001A447B685B689B00B2FBF3F3224AA2FBCE
:1057A00003235B091901FA6813469B0013449A000E
:1057B0001A447B685B689B00B2FBF3F21A4BA3FBB5
:1057C00002035B09642000FB03F3D31A1B0132338D
:1057D000154AA2FB03235B0903F0F0031944FA689E
:1057E00013469B0013449A001A447B685B689B0035
:1057F000B2FBF3F20C4BA3FB02035B09642000FB3A
:1058000003F3D31A1B013233074AA2FB03235B09BC
:1058100003F00F027B681B680A449A6000BF1037D0
:10582000BD4680BD003801401F85EB51014B186813
:10583000704700BF3800002070B500260C4D0D4C9D
:10584000641BA410A64209D102F002FF00260A4DF3
:105850000A4C641BA410A64205D170BD55F8043B48
:1058600098470136EEE755F8043B98470136F2E7D2
:10587000148B0008148B0008148B0008188B000888
:10588000024B0146186800F07BB800BF38000020CA
:10589000024B0146186800F00BB800BF380000202A
:1058A00003460244934200D1704703F8011BF9E715
:1058B00038B50546002940D051F8043C0C1F002B98
:1058C000B8BFE41801F0FAFB1C4A136833B96360EF
:1058D00014602846BDE8384001F0F6BBA34208D961
:1058E000206821188B4201BF19685B680918216084
:1058F000EDE71A465B680BB1A342FAD9116850185C
:10590000A0420BD120680144501883421160E0D1BD
:1059100018685B68014411605360DAE702D90C2310
:105920002B60D6E7206821188B4201BF19685B689D
:105930000918216063605460CBE738BD98050020EA
:1059400070B50E4E0C463168054611B900F0ECFCFE
:1059500030602146284600F0E7FC431C0AD0C41CF6
:1059600024F00304A04207D0211A284600F0DCFCF2
:10597000013001D14FF0FF34204670BD9C0500205E
:105980002DE9F041CD1C25F0030508350C2D38BF5D
:105990000C25002D074601DBA94205D90C23002662
:1059A0003B603046BDE8F0812E4E01F087FB336846
:1059B0001C4634BB29463846FFF7C2FF431C044649
:1059C0004DD134682646002E40D1236831463846F2
:1059D00004EB030800F0A8FC80453AD121680335A8
:1059E0006D1A25F0030508350C2D38BF0C253846F7
:1059F0002946FFF7A5FF01302BD023682B442360F5
:105A00000EE02268521B1ED40B2A16D96119A3423C
:105A1000256018BF5960636808BF316062514B60F0
:105A2000384604F10B0601F04FFB26F00706231D54
:105A3000F21AB6D09B1BA350B3E76268A3420CBF17
:105A400032605A60ECE723466468B2E73446766811
:105A5000B9E70C2338463B6001F036FBA1E725602F
:105A6000DEE700BF98050020002B2DE9F0471F4618
:105A7000BBBF03F100431F4600232D2388B014460B
:105A8000129A109D1370149BDDF84CA023F020088F
:105A9000B8F1460F05D0B8F1450F00D1013502230A
:105AA00000E0032307AA049206AACDE902A2CDE9E9
:105AB000003522463B4600F0F3FCB8F1470F06469E
:105AC00002D1119BDB0722D5B8F1460F06EB050981
:105AD00010D13378302B0AD10022002320463946DA
