:020000040800F2
:100000000050002055100008F50D0008FB0D0008F9
:10001000010E0008070E00080D0E00080000000089
:10002000000000000000000000000000130E0008A7
:100030001F0E0008000000002B0E0008370E0008FD
:100040009D1000089D1000089D1000089D100008DC
:100050009D1000089D1000089D1000089D100008CC
:100060009D1000089D1000089D100008450E000816
:100070009D1000089D1000089D1000089D100008AC
:100080009D1000089D100008590E00089D100008E2
:100090009D1000089D1000089D1000089D1000088C
:1000A0009D1000089D1000089D1000089D1000087C
:1000B0006D0E00089D1000089D1000089D1000089E
:1000C0009D1000089D1000089D1000089D1000085C
:1000D0009D1000089D1000089D1000089D1000084C
:1000E0009D1000089D1000089D10000800000000F1
:1000F0000000000000000000000000000000000000
:0C01000000000000000000005FF808F1A3
:10010C0010B5054C237833B9044B13B10448AFF345
:10011C0000800123237010BD74000020000000003B
:10012C00F444000808B5034B1BB103490348AFF373
:10013C00008008BD0000000078000020F444000896
:10014C0080B582B000AF7860054A7B6813600222EC
:10015C000449786801F0FCF800BF0837BD4680BD43
:10016C00940000209800002080B400AF024B5B8804
:10017C001846BD4680BC70479800002080B400AF84
:10018C00024B1B881846BD4680BC70479800002067
:10019C0080B582B000AF0346FB80FB88184600F0A8
:1001AC00DBFF00BF0837BD4680BD000080B586B0C0
:1001BC0002AF03460A46FB711346BB71FB7923F071
:1001CC000F03FB73FB791B01BB731C4BDB7A002BFE
:1001DC0007D0FB7B43F00803FB73BB7B43F00803A6
:1001EC00BB73BB79012B07D1FB7B43F00103FB7382
:1001FC00BB7B43F00103BB73FB7B43F00403DBB21B
:10020C003B72FB7B7B72BB7B43F00403DBB2BB72A8
:10021C00BB7BFB72094B1868084B1B799BB25B00CC
:10022C0099B207F108024FF47A730093042302F099
:10023C004DFA00BF1037BD4680BD00BFA0000020A6
:10024C0080B584B000AF7860084611461A46034664
:10025C00FB700B46BB7013467B704A4A7B6813607D
:10026C00484AFB781371474A7B785371454ABB78EF
:10027C009371444B28221A72424B0622DA71414B7D
:10028C000C225A723F4B14229A723E4B0822DA729D
:10029C003220FFF77DFF3C4B1B68002B04D03A4B00
:1002AC001B68184604F016F8BB787A7802FB03F347
:1002BC00DB00184604F006F803461A46324B1A6067
:1002CC000023FB7308E0304B1A68FB7B134420229D
:1002DC001A70FB7B0133FB73FA7B2A4B9B79194613
:1002EC00284B5B7901FB03F39A42ECDB00213320B2
:1002FC00FFF75CFF00213320FFF758FF0520FFF7C5
:10030C0047FF00213220FFF751FF0520FFF740FF88
:10031C0000212020FFF74AFF0520FFF739FF194B7A
:10032C00DB7900211846FFF741FF0120FFF730FF72
:10033C00144B5B7A00211846FFF738FF0120FFF7BA
:10034C0027FF104B9B7A00211846FFF72FFF012047
:10035C00FFF71EFF0B4B1B7A00211846FFF726FFF9
:10036C000120FFF715FF00210120FFF71FFF0120DF
:10037C00FFF70EFF00210220FFF718FF00BF103718
:10038C00BD4680BDA00000209C00002080B584B03C
:10039C0000AF03460A46FB711346BB710023FB7387
:1003AC001D4B9A79FB79B3FBF2F101FB02F29B1A1C
:1003BC00FB71194B5A79BB79B3FBF2F101FB02F2D9
:1003CC009B1ABB71FB79032B19D801A252F823F0AD
:1003DC00ED030008F3030008FB0300080304000806
:1003EC00BB79FB730BE0BB794033FB7307E0BB7944
:1003FC001433FB7303E0BB795433FB7300BFFB7BFB
:10040C0063F07F03DBB200211846FFF7CFFE00BF7D
:10041C001037BD4680BD00BFA000002080B483B063
:10042C0000AF0346FB710D4B1B680D4A1278114649
:10043C000C4A527901FB02F20B4909780A44134425
:10044C00FA791A70084B1B780133DAB2064B1A7022
:10045C0000BF0C37BD4680BC704700BF9C0000201D
:10046C00AD000020A0000020AC00002080B584B0BE
:10047C0000AF0346FB710B46BB711346BB800023D8
:10048C00FB73304BBB60FB7903F00103DAB22E4BEC
:10049C001A70BB7903F00F03DAB22C4B1A70B7F950
:1004AC000430002B07DABB885B429BB2BB802D204B
:1004BC00FFF7B4FF11E0B7F90430002B06D1302060
:1004CC00FFF7ACFF3020FFF7A9FF38E0B7F9043095
:1004DC00092B02DC3020FFF7A1FF0A23BB732BE0B2
:1004EC00B7F90430BA689A420DD80123FB73B7F9F7
:1004FC000420BB68B2FBF3F3DBB23033DBB218463B
:10050C00FFF78CFF05E0FB7B002B02D03020FFF7C0
:10051C0085FFB7F90430BA68B3FBF2F2B96801FB96
:10052C0002F29B1ABB80BB68094AA2FB0323DB08BF
:10053C00BB60BB7B013BBB73BB7B002BD0D11037AB
:10054C00BD4680BD00CA9A3BAD000020AC00002027
:10055C00CDCCCCCC80B483B000AF0023FB7108E0D1
:10056C000C4B1A68FB79134420221A70FB79013367
:10057C00FB71FA79084B9B791946074B5B7901FBA8
:10058C0003F39A42ECDB00BF00BF0C37BD4680BCC6
:10059C00704700BF9C000020A000002080B582B0F6
:1005AC0000AF0023FB7121E0FB7900211846FFF717
:1005BC00EDFE0023BB7111E0114B1B68FA79114958
:1005CC00497902FB01F1BA790A4413441B780121E1
:1005DC001846FFF7EBFDBB790133BB71094B5B7917
:1005EC00BA799A42E8D3FB790133FB71054B9B79BD
:1005FC00FA799A42D8D300BF00BF0837BD4680BDF8
:10060C009C000020A000002080B500AF00F042FD4F
:10061C0000F066F800F012FA00F0F2F900F02CF994
:10062C0000F076F900F0ACF800F0F8F800F0BEF944
:10063C00234803F0BBF8234803F06EF8204800F081
:10064C008BFC4FF4FA6000F0A7FC1F48FFF778FD15
:10065C001E4800F0D5FC1023022227211C48FFF76E
:10066C00EFFD00F0BBFC0346002BFAD0194B1B88A6
:10067C00042B05D9174B1B88053B9AB2154B1A80D6
:10068C00FFF768FF0821144800F0C8FCFFF776FD5F
:10069C0003461BB21A4600210020FFF7E7FEFFF7C6
:1006AC0063FD03461BB21A4600210120FFF7DEFE54
:1006BC004FF40051094801F0ABFEFFF76FFFD0E794
:1006CC0078010020C0010020B000002008020020AA
:1006DC0024010020900000200C450008001001406F
:1006EC0080B594B000AF07F12803282200211846EA
:1006FC0003F0F8FD07F1140300221A605A609A60A7
:10070C00DA601A613B1D00221A605A609A60DA6046
:10071C000223BB620123BB631023FB6300237B64B6
:10072C0007F12803184602F0D7FA0346002B01D034
:10073C0000F0F0F90F237B610023BB610023FB6108
:10074C0000233B6200237B6207F11403002118464F
:10075C0002F044FD0346002B01D000F0DBF902232C
:10076C007B600023FB603B1D184602F0CFFE034666
:10077C00002B01D000F0CEF900BF5037BD4680BD34
:10078C0080B584B000AF3B1D00221A605A609A609D
:10079C00204B214A1A601F4B4FF480729A601D4BFC
:1007AC0001221A731B4B00221A751A4B4FF460224C
:1007BC00DA61184B00225A60164B02221A61154856
:1007CC0000F0EEFC0346002B01D000F0A3F900234F
:1007DC007B600123BB600723FB603B1D19460D4862
:1007EC0000F07CFF0346002B01D000F093F90123AD
:1007FC007B600223BB603B1D1946064800F06EFF70
:10080C000346002B01D000F085F900BF1037BD4620
:10081C0080BD00BFB00000200024014080B500AFB7
:10082C00124B134A1A60114B124A5A600F4B00229A
:10083C009A600E4B0022DA600C4B4FF480421A6126
:10084C000A4B00225A61094B00229A61074B002285
:10085C00DA61064B00221A62044801F0F3FD0346EC
:10086C00002B01D000F056F900BF80BD2401002000
:10087C0000540040A086010080B586B000AF07F19F
:10088C00080300221A605A609A60DA603B46002224
:10089C001A605A601D4B4FF080421A601B4B41F698
:1008AC003F725A60194B00229A60184B3122DA6061
:1008BC00164B00221A61154B00229A61134802F064
:1008CC00DBFE0346002B01D000F024F94FF48053DB
:1008DC00BB6007F1080319460C4803F0C1F8034646
:1008EC00002B01D000F016F900233B6000237B6045
:1008FC003B461946054803F093FA0346002B01D0FA
:10090C0000F008F900BF1837BD4680BD7801002003
:10091C0080B586B000AF07F1080300221A605A6058
:10092C009A60DA603B4600221A605A601D4B1E4AE0
:10093C001A601C4B07225A601A4B00229A60194B02
:10094C004FF6FE72DA60174B00221A61154B00222B
:10095C009A61144802F090FE0346002B01D000F07F
:10096C00D9F84FF48053BB6007F1080319460D48C2
:10097C0003F076F80346002B01D000F0CBF80023EF
:10098C003B6000237B603B461946064803F048FA5F
:10099C000346002B01D000F0BDF800BF1837BD4650
:1009AC0080BD00BFC00100200004004080B500AF36
:1009BC00114B124A1A60104B4FF416525A600E4BE0
:1009CC0000229A600C4B0022DA600B4B00221A6159
:1009DC00094B0C225A61084B00229A61064B0022EB
:1009EC00DA61054803F08CFA0346002B01D000F0C5
:1009FC0091F800BF80BD00BF080200200038014004
:100A0C0080B582B000AF0C4B5B690B4A43F001031D
:100A1C005361094B5B6903F001037B607B68002227
:100A2C0000210B2001F033F90B2001F04CF900BF31
:100A3C000837BD4680BD00BF0010024080B588B0AD
:100A4C0000AF07F1100300221A605A609A60DA6056
:100A5C002D4B9B692C4A43F0100393612A4B9B69E5
:100A6C0003F01003FB60FB68274B9B69264A43F09D
:100A7C0020039361244B9B6903F02003BB60BB688C
:100A8C00214B9B69204A43F0040393611E4B9B69E5
:100A9C0003F004037B607B681B4B9B691A4A43F091
:100AAC0008039361184B9B6903F008033B603B6898
:100ABC0000224FF40051154801F092FC00227821DD
:100ACC00134801F08DFC4FF400533B6101237B6113
:100ADC000123BB610223FB6107F1100319460B488C
:100AEC0001F0FAFA78233B6101237B610123BB619E
:100AFC000223FB6107F110031946054801F0ECFADB
:100B0C0000BF2037BD4680BD0010024000100140E0
:100B1C000008014080B400AF72B600BFFEE70000D1
:100B2C0080B485B000AF154B9B69144A43F00103A8
:100B3C009361124B9B6903F00103BB60BB680F4BC5
:100B4C00DB690E4A43F08053D3610C4BDB6903F035
:100B5C0080537B607B680A4B5B68FB60FB6823F00F
:100B6C00E063FB60FB6843F00073FB60044AFB68C6
:100B7C00536000BF1437BD4680BC70470010024064
:100B8C000000014080B588B000AF786007F1100319
:100B9C0000221A605A609A60DA607B681B682C4AE3
:100BAC00934251D12B4B9B692A4A43F400739361B6
:100BBC00284B9B6903F40073FB60FB68254B9B6916
:100BCC00244A43F004039361224B9B6903F0040312
:100BDC00BB60BB6803233B6103237B6107F11003FC
:100BEC0019461D4801F078FA1C4B1D4A1A601B4B24
:100BFC0000225A60194B00229A60184B8022DA604E
:100C0C00164B4FF480721A61144B4FF480625A6188
:100C1C00124B20229A61114B0022DA610F4801F02D
:100C2C006DF80346002B01D0FFF774FF7B680B4A6D
:100C3C001A620A4A7B68536200220021122001F0DA
:100C4C0026F8122001F03FF800BF2037BD4680BDCA
:100C5C00002401400010024000080140E000002088
:100C6C000800024080B588B000AF786007F110032F
:100C7C0000221A605A609A60DA607B681B68154A19
:100C8C00934223D1144B9B69134A43F0080393619D
:100C9C00114B9B6903F00803FB60FB68C0233B61AD
:100CAC0012237B610323FB6107F1100319460B48E8
:100CBC0001F012FA084BDB69074A43F40013D361C5
:100CCC00054BDB6903F40013BB60BB6800BF203726
:100CDC00BD4680BD0054004000100240000C014095
:100CEC0080B584B000AF78607B681B68B3F1804F2F
:100CFC0014D1154BDB69144A43F00103D361124B39
:100D0C00DB6903F00103FB60FB68002200211C205F
:100D1C0000F0BDFF1C2000F0D6FF10E07B681B68C4
:100D2C000A4A93420BD1084BDB69074A43F0020392
:100D3C00D361054BDB6903F00203BB60BB6800BFEA
:100D4C001037BD4680BD00BF0010024000040040BB
:100D5C0080B588B000AF786007F1100300221A60EC
:100D6C005A609A60DA607B681B681C4A934231D1E6
:100D7C001B4B9B691A4A43F480439361184B9B6944
:100D8C0003F48043FB60FB68154B9B69144A43F0EA
:100D9C0004039361124B9B6903F00403BB60BB68B3
:100DAC004FF400733B6102237B610323FB6107F16A
:100DBC00100319460B4801F08FF94FF480633B6127
:100DCC0000237B610023BB6107F110031946054822
:100DDC0001F082F900BF2037BD4680BD00380140CC
:100DEC00001002400008014080B400AFFEE780B460
:100DFC0000AFFEE780B400AFFEE780B400AFFEE7C3
:100E0C0080B400AFFEE780B400AF00BFBD4680BC2D
:100E1C00704780B400AF00BFBD4680BC704780B443
:100E2C0000AF00BFBD4680BC704780B500AF00F07E
:100E3C0077F900BF80BD000080B500AF024801F01B
:100E4C0017F800BF80BD00BFE000002080B500AFE8
:100E5C00024800F05BFB00BF80BD00BFB00000206B
:100E6C0080B500AF024802F0F3FC00BF80BD00BFAC
:100E7C007801002080B586B000AF7860144A154B1D
:100E8C00D31A7B617B693B61134B1B68002B02D12E
:100E9C00114B124A1A60104B1A687B6813443A695A
:100EAC009A4207D203F0E4F903460C221A604FF081
:100EBC00FF3309E0084B1B68FB60074B1A687B6823
:100ECC001344054A1360FB6818461837BD4680BDAD
:100EDC0000500020000400004C0200207002002092
:100EEC0080B400AF00BFBD4680BC704780B400AF7B
:100EFC000C4B1B78002B10D00A4B1B78013BDAB241
:100F0C00084B1A70074B1B78002B06D1064B1A782E
:100F1C00044B1A70054B01221A7000BFBD4680BCF1
:100F2C00704700BF5502002005000020540200202D
:100F3C0080B582B000AF78607B681A68054B1B687F
:100F4C001B689A4201D1FFF7D1FF00BF0837BD469D
:100F5C0080BD00BF5002002080B582B000AF786029
:100F6C00094A7B681360094B1A78094B1A70094BB4
:100F7C0000221A70044B1B68184602F017FC00BFC5
:100F8C000837BD4680BD00BF500200200500002080
:100F9C00550200205402002080B483B000AF0346F9
:100FAC00FB80FB88094A127893FBF2F3DAB2084B08
:100FBC001A70074B1A78074B1A70074B00221A70DD
:100FCC0000BF0C37BD4680BC704700BF040000203A
:100FDC0005000020550200205402002080B400AF10
:100FEC00064B1B78002B04D0044B00221A700123F3
:100FFC0000E000231846BD4680BC70475402002018
:10100C0080B483B000AF7860034A7B68136000BF84
:10101C000C37BD4680BC70475802002080B582B0AA
:10102C0000AF78600B46FB70064B1868FB789AB2E1
:10103C004FF47A73796802F0B0FF00BF0837BD46F1
:10104C0080BD00BF580200200C480D490D4A0023FA
:10105C0002E0D458C4500433C4188C42F9D30A4A61
:10106C000A4C002301E013600432A242FBD3FFF7C9
:10107C0037FF03F003F9FFF7C7FA704700000020B1
:10108C007400002048450008740000207002002005
:10109C00FEE7000080B500AF084B1B68074A43F021
:1010AC0010031360032000F0E7FD0F2000F008F898
:1010BC00FFF736FD0023184680BD00BF002002401C
:1010CC0080B582B000AF7860124B1A68124B1B7857
:1010DC0019464FF47A73B3FBF1F3B2FBF3F31846F2
:1010EC0000F0FFFD0346002B01D001230EE07B68CE
:1010FC000F2B0AD8002279684FF0FF3000F0C7FDA3
:10110C00064A7B681360002300E001231846083769
:10111C00BD4680BD000000200C000020080000200F
:10112C0080B400AF054B1B781A46054B1B68134463
:10113C00034A136000BFBD4680BC70470C00002002
:10114C005C02002080B400AF024B1B681846BD4601
:10115C0080BC70475C02002080B584B000AF786022
:10116C00FFF7F0FFB8607B68FB60FB68B3F1FF3FF3
:10117C0005D00A4B1B781A46FB681344FB6000BF72
:10118C00FFF7E0FF0246BB68D31AFA689A42F7D819
:10119C0000BF00BF1037BD4680BD00BF0C00002053
:1011AC0080B586B000AF78600023FB7500233B61EF
:1011BC000023BB600023FB607B68002B01D1012363
:1011CC00BEE07B689B68002B7B689B6A002B09D177
:1011DC007B680022DA627B68002283F8242078681E
:1011EC00FFF7D0FC786800F0CBFB0346FB757B68FF
:1011FC009B6A03F01003002B40F09980FB7D002BC1
:10120C0040F095807B689B6A23F4885323F002039B
:10121C0043F002027B689A627B685A687B68DB69E0
:10122C001A437B681B7B5B001343BA681343BB6098
:10123C007B689B68B3F5807F03D07B689B68012B30
:10124C0002D14FF4807300E000233A6913433B61F1
:10125C007B681B7D012B19D17B681B7B002B09D173
:10126C007B689B69013B5A033B69134343F400635E
:10127C003B610BE07B689B6A43F020027B689A62BF
:10128C007B68DB6A43F001027B68DA627B681B686F
:10129C005B6823F469417B681B683A690A435A60AE
:1012AC007B681B689A68284B13407A681268B96887
:1012BC000B4393607B689B68B3F5807F03D07B689E
:1012CC009B68012B04D17B681B69013B1B05FB60F0
:1012DC007B681B68DB6A23F470017B681B68FA6807
:1012EC000A43DA627B681B689A68184B1340BA6829
:1012FC009A420BD17B680022DA627B689B6A23F0EE
:10130C00030343F001027B689A6218E07B689B6AD6
:10131C0023F0120343F010027B689A627B68DB6A4D
:10132C0043F001027B68DA620123FB7507E07B68FE
:10133C009B6A43F010027B689A620123FB75FB7D6C
:10134C0018461837BD4680BDFDF7E1FFFE0E1FFFA6
:10135C0080B586B000AFF860B9607A600023FB7589
:10136C00FB681B68644A934204D0FB681B68634AA1
:10137C00934206D1604B5B6803F47023002B40F062
:10138C00B380FB6893F82430012B01D10223AEE02B
:10139C00FB68012283F82420F86800F097FA0346D2
:1013AC00FB75FB7D002B40F09A80FB689B6A23F455
:1013BC00706323F0010343F48072FB689A62FB684C
:1013CC001B684E4A934205D14B4B5B6803F4702368
:1013DC00002B15D1FB689B6A23F48012FB689A6280
:1013EC00FB681B685B6803F48063002B26D0FB68EA
:1013FC009B6A23F4405343F48052FB689A621DE0CD
:10140C00FB689B6A43F48012FB689A62FB681B685A
:10141C00394A934204D0FB681B68384A93420DD179
:10142C00354B5B6803F48063002B07D0FB689B6A29
:10143C0023F4405343F48052FB689A62FB689B6A26
:10144C0003F48053002B06D0FB68DB6A23F0060202
:10145C00FB68DA6202E0FB680022DA62FB680022B9
:10146C0083F82420FB681B6A254A9A62FB681B6A76
:10147C00244ADA62FB681B6A234A1A63FB681B68FE
:10148C006FF002021A60FB681B689A68FB681B68A5
:10149C0042F480729A60FB68186AFB681B684C33D4
:1014AC001946BA687B6800F083FCFB681B689B6874
:1014BC0003F46023B3F5602F08D1FB681B689A68AE
:1014CC00FB681B6842F4A0029A600FE0FB681B6883
:1014DC009A68FB681B6842F480129A6006E0FB680D
:1014EC00002283F8242001E00123FB75FB7D1846C4
:1014FC001837BD4680BD00BF0024014000280140C4
:10150C000F1A00088B1A0008A71A000880B582B0C1
:10151C0000AF78607B681B685B6803F02003202BAE
:10152C0040D17B681B681B6803F00203022B39D186
:10153C007B689B6A03F01003002B05D17B689B6AC8
:10154C0043F400727B689A627B681B689B6803F4A7
:10155C006023B3F5602F1DD17B681B7B002B19D149
:10156C007B681B685A687B681B6822F020025A60F3
:10157C007B689B6A23F480727B689A627B689B6AA7
:10158C0003F48053002B05D17B689B6A43F0010266
:10159C007B689A62786800F07CF87B681B686FF057
:1015AC0012021A607B681B685B6803F08003802B57
:1015BC004FD17B681B681B6803F00403042B48D1D4
:1015CC007B689B6A03F01003002B05D17B689B6A38
:1015DC0043F400527B689A627B681B689B6803F437
:1015EC00E043B3F5E04F12D07B681B685B6803F4F3
:1015FC008063002B25D17B681B689B6803F46023F8
:10160C00B3F5602F1DD17B681B7B002B19D17B6838
:10161C001B685A687B681B6822F080025A607B68E2
:10162C009B6A23F480527B689A627B689B6A03F402
:10163C008073002B05D17B689B6A43F001027B68A9
:10164C009A62786800F043FA7B681B686FF00C02B2
:10165C001A607B681B685B6803F04003402B14D155
:10166C007B681B681B6803F00103012B0DD17B68A1
:10167C009B6A43F480327B689A62786800F01BF8AE
:10168C007B681B686FF001021A6000BF0837BD460B
:10169C0080BD80B483B000AF786000BF0C37BD460E
:1016AC0080BC704780B483B000AF786000BF0C374B
:1016BC00BD4680BC704780B483B000AF786000BF7B
:1016CC000C37BD4680BC704780B483B000AF7860E7
:1016DC0000BF0C37BD4680BC7047000080B485B09D
:1016EC0000AF786039600023FB730023BB607B681C
:1016FC0093F82430012B01D10223DCE07B6801221A
:10170C0083F824203B685B68062B1CD87B681B681D
:10171C00596B3B685A6813469B001344053B1F22C8
:10172C0002FA03F3DB4319403B6818683B685A68BC
:10173C0013469B001344053B00FA03F27B681B68BD
:10174C000A435A633CE03B685B680C2B1CD87B68F3
:10175C001B68196B3B685A6813469B001344233B68
:10176C001F2202FA03F3DB4319403B6818683B68FD
:10177C005A6813469B001344233B00FA03F27B6820
:10178C001B680A431A631BE07B681B68D96A3B68B9
:10179C005A6813469B001344413B1F2202FA03F381
:1017AC00DB4319403B6818683B685A6813469B003A
:1017BC001344413B00FA03F27B681B680A43DA626C
:1017CC003B681B68092B1CD97B681B68D9683B6874
:1017DC001A6813465B0013441E3B072202FA03F3FC
:1017EC00DB4319403B6898683B681A6813465B00FA
:1017FC0013441E3B00FA03F27B681B680A43DA6051
:10180C0019E07B681B6819693B681A6813465B0012
:10181C001344072202FA03F3DB4319403B68986830
:10182C003B681A6813465B00134400FA03F27B68AA
:10183C001B680A431A613B681B68102B03D03B687A
:10184C001B68112B32D17B681B681D4A934225D132
:10185C007B681B689B6803F40003002B26D17B6814
:10186C001B689A687B681B6842F400029A603B68AC
:10187C001B68102B1AD1134B1B68134AA2FB0323B2
:10188C009A0C13469B0013445B00BB6002E0BB68E0
:10189C00013BBB60BB68002BF9D107E07B689B6AFE
:1018AC0043F020027B689A620123FB737B68002261
:1018BC0083F82420FB7B18461437BD4680BC704748
:1018CC00002401400000002083DE1B4380B584B05F
:1018DC0000AF78600023FB600023BB607B681B6853
:1018EC009B6803F00103012B40D07B681B689A684E
:1018FC007B681B6842F001029A601F4B1B681F4AF1
:10190C00A2FB03239B0CBB6002E0BB68013BBB60EA
:10191C00BB68002BF9D1FFF715FCF8601FE0FFF74F
:10192C0011FC0246FB68D31A022B18D97B681B6882
:10193C009B6803F00103012B11D07B689B6A43F079
:10194C0010027B689A627B68DB6A43F001027B6859
:10195C00DA627B68002283F82420012307E07B688D
:10196C001B689B6803F00103012BD8D10023184698
:10197C001037BD4680BD00BF0000002083DE1B4336
:10198C0080B584B000AF78600023FB607B681B6877
:10199C009B6803F00103012B2ED17B681B689A68AE
:1019AC007B681B6822F001029A60FFF7CBFBF860A2
:1019BC001BE0FFF7C7FB0246FB68D31A022B14D9B6
:1019CC007B681B689B6803F00103012B0DD17B68BE
:1019DC009B6A43F010027B689A627B68DB6A43F077
:1019EC0001027B68DA62012307E07B681B689B6855
:1019FC0003F00103012BDCD0002318461037BD4641
:101A0C0080BD80B584B000AF78607B685B6AFB609A
:101A1C00FB689B6A03F05003002B27D1FB689B6A81
:101A2C0043F40072FB689A62FB681B689B6803F4C2
:101A3C006023B3F5602F15D1FB681B7B002B11D1F4
:101A4C00FB689B6A23F48072FB689A62FB689B6A52
:101A5C0003F48053002B05D1FB689B6A43F0010211
:101A6C00FB689A62F868FFF714FE04E0FB681B6AD7
:101A7C001B6B7868984700BF1037BD4680BD80B59A
:101A8C0084B000AF78607B685B6AFB60F868FFF736
:101A9C0009FE00BF1037BD4680BD80B584B000AFD5
:101AAC0078607B685B6AFB60FB689B6A43F0400272
:101ABC00FB689A62FB68DB6A43F00402FB68DA623B
:101ACC00F868FFF701FE00BF1037BD4680BD80B43B
:101ADC0083B000AF786000BF0C37BD4680BC704748
:101AEC0080B485B000AF78607B6803F00703FB60BF
:101AFC000C4BDB68BB60BA684FF6FF031340BB604E
:101B0C00FB681A02BB68134343F0BF6343F4003312
:101B1C00BB60044ABB68D36000BF1437BD4680BCB1
:101B2C00704700BF00ED00E080B400AF044BDB68F1
:101B3C001B0A03F007031846BD4680BC704700BF64
:101B4C0000ED00E080B483B000AF0346FB7197F961
:101B5C000730002B0BDBFB7903F01F02064997F9CA
:101B6C0007305B09012000FA02F241F8232000BF84
:101B7C000C37BD4680BC704700E100E080B483B0F8
:101B8C0000AF03463960FB7197F90730002B0ADB75
:101B9C003B68DAB20C4997F907301201D2B20B4408
:101BAC0083F800230AE03B68DAB20849FB7903F0BA
:101BBC000F03043B1201D2B20B441A7600BF0C3750
:101BCC00BD4680BC704700BF00E100E000ED00E0C6
:101BDC0080B489B000AFF860B9607A60FB6803F03C
:101BEC000703FB61FB69C3F10703042B28BF042324
:101BFC00BB61FB690433062B02D9FB69033B00E094
:101C0C0000237B614FF0FF32BB6902FA03F3DA4326
:101C1C00BB681A407B699A404FF0FF317B6901FA2F
:101C2C0003F3D9437B680B40134318462437BD4656
:101C3C0080BC704780B582B000AF78607B68013B98
:101C4C00B3F1807F01D301230FE00A4A7B68013B8B
:101C5C0053600F214FF0FF30FFF790FF054B002230
:101C6C009A60044B07221A60002318460837BD46B9
:101C7C0080BD00BF10E000E080B582B000AF78609E
:101C8C007868FFF72DFF00BF0837BD4680BD80B5D3
:101C9C0086B000AF0346B9607A60FB7300237B61AA
:101CAC00FFF742FF78617A68B9687869FFF790FFAF
:101CBC00024697F90F3011461846FFF75FFF00BF39
:101CCC001837BD4680BD80B582B000AF0346FB71AE
:101CDC0097F907301846FFF735FF00BF0837BD46A8
:101CEC0080BD80B582B000AF78607868FFF7A2FF46
:101CFC00034618460837BD4680BD000080B485B049
:101D0C0000AF78600023FB607B68002B01D10123BE
:101D1C0043E07B681B681A46224B1344224AA2FB01
:101D2C0003231B099A007B681A647B681F4ADA63D9
:101D3C007B68022283F821207B681B681B68FB6090
:101D4C00FB6823F47F5323F03003FB607B685A68F5
:101D5C007B689B681A437B68DB681A437B681B694A
:101D6C001A437B685B691A437B689B691A437B68DF
:101D7C00DB691343FA681343FB607B681B68FA68E2
:101D8C001A607B6800229A637B68012283F8212009
:101D9C007B68002283F82020002318461437BD46A8
:101DAC0080BC7047F8FFFDBFCDCCCCCC000002400E
:101DBC0080B586B000AFF860B9607A603B600023F4
:101DCC00FB75FB6893F82030012B01D102234AE00C
:101DDC00FB68012283F82020FB6893F82130012B4B
:101DEC003AD1FB68022283F82120FB6800229A6317
:101DFC00FB681B681A68FB681B6822F001021A60FA
:101E0C003B687A68B968F86800F038F9FB68DB6AF7
:101E1C00002B08D0FB681B681A68FB681B6842F033
:101E2C000E021A600FE0FB681B681A68FB681B68DF
:101E3C0022F004021A60FB681B681A68FB681B68B6
:101E4C0042F00A021A60FB681B681A68FB681B6880
:101E5C0042F001021A6005E0FB68002283F82020A2
:101E6C000223FB75FB7D18461837BD4680BD00006C
:101E7C0080B584B000AF78607B68DB6B1B68FB605F
:101E8C007B681B681B68BB607B681B6C04229A40D8
:101E9C00FB681340002B4FD0BB6803F00403002BEE
:101EAC004AD07B681B681B6803F02003002B07D10A
:101EBC007B681B681A687B681B6822F004021A6036
:101ECC007B681B68664A934229D07B681B68654A0D
:101EDC00934222D07B681B68634A93421AD07B687A
:101EEC001B68624A934212D07B681B68604A93421B
:101EFC000AD07B681B685F4A934202D14FF480037F
:101F0C000EE04FF080630BE04FF4802308E04FF4B9
:101F1C00804305E04FF4806302E0402300E004239B
:101F2C00554A53607B68DB6A002B00F094807B6819
:101F3C00DB6A786898478EE07B681B6C02229A40BB
:101F4C00FB681340002B56D0BB6803F00203002B38
:101F5C0051D07B681B681B6803F02003002B0BD14E
:101F6C007B681B681A687B681B6822F00A021A607F
:101F7C007B68012283F821207B681B68384A9342D6
:101F8C0029D07B681B68374A934222D07B681B6838
:101F9C00354A93421AD07B681B68344A934212D05C
:101FAC007B681B68324A93420AD07B681B68314AB3
:101FBC00934202D14FF400130EE04FF000730BE08C
:101FCC004FF4003308E04FF4005305E04FF4007376
:101FDC0002E0202300E00223274A53607B680022A2
:101FEC0083F820207B689B6A002B34D07B689B6A2B
:101FFC00786898472FE07B681B6C08229A40FB6836
:10200C001340002B28D0BB6803F00803002B23D00F
:10201C007B681B681A687B681B6822F00E021A60CA
:10202C007B681A6C7B68DB6B012101FA02F25A6047
:10203C007B6801229A637B68012283F821207B68EC
:10204C00002283F820207B681B6B002B04D07B685C
:10205C001B6B7868984700BF00BF1037BD4680BD2A
:10206C00080002401C0002403000024044000240C4
:10207C00580002406C0002400000024080B485B061
:10208C0000AFF860B9607A603B60FB681A6CFB6863
:10209C00DB6B012101FA02F25A60FB681B683A689B
:1020AC005A60FB685B68102B08D1FB681B687A6868
:1020BC009A60FB681B68BA68DA6007E0FB681B680B
:1020CC00BA689A60FB681B687A68DA6000BF1437DC
:1020DC00BD4680BC7047000080B48BB000AF786008
:1020EC00396000237B6200233B6269E101227B6A39
:1020FC0002FA03F3FB613B681B68FA691340BB618E
:10210C00BA69FB699A4240F058813B685B689A4A0D
:10211C0093425ED0984A934275D8984A934258D0CD
:10212C00964A93426FD8964A934252D0944A93421D
:10213C0069D8944A93424CD0924A934263D8924ABB
:10214C00934246D0904A93425DD8122B2AD8122B38
:10215C0059D801A252F823F0DF210008B921000858
:10216C00CB2100080D2200081322000813220008BE
:10217C00132200081322000813220008132200085F
:10218C00132200081322000813220008132200084F
:10219C00132200081322000813220008C121000892
:1021AC00D5210008794A934213D02CE03B68DB68B8
:1021BC003B6229E03B68DB6804333B6224E03B680C
:1021CC00DB6808333B621FE03B68DB680C333B6227
:1021DC001AE03B689B68002B02D104233B6213E09E
:1021EC003B689B68012B05D108233B627B68FA692D
:1021FC001A6109E008233B627B68FA695A6103E0C3
:10220C0000233B6200E000BFBB69FF2B01D87B6859
:10221C0001E07B6804337B61BB69FF2B02D87B6ACE
:10222C009B0002E07B6A083B9B003B617B691A6860
:10223C000F213B6901FA03F3DB431A40396A3B690E
:10224C0001FA03F31A437B691A603B685B6803F07D
:10225C008053002B00F0B1804D4B9B694C4A43F0EE
:10226C00010393614A4B9B6903F00103BB60BB689C
:10227C00484A7B6A9B08023352F82330FB607B6A26
:10228C0003F003039B000F2202FA03F3DB43FA680B
:10229C001340FB607B68404A934213D07B683F4AF3
:1022AC0093420DD07B683E4A934207D07B683D4AEF
:1022BC00934201D1032306E0042304E0022302E04D
:1022CC00012300E000237A6A02F00302920093409B
:1022DC00FA681343FB602F497B6A9B080233FA6848
:1022EC0041F823203B685B6803F48033002B06D055
:1022FC002D4B1A682C49BB6913430B6006E02A4B23
:10230C001A68BB69DB43284913400B603B685B6868
:10231C0003F40033002B06D0234B5A682249BB69C7
:10232C0013434B6006E0204B5A68BB69DB431E49E4
:10233C0013404B603B685B6803F48013002B06D0A2
:10234C00194B9A681849BB6913438B6006E0164B0E
:10235C009A68BB69DB43144913408B603B685B682C
:10236C0003F40013002B21D00F4BDA680E49BB6924
:10237C001343CB6021E000BF00003210000031108D
:10238C00000022100000211000001210000011109B
:10239C00001002400000014000080140000C014008
:1023AC000010014000140140000401400B4BDA689E
:1023BC00BB69DB4309491340CB607B6A01337B6209
:1023CC003B681A687B6A22FA03F3002B7FF48EAE0B
:1023DC0000BF00BF2C37BD4680BC704700040140D5
:1023EC0080B483B000AF78600B467B8013467B7063
:1023FC007B78002B03D07A887B681A6103E07B889A
:10240C001A047B681A6100BF0C37BD4680BC70474C
:10241C0080B485B000AF78600B467B807B68DB684E
:10242C00FB607A88FB6813401A04FB68D9437B88ED
:10243C000B401A437B681A6100BF1437BD4680BC41
:10244C007047000080B584B000AF78607B68002BCB
:10245C0001D101232BE17B6893F83D30DBB2002BDB
:10246C0006D17B68002283F83C207868FEF7FAFBE3
:10247C007B68242283F83D207B681B681A687B6884
:10248C001B6822F001021A607B681B681A687B6863
:10249C001B6842F400421A607B681B681A687B68F0
:1024AC001B6822F400421A6000F0EAFFF8607B68B7
:1024BC005B68814A934207D8FB68804A934294BF79
:1024CC0001230023DBB206E0FB687D4A934294BFF4
:1024DC0001230023DBB2002B01D00123E7E0FB68D2
:1024EC00784AA2FB03239B0CBB607B681B685B6870
:1024FC0023F03F017B681B68BA680A435A607B680B
:10250C001B681B6A23F03F017B685B686A4A934235
:10251C0002D8BB68013309E0BB684FF4967202FB2A
:10252C0003F3694AA2FB03239B0901337A681268FF
:10253C000B4313627B681B68DB6923F44F4222F068
:10254C00FF027B685B685C498B4219D8FB68591E9B
:10255C007B685B685B00B1FBF3F3591C40F6FC73C2
:10256C000B40002B0AD0FB68591E7B685B685B0034
:10257C00B1FBF3F30133C3F30B0351E004234FE03E
:10258C007B689B68002B11D1FB68581E7B685968CF
:10259C000B465B000B44B0FBF3F30133C3F30B03AB
:1025AC00002B0CBF01230023DBB212E0FB68581E8A
:1025BC007B6859680B469B000B4499000B44B0FB9D
:1025CC00F3F30133C3F30B03002B0CBF01230023E4
:1025DC00DBB2002B01D0012322E07B689B68002B2F
:1025EC000ED1FB68581E7B6859680B465B000B4488
:1025FC00B0FBF3F30133C3F30B0343F400430FE0DD
:10260C00FB68581E7B6859680B469B000B4499006D
:10261C000B44B0FBF3F30133C3F30B0343F440431C
:10262C00796809681343CB617B681B681B6823F0CE
:10263C00C0017B68DA697B681B6A1A437B681B687C
:10264C000A431A607B681B689B6823F4034323F0DE
:10265C00FF037A6811697A68D26811437A68126844
:10266C000B4393607B681B68DB6823F0FF017B687E
:10267C005A697B689B691A437B681B680A43DA605A
:10268C007B681B681A687B681B6842F001021A6041
:10269C007B6800221A647B68202283F83D207B68CB
:1026AC0000221A637B68002283F83E200023184620
:1026BC001037BD4680BD00BFA08601007F841E0080
:1026CC00FF083D0083DE1B43D34D621080B588B0FC
:1026DC0002AFF8607A601A460B467B8113463B8149
:1026EC00FEF730FD7861FB6893F83D30DBB2202BB0
:1026FC0040F0E0807B690093192301227049F8684F
:10270C0000F064F90346002B01D00223D3E0FB68F0
:10271C0093F83C30012B01D10223CCE0FB68012261
:10272C0083F83C20FB681B681B6803F00103012B3A
:10273C0007D0FB681B681A68FB681B6842F0010233
:10274C001A60FB681B681A68FB681B6822F400623D
:10275C001A60FB68212283F83D20FB68102283F865
:10276C003E20FB6800221A64FB687A685A62FB6898
:10277C003A895A85FB685B8D9AB2FB681A85FB68AF
:10278C00504ADA6279897B693A6AF86800F09CF8F9
:10279C000346002B01D001238DE000233B61FB6835
:1027AC001B685B693B61FB681B689B693B613B6910
:1027BC0066E07A69396AF86800F0DEF90346002BA6
:1027CC000DD0FB681B6C042B07D1FB681B681A68C7
:1027DC00FB681B6842F400721A6001236BE0FB6813
:1027EC005B6A1A78FB681B681A61FB685B6A5A1C87
:1027FC00FB685A62FB685B8D9BB2013B9AB2FB682B
:10280C005A85FB681B8D013B9AB2FB681A85FB68E5
:10281C001B685B6903F00403042B1BD1FB681B8D45
:10282C00002B17D0FB685B6A1A78FB681B681A616F
:10283C00FB685B6A5A1CFB685A62FB685B8D9BB237
:10284C00013B9AB2FB685A85FB681B8D013B9AB21F
:10285C00FB681A857A69396AF86800F0CEF9034684
:10286C00002B0DD0FB681B6C042B07D1FB681B687D
:10287C001A68FB681B6842F400721A6001231AE0A4
:10288C00FB681B8D002B94D1FB681B681A68FB68D6
:10289C001B6842F400721A60FB68202283F83D200A
:1028AC00FB68002283F83E20FB68002283F83C2062
:1028BC00002300E0022318461837BD4680BD00BF38
:1028CC00020010000000FFFF80B588B002AFF86076
:1028DC007A603B600B467B81FB68DB6A7B617B69C2
:1028EC00082B06D07B69012B03D07B6913F5803F45
:1028FC0008D1FB681B681A68FB681B6842F480727D
:10290C001A600BE0FB681B6B122B07D1FB681B6872
:10291C001A68FB681B6842F480721A603B6800936B
:10292C007B6800224FF00111F86800F04FF8034665
:10293C00002B0DD0FB681B681B6803F48073B3F588
:10294C00807F03D1FB684FF400721A64032335E0D7
:10295C00FB681B69B3F5804F08D17B89DBB21A4643
:10296C00FB681B6802F0FE021A611BE07B89DB111D
:10297C00DBB203F00603DBB263F00F03DAB2FB68E1
:10298C001B681A613B687A680E49F86800F075F8A4
:10299C000346002B01D0012310E07B89DAB2FB68DF
:1029AC001B681A613B687A680749F86800F065F89B
:1029BC000346002B01D0012300E0002318461837F2
:1029CC00BD4680BD080001000200010080B584B046
:1029DC0000AFF860B9603B601346FB7125E03B68C3
:1029EC00B3F1FF3F21D0FEF7ADFB0246BB69D31A12
:1029FC003A689A4202D33B68002B16D1FB6800223E
:102A0C001A63FB68202283F83D20FB68002283F8C0
:102A1C003E20FB681B6C43F02002FB681A64FB68C9
:102A2C00002283F83C20012323E0BB681B0CDBB2A3
:102A3C00012B0DD1FB681B685B69DA43BB68134043
:102A4C009BB2002B0CBF01230023DBB21A460CE017
:102A5C00FB681B689B69DA43BB6813409BB2002B75
:102A6C000CBF01230023DBB21A46FB799A42B6D085
:102A7C00002318461037BD4680BD80B584B000AF2A
:102A8C00F860B9607A603B6051E0FB681B685B6979
:102A9C0003F48063B3F5806F23D1FB681B681A685D
:102AAC00FB681B6842F400721A60FB681B686FF4C9
:102ABC0080625A61FB6800221A63FB68202283F84B
:102ACC003D20FB68002283F83E20FB681B6C43F022
:102ADC000402FB681A64FB68002283F83C20012383
:102AEC0046E07B68B3F1FF3F21D0FEF72BFB02469B
:102AFC003B68D31A7A689A4202D37B68002B16D1B2
:102B0C00FB6800221A63FB68202283F83D20FB68D7
:102B1C00002283F83E20FB681B6C43F02002FB680C
:102B2C001A64FB68002283F83C20012320E0BB6878
:102B3C001B0CDBB2012B0CD1FB681B685B69DA4305
:102B4C00BB6813409BB2002B14BF01230023DBB2E4
:102B5C000BE0FB681B689B69DA43BB6813409BB2B4
:102B6C00002B14BF01230023DBB2002B8DD10023DB
:102B7C0018461037BD4680BD80B584B000AFF860F4
:102B8C00B9607A602DE0F86800F078F80346002B05
:102B9C0001D001232DE0BB68B3F1FF3F21D0FEF73C
:102BAC00D1FA02467B68D31ABA689A4202D3BB6840
:102BBC00002B16D1FB6800221A63FB68202283F8D5
:102BCC003D20FB68002283F83E20FB681B6C43F021
:102BDC002002FB681A64FB68002283F83C20012366
:102BEC0007E0FB681B685B6903F08003802BCAD18C
:102BFC00002318461037BD4680BD80B584B000AFA9
:102C0C00F860B9607A602DE0F86800F037F8034698
:102C1C00002B01D001232DE0BB68B3F1FF3F21D085
:102C2C00FEF790FA02467B68D31ABA689A4202D32E
:102C3C00BB68002B16D1FB6800221A63FB682022AC
:102C4C0083F83D20FB68002283F83E20FB681B6C58
:102C5C0043F02002FB681A64FB68002283F83C20D6
:102C6C00012307E0FB681B685B6903F00403042B7A
:102C7C00CAD1002318461037BD4680BD80B483B03E
:102C8C0000AF78607B681B685B6903F48063B3F505
:102C9C00806F1BD17B681B686FF480625A617B6804
:102CAC0000221A637B68202283F83D207B68002277
:102CBC0083F83E207B681B6C43F004027B681A642B
:102CCC007B68002283F83C20012300E00023184697
:102CDC000C37BD4680BC704780B586B000AF7860BD
:102CEC007B68002B01D1012372E27B681B6803F027
:102CFC000103002B00F08780924B5B6803F00C0300
:102D0C00042B0CD08F4B5B6803F00C03082B12D1F7
:102D1C008C4B5B6803F48033B3F5803F0BD1894B4C
:102D2C001B6803F40033002B6CD07B685B68002BB2
:102D3C0068D101234CE27B685B68B3F5803F06D118
:102D4C00804B1B687F4A43F4803313602EE07B6812
:102D5C005B68002B0CD17B4B1B687A4A23F48033C5
:102D6C001360784B1B68774A23F4802313601DE0B3
:102D7C007B685B68B3F5A02F0CD1724B1B68714A52
:102D8C0043F4802313606F4B1B686E4A43F480330B
:102D9C0013600BE06B4B1B686A4A23F4803313609F
:102DAC00684B1B68674A23F4802313607B685B685D
:102DBC00002B13D0FEF7C6F9386108E0FEF7C2F914
:102DCC0002463B69D31A642B01D9032300E25D4B05
:102DDC001B6803F40033002BF0D014E0FEF7B2F9BB
:102DEC00386108E0FEF7AEF902463B69D31A642B52
:102DFC0001D90323ECE1534B1B6803F40033002B84
:102E0C00F0D100E000BF7B681B6803F00203002BCD
:102E1C0063D04C4B5B6803F00C03002B0BD0494B7D
:102E2C005B6803F00C03082B1CD1464B5B6803F466
:102E3C008033002B16D1434B1B6803F00203002B8D
:102E4C0005D07B681B69012B01D00123C0E13D4BF0
:102E5C001B6823F0F8027B685B69DB00394913437C
:102E6C000B603AE07B681B69002B20D0364B0122AB
:102E7C001A60FEF767F9386108E0FEF763F902465D
:102E8C003B69D31A022B01D90323A1E12D4B1B68FB
:102E9C0003F00203002BF0D02A4B1B6823F0F8023E
:102EAC007B685B69DB00274913430B6015E0264BFD
:102EBC0000221A60FEF746F9386108E0FEF742F985
:102ECC0002463B69D31A022B01D9032380E11D4B27
:102EDC001B6803F00203002BF0D17B681B6803F026
:102EEC000803002B3AD07B689B69002B19D0174B39
:102EFC0001221A60FEF726F9386108E0FEF722F984
:102F0C0002463B69D31A022B01D9032360E10D4B16
:102F1C005B6A03F00203002BF0D0012000F0D8FA1A
:102F2C001CE00A4B00221A60FEF70CF938610FE026
:102F3C00FEF708F902463B69D31A022B08D9032382
:102F4C0046E100BF001002400000424280044242B1
:102F5C00924B5B6A03F00203002BE9D17B681B6880
:102F6C0003F00403002B00F0A6800023FB758B4BB1
:102F7C00DB6903F08053002B0DD1884BDB69874A4A
:102F8C0043F08053D361854BDB6903F08053BB6006
:102F9C00BB680123FB75824B1B6803F48073002B09
:102FAC0018D17F4B1B687E4A43F480731360FEF785
:102FBC00C9F8386108E0FEF7C5F802463B69D31A38
:102FCC00642B01D9032303E1754B1B6803F4807355
:102FDC00002BF0D07B68DB68012B06D16F4B1B6A92
:102FEC006E4A43F0010313622DE07B68DB68002B13
:102FFC000CD16A4B1B6A694A23F001031362674BBD
:10300C001B6A664A23F0040313621CE07B68DB68CE
:10301C00052B0CD1614B1B6A604A43F0040313620D
:10302C005E4B1B6A5D4A43F0010313620BE05B4B82
:10303C001B6A5A4A23F001031362584B1B6A574A06
:10304C0023F0040313627B68DB68002B15D0FEF7BA
:10305C0079F838610AE0FEF775F802463B69D31A35
:10306C0041F28832934201D90323B1E04B4B1B6AE6
:10307C0003F00203002BEED014E0FEF763F8386186
:10308C000AE0FEF75FF802463B69D31A41F2883238
:10309C00934201D903239BE0404B1B6A03F00203CC
:1030AC00002BEED1FB7D012B05D13C4BDB693B4A60
:1030BC0023F08053D3617B68DB69002B00F08780A1
:1030CC00364B5B6803F00C03082B61D07B68DB6923
:1030DC00022B46D1334B00221A60FEF733F83861CD
:1030EC0008E0FEF72FF802463B69D31A022B01D9F0
:1030FC0003236DE0294B1B6803F00073002BF0D108
:10310C007B681B6AB3F5803F08D1244B5B6823F4C2
:10311C0000327B689B68214913434B601F4B5B68F3
:10312C0023F474127B68196A7B685B6A0B431B4936
:10313C0013434B601B4B01221A60FEF703F83861F6
:10314C0008E0FDF7FFFF02463B69D31A022B01D9B9
:10315C0003233DE0114B1B6803F00073002BF0D0F0
:10316C0035E0104B00221A60FDF7ECFF386108E0E7
:10317C00FDF7E8FF02463B69D31A022B01D9032362
:10318C0026E0064B1B6803F00073002BF0D11EE009
:10319C007B68DB69012B07D1012319E00010024089
:1031AC0000700040600042420B4B5B68FB60FB68A8
:1031BC0003F480327B681B6A9A4206D1FB6803F4E5
:1031CC0070127B685B6A9A4201D0012300E00023F5
:1031DC0018461837BD4680BD0010024080B584B03B
:1031EC0000AF786039607B68002B01D10123D0E0FF
:1031FC006A4B1B6803F007033A689A4210D9674B75
:10320C001B6823F0070265493B6813430B60634B53
:10321C001B6803F007033A689A4201D00123B8E017
:10322C007B681B6803F00203002B20D07B681B68B3
:10323C0003F00403002B05D0594B5B68584A43F448
:10324C00E06353607B681B6803F00803002B05D018
:10325C00534B5B68524A43F460535360504B5B686A
:10326C0023F0F0027B689B684D4913434B607B68ED
:10327C001B6803F00103002B40D07B685B68012BBB
:10328C0007D1474B1B6803F40033002B15D10123E6
:10329C007FE07B685B68022B07D1414B1B6803F016
:1032AC000073002B09D1012373E03D4B1B6803F025
:1032BC000203002B01D101236BE0394B5B6823F037
:1032CC0003027B685B68364913434B60FDF73AFF9A
:1032DC00F8600AE0FDF736FF0246FB68D31A41F2AC
:1032EC008832934201D9032353E02D4B5B6803F0E2
:1032FC000C027B685B689B009A42EBD1274B1B68E6
:10330C0003F007033A689A4210D2244B1B6823F04F
:10331C00070222493B6813430B60204B1B6803F0E8
:10332C0007033A689A4201D0012332E07B681B689C
:10333C0003F00403002B08D0194B5B6823F4E06204
:10334C007B68DB68164913434B607B681B6803F092
:10335C000803002B09D0124B5B6823F460527B6886
:10336C001B69DB000E4913434B6000F021F8024649
:10337C000B4B5B681B0903F00F030A49CB5C22FA69
:10338C0003F3094A1360094B1B681846FDF798FEB6
:10339C00002318461037BD4680BD00BF00200240F8
:1033AC000010024028450008000000200800002002
:1033BC0090B48AB000AF294B3C1D0FCB84E80F00B2
:1033CC0040F201233B800023FB610023BB610023FF
:1033DC007B6200237B6100233B62214B5B68FB61BA
:1033EC00FB6903F00C03042B02D0082B03D02BE059
:1033FC001C4B3B622BE0FB699B0C03F00F03283347
:10340C003B4413F8243C7B61FB6903F48033002BB1
:10341C0012D0134B5B685B0C03F0010328333B4465
:10342C0013F8283CBB617B690E4A03FB02F2BB69B3
:10343C00B2FBF3F37B6204E07B690B4A02FB03F300
:10344C007B627B6A3B6202E0064B3B6200BF3B6ADD
:10345C0018462837BD4690BC704700BF1845000879
:10346C000010024000127A0000093D0080B400AF49
:10347C00024B1B681846BD4680BC704700000020FC
:10348C0080B500AFFFF7F2FF0246054B5B681B0AE5
:10349C0003F007030349CB5C22FA03F3184680BD03
:1034AC00001002403845000880B500AFFFF7DEFF82
:1034BC000246054B5B68DB0A03F007030349CB5C50
:1034CC0022FA03F3184680BD00100240384500086C
:1034DC0080B485B000AF78600A4B1B680A4AA2FB27
:1034EC0003235B0A7A6802FB03F3FB6000BFFB68F3
:1034FC005A1EFA60002BF9D100BF00BF1437BD462D
:10350C0080BC704700000020D34D621080B586B09F
:10351C0000AF786000233B610023FB607B681B6875
:10352C0003F00103002B7DD00023FB754F4BDB69AF
:10353C0003F08053002B0DD14C4BDB694B4A43F00D
:10354C008053D361494BDB6903F08053BB60BB688C
:10355C000123FB75464B1B6803F48073002B18D1B9
:10356C00434B1B68424A43F480731360FDF7EAFD3A
:10357C00386108E0FDF7E6FD02463B69D31A642B7F
:10358C0001D903236DE03A4B1B6803F48073002BC5
:10359C00F0D0364B1B6A03F44073FB60FB68002BC6
:1035AC002ED07B685B6803F44073FA689A4227D08C
:1035BC002E4B1B6A23F44073FB602E4B01221A60C6
:1035CC002C4B00221A60294AFB681362FB6803F03B
:1035DC000103002B14D0FDF7B5FD38610AE0FDF7AF
:1035EC00B1FD02463B69D31A41F28832934201D9AC
:1035FC00032336E01D4B1B6A03F00203002BEED0B5
:10360C001A4B1B6A23F440727B685B68174913439F
:10361C000B62FB7D012B05D1144BDB69134A23F0A4
:10362C008053D3617B681B6803F00203002B08D026
:10363C000E4B5B6823F440427B689B680B49134339
:10364C004B607B681B6803F01003002B08D0074B02
:10365C005B6823F480027B68DB68044913434B608E
:10366C00002318461837BD4680BD00BF001002402D
:10367C00007000404004424280B582B000AF7860D8
:10368C007B68002B01D1012341E07B6893F83D302E
:10369C00DBB2002B06D17B68002283F83C207868D3
:1036AC00FDF71EFB7B68022283F83D207B681A68BD
:1036BC007B6804331946104600F0BAFA7B68012285
:1036CC0083F846207B68012283F83E207B68012228
:1036DC0083F83F207B68012283F840207B6801221D
:1036EC0083F841207B68012283F842207B68012209
:1036FC0083F843207B68012283F844207B680122F5
:10370C0083F845207B68012283F83D20002318466E
:10371C000837BD4680BD000080B485B000AF78602E
:10372C007B6893F83D30DBB2012B01D0012332E0F2
:10373C007B68022283F83D207B681B68184A934201
:10374C000ED07B681B68B3F1804F09D07B681B6877
:10375C00144A934204D07B681B68134A934211D1DC
:10376C007B681B689B6803F00703FB60FB68062BF8
:10377C0010D07B681B681A687B681B6842F00102DA
:10378C001A6007E07B681B681A687B681B6842F04C
:10379C0001021A60002318461437BD4680BC7047DE
:1037AC00002C0140000400400008004080B485B0AB
:1037BC0000AF78607B6893F83D30DBB2012B01D011
:1037CC0001233AE07B68022283F83D207B681B686A
:1037DC00DA687B681B6842F00102DA607B681B6860
:1037EC00184A93420ED07B681B68B3F1804F09D006
:1037FC007B681B68144A934204D07B681B68134A8D
:10380C00934211D17B681B689B6803F00703FB6034
:10381C00FB68062B10D07B681B681A687B681B68DA
:10382C0042F001021A6007E07B681B681A687B682B
:10383C001B6842F001021A60002318461437BD467B
:10384C0080BC7047002C0140000400400008004080
:10385C0080B582B000AF78607B681B681B6903F091
:10386C000203022B22D17B681B68DB6803F0020386
:10387C00022B1BD17B681B686FF002021A617B68FC
:10388C0001221A777B681B689B6903F00303002BEA
:10389C0003D0786800F0B1F905E0786800F0A4F97D
:1038AC00786800F0B3F97B6800221A777B681B6894
:1038BC001B6903F00403042B22D17B681B68DB68B3
:1038CC0003F00403042B1BD17B681B686FF004020C
:1038DC001A617B6802221A777B681B689B6903F468
:1038EC004073002B03D0786800F087F905E0786806
:1038FC0000F07AF9786800F089F97B6800221A7771
:10390C007B681B681B6903F00803082B22D17B68BA
:10391C001B68DB6803F00803082B1BD17B681B6852
:10392C006FF008021A617B6804221A777B681B68A7
:10393C00DB6903F00303002B03D0786800F05DF91A
:10394C0005E0786800F050F9786800F05FF97B6862
:10395C0000221A777B681B681B6903F01003102B7D
:10396C0022D17B681B68DB6803F01003102B1BD182
:10397C007B681B686FF010021A617B6808221A774B
:10398C007B681B68DB6903F44073002B03D07868F9
:10399C0000F033F905E0786800F026F9786800F05B
:1039AC0035F97B6800221A777B681B681B6903F06A
:1039BC000103012B0ED17B681B68DB6803F001034C
:1039CC00012B07D17B681B686FF001021A617868C4
:1039DC00FDF7AEFA7B681B681B6903F08003802B34
:1039EC000ED17B681B68DB6803F08003802B07D14A
:1039FC007B681B686FF080021A61786800F077FAB8
:103A0C007B681B681B6903F04003402B0ED17B685D
:103A1C001B68DB6803F04003402B07D17B681B68F5
:103A2C006FF040021A61786800F0F9F87B681B6847
:103A3C001B6903F02003202B0ED17B681B68DB680D
:103A4C0003F02003202B07D17B681B686FF020024A
:103A5C001A61786800F042FA00BF0837BD4680BD95
:103A6C0080B584B000AF786039607B6893F83C30E7
:103A7C00012B01D10223B3E07B68012283F83C20A7
:103A8C007B68022283F83D207B681B689B68FB6087
:103A9C00FB6823F07703FB60FB6823F47F43FB6038
:103AAC007B681B68FA689A603B681B68B3F5005F1B
:103ABC003ED0B3F5005F00F28780B3F5805F00F075
:103ACC008580B3F5805F7FD8702B1AD0702B7BD894
:103ADC00602B50D0602B77D8502B3CD0502B73D808
:103AEC00402B58D0402B6FD8302B64D0302B6BD858
:103AFC00202B60D0202B67D8002B5CD0102B5AD0F9
:103B0C0062E07B6818683B6899683B685A683B6858
:103B1C00DB6800F066F97B681B689B68FB60FB68E0
:103B2C0043F07703FB607B681B68FA689A604EE091
:103B3C007B6818683B6899683B685A683B68DB6827
:103B4C0000F04FF97B681B689A687B681B6842F42D
:103B5C0080429A603BE07B6818683B6859683B6818
:103B6C00DB681A4600F0C6F87B681B6850211846C3
:103B7C0000F01DF92BE07B6818683B6859683B68BE
:103B8C00DB681A4600F0E4F87B681B686021184675
:103B9C0000F00DF91BE07B6818683B6859683B68BE
:103BAC00DB681A4600F0A6F87B681B6840211846B3
:103BBC0000F0FDF80BE07B681A683B681B6819463F
:103BCC00104600F0F4F802E000BF00E000BF7B6894
:103BDC00012283F83D207B68002283F83C200023DF
:103BEC0018461037BD4680BD80B483B000AF7860F6
:103BFC0000BF0C37BD4680BC704780B483B000AFAB
:103C0C00786000BF0C37BD4680BC704780B483B071
:103C1C0000AF786000BF0C37BD4680BC704780B4E5
:103C2C0083B000AF786000BF0C37BD4680BC7047D6
:103C3C0080B485B000AF786039607B681B68FB602E
:103C4C007B68294A93420BD07B68B3F1804F07D035
:103C5C007B68264A934203D07B68254A934208D15D
:103C6C00FB6823F07003FB603B685B68FA681343E6
:103C7C00FB607B681C4A93420BD07B68B3F1804F8E
:103C8C0007D07B68194A934203D07B68184A934249
:103C9C0008D1FB6823F44073FB603B68DB68FA686F
:103CAC001343FB60FB6823F080023B685B691343A2
:103CBC00FB607B68FA681A603B689A687B68DA621A
:103CCC003B681A687B689A627B68074A934203D107
:103CDC003B681A697B681A637B6801225A6100BFD2
:103CEC001437BD4680BC7047002C014000040040D6
:103CFC000008004080B487B000AFF860B9607A600B
:103D0C00FB681B6A7B61FB681B6A23F00102FB6882
:103D1C001A62FB689B693B613B6923F0F0033B61D2
:103D2C007B681B013A6913433B617B6923F00A03EF
:103D3C007B617A69BB6813437B61FB683A699A6162
:103D4C00FB687A691A6200BF1C37BD4680BC70479D
:103D5C0080B487B000AFF860B9607A60FB681B6A0A
:103D6C0023F01002FB681A62FB689B697B61FB689D
:103D7C001B6A3B617B6923F470437B617B681B038B
:103D8C007A6913437B613B6923F0A0033B61BB68F9
:103D9C001B013A6913433B61FB687A699A61FB68C2
:103DAC003A691A6200BF1C37BD4680BC704780B4AC
:103DBC0085B000AF786039607B689B68FB60FB68FE
:103DCC0023F07003FB603A68FB68134343F007036E
:103DDC00FB607B68FA689A6000BF1437BD4680BCF4
:103DEC00704780B487B000AFF860B9607A603B6010
:103DFC00FB689B687B617B6923F47F437B613B6839
:103E0C001A027B681A43BB6813437A6913437B61BC
:103E1C00FB687A699A6000BF1C37BD4680BC70474E
:103E2C0080B485B000AF786039607B6893F83C3023
:103E3C00012B01D1022346E07B68012283F83C2050
:103E4C007B68022283F83D207B681B685B68FB6003
:103E5C007B681B689B68BB60FB6823F07003FB608E
:103E6C003B681B68FA681343FB607B681B68FA6845
:103E7C005A607B681B68164A93420ED07B681B689D
:103E8C00B3F1804F09D07B681B68124A934204D06F
:103E9C007B681B68104A93420CD1BB6823F08003EB
:103EAC00BB603B685B68BA681343BB607B681B688C
:103EBC00BA689A607B68012283F83D207B680022F7
:103ECC0083F83C20002318461437BD4680BC70474D
:103EDC00002C0140000400400008004080B483B076
:103EEC0000AF786000BF0C37BD4680BC704780B413
:103EFC0083B000AF786000BF0C37BD4680BC704704
:103F0C0080B582B000AF78607B68002B01D10123B3
:103F1C003FE07B6893F83D30DBB2002B06D17B6829
:103F2C00002283F83C207868FCF712FF7B6824227F
:103F3C0083F83D207B681B68DA687B681B6822F479
:103F4C000052DA60786800F005F97B681B681A6922
:103F5C007B681B6822F490421A617B681B685A6963
:103F6C007B681B6822F02A025A617B681B68DA683E
:103F7C007B681B6842F40052DA607B6800221A648A
:103F8C007B68202283F83D207B68202283F83E202A
:103F9C00002318460837BD4680BD80B58AB002AFF5
:103FAC00F860B9603B601346FB8000237B61FB68C3
:103FBC0093F83D30DBB2202B7CD1BB68002B02D0B8
:103FCC00FB88002B01D1012375E0FB6893F83C3092
:103FDC00012B01D102236EE0FB68012283F83C2007
:103FEC00FB6800221A64FB68212283F83D20FDF750
:103FFC00A9F87861FB68FA889A84FB68FA88DA84F5
:10400C00FB689B68B3F5805F08D1FB681B69002BCC
:10401C0004D10023FB61BB68BB6103E0BB68FB619F
:10402C000023BB61FB68002283F83C202AE03B683C
:10403C0000937B6900228021F86800F040F8034669
:10404C00002B01D0032336E0FB69002B0BD1BB699D
:10405C001B881A46FB681B68C2F308025A60BB69CE
:10406C000233BB6107E0FB691A78FB681B685A6076
:10407C00FB690133FB61FB68DB8C9BB2013B9AB2A1
:10408C00FB68DA84FB68DB8C9BB2002BCFD13B68DE
:10409C0000937B6900224021F86800F010F8034679
:1040AC00002B01D0032306E0FB68202283F83D207F
:1040BC00002300E0022318462037BD4680BD80B5A2
:1040CC0084B000AFF860B9603B601346FB712CE024
:1040DC00BB69B3F1FF3F28D0BB69002B07D0FDF7BC
:1040EC0031F802463B68D31ABA699A421DD2FB6872
:1040FC001B68DA68FB681B6822F4D072DA60FB6814
:10410C001B685A69FB681B6822F001025A61FB6844
:10411C00202283F83D20FB68202283F83E20FB6898
:10412C00002283F83C2003230FE0FB681B681A680D
:10413C00BB681340BA689A420CBF01230023DBB260
:10414C001A46FB799A42C3D0002318461037BD4655
:10415C0080BD000080B584B000AF78607B681B68C0
:10416C001B6923F440517B68DA687B681B680A433F
:10417C001A617B689A687B681B691A437B685B6968
:10418C001343BB607B681B68DB6823F4B05323F0DC
:10419C000C037A681268B9680B43D3607B681B68A0
:1041AC005B6923F440717B689A697B681B680A43DE
:1041BC005A617B681B682C4A934203D1FFF774F950
:1041CC00F86002E0FFF75CF9F860FA6813469B00B0
:1041DC0013449A001A447B685B689B00B2FBF3F3B0
:1041EC00224AA2FB03235B091901FA6813469B00C0
:1041FC0013449A001A447B685B689B00B2FBF3F291
:10420C001A4BA3FB02035B09642000FB03F3D31AD4
:10421C001B013233154AA2FB03235B0903F0F003A5
:10422C001944FA6813469B0013449A001A447B689D
:10423C005B689B00B2FBF3F20C4BA3FB02035B0924
:10424C00642000FB03F3D31A1B013233074AA2FB91
:10425C0003235B0903F00F027B681B680A449A6016
:10426C0000BF1037BD4680BD003801401F85EB51A3
:10427C00014B1868704700BF1000002070B5002675
:10428C000C4D0D4C641BA410A64209D100F02CF966
:10429C0000260A4D0A4C641BA410A64205D170BD21
:1042AC0055F8043B98470136EEE755F8043B984720
:1042BC000136F2E74045000840450008404500083B
:1042CC0044450008024B0146186800F07BB800BF5B
:1042DC0010000020024B0146186800F00BB800BF1C
:1042EC001000002003460244934200D1704703F8AB
:1042FC00011BF9E738B50546002940D051F8043CBC
:10430C000C1F002BB8BFE41800F0E0F81C4A13682F
:10431C0033B9636014602846BDE8384000F0DCB85F
:10432C00A34208D9206821188B4201BF19685B6829
:10433C0009182160EDE71A465B680BB1A342FAD964
:10434C0011685018A0420BD12068014450188342C8
:10435C001160E0D118685B68014411605360DAE7C2
:10436C0002D90C232B60D6E7206821188B4201BFA1
:10437C0019685B680918216063605460CBE738BD2D
:10438C006002002070B50E4E0C463168054611B91E
:10439C0000F08CF830602146284600F087F8431C6A
:1043AC000AD0C41C24F00304A04207D0211A2846CA
:1043BC0000F07CF8013001D14FF0FF34204670BD85
:1043CC00640200202DE9F041CD1C25F003050835D1
:1043DC000C2D38BF0C25002D074601DBA94205D951
:1043EC000C2300263B603046BDE8F0812E4E00F0D9
:1043FC006DF833681C4634BB29463846FFF7C2FFBC
:10440C00431C04464DD134682646002E40D1236807
:10441C003146384604EB030800F048F880453AD1A1
:10442C00216803356D1A25F0030508350C2D38BFAE
:10443C000C2538462946FFF7A5FF01302BD0236801
:10444C002B4423600EE02268521B1ED40B2A16D973
:10445C006119A342256018BF5960636808BF3160B9
:10446C0062514B60384604F10B0600F035F826F02B
:10447C000706231DF21AB6D09B1BA350B3E7626844
:10448C00A3420CBF32605A60ECE723466468B2E783
:10449C0034467668B9E70C2338463B6000F01CF8CC
:1044AC00A1E72560DEE700BF6002002038B50023DD
:1044BC00054D044608462B60FCF7DCFC431C02D17E
:1044CC002B6803B1236038BD68020020014800F05E
:1044DC0009B800BF6C020020014800F004B800BF0E
:1044EC006C02002070477047F8B500BFF8BC08BCE0
:1044FC009E467047F8B500BFF8BC08BC9E46704796
:10450C00617364617364616400000000020304055C
:10451C00060708090A0B0C0D0E0F10100000000006
:10452C000000000001020304060708090000000057
:04453C000102030471
:04454000310100083D
:044544000D0100085D
:104548000024F40032010000100000000100000007
:10455800140000200000000000000000000000001F
:104568000000000000000000000000000000000043
:104578000000000000000000000000000000000033
:104588000000000000000000000000000000000023
:104598000000000000000000000000000000000013
:1045A8000000000000000000000000000000000003
:0445B80000000000FF
:04000005080010558A
:00000001FF
